:100000000C947D000C94810C0C94A80C0C94A5000D
:100010000C94A5000C94A5000C94BF070C94A500AB
:100020000C94A5000C94A5000C94A5000C94A500BC
:100030000C94A5000C94A5000C94A5000C94A500AC
:100040000C94CF0C0C94A5000C94A5000C94A50066
:100050000C94A5000C94A5000C94A5000C94A5008C
:100060000C94A5000C94A5005E01011F010303017F
:10007000008A02010A010202010064001E47040B0B
:100080000906007C0101060103030100F401060ECC
:100090000102020100C20117010102020101000078
:1000A0000008000201000003040700000000000037
:1000B0000000010204081020408001020408102002
:1000C00001020408102004040404040404040202CD
:1000D00002020202030303030303000000002300E3
:1000E0002600290000000000250028002B00000049
:1000F0000000240027002A00580511241FBECFEF5E
:10010000D8E0DEBFCDBF11E0A0E0B1E0E4E1F5E270
:1001100002C005900D92A839B107D9F722E0A8E9ED
:10012000B1E001C01D92A037B207E1F710E0CDE7C2
:10013000D0E004C02197FE010E947B0FCC37D1078D
:10014000C9F70E943F0C0C9488120C9400001F9376
:10015000CF93DF9300D000D000D0CDB7DEB710E052
:1001600060E0812F0E94F30D60E0812F0E942F0E2E
:100170001F5F1431A9F760E084E00E94F30D60E096
:1001800087E00E94F30D61E089E00E94F30D61E0D9
:1001900089E00E942F0E68EC70E080E090E00E9401
:1001A0004A0D60E089E00E942F0E60E089E00E9425
:1001B000F30D88E592E09093BA018093B9016FE165
:1001C00071E0CE0101960E94CC0ECE0101960E94F4
:1001D0005E0E8CE08093980126960FB6F894DEBFF1
:1001E0000FBECDBFDF91CF911F9108950F931F9345
:1001F000CF93DF9397FD0796EC0183E0D595C795E4
:100200008A95E1F700E010E00C171D0754F420E098
:1002100040E069E08AEC91E00E9475070F5F1F4F94
:10022000F3CFDF91CF911F910F91089580E090E07F
:100230000E9419129FEF980F9E3F58F081E090E0C6
:10024000909307018093060161E080E090E00C94B8
:1002500043122091980130E090E00197829FA00125
:10026000839F500D929F500D1124CA010196280FB3
:10027000391F2115344010F081E090E09093070180
:10028000809306010895CF93DF93CDB7DEB72C9707
:100290000FB6F894DEBF0FBECDBF0E9416014CE032
:1002A00050E066E071E0CE0101960E940912809153
:1002B0000801882381F01A8219821C861B8680E03F
:1002C00090E0A0ECBFE78B839C83AD83BE838F83DC
:1002D0009887A987BA878CE0FE013196A9E9B1E039
:1002E00001900D928A95E1F780919F019091A00174
:1002F000A091A101B091A20180930D0190930E01F4
:10030000A0930F01B093100180919B0190919C01EB
:10031000A0919D01B0919E018093090190930A01E3
:10032000A0930B01B0930C012C960FB6F894DEBF8E
:100330000FBECDBFDF91CF910895CF93882349F0B1
:100340008091A3019091A40101969093A4018093C0
:10035000A3018091990190919A01019690939A013D
:10036000809399014091980150E06091060170914D
:10037000070189E991E00E942112809199019091F1
:100380009A018033954700F180E090E00E941912B5
:10039000C82F682F70E06F5F7F4F80E090E00E9471
:1003A000311220919801C29FC00111240196AC0125
:1003B000420F511D9A012115344010F081E090E068
:1003C0009093070180930601CF910895CF92DF9219
:1003D000EF92FF92CF93DF9364EF71E080E090E0C3
:1003E0000E944A0DC5E0D0E060E087EA91E00E94FB
:1003F0003107609315017093160180931701909354
:10040000180140E060E087EA91E00E94D4066B01A9
:100410007C016093110170931201809313019093FA
:10042000140160911501709116018091170190914E
:1004300018019B01AC010E94390C811108C0A70171
:100440009601C701B6010E94390C882341F064E38C
:1004500078E080E090E00E944A0D219729F6DF9134
:10046000CF91FF90EF90DF90CF9008954F925F92E1
:100470006F927F928F929F92AF92BF92CF92DF92B4
:10048000EF92FF92CF93DF9300D000D000D0CDB792
:10049000DEB76B017C0149015A0184E391E00E94BF
:1004A00068112B013C016BE371E0CE0101960E94C3
:1004B000CC0ECE0101960E945E0E2AE0B701A60185
:1004C000CE0101960E94F80ECE0101960E945E0EAA
:1004D00066E471E0CE0101960E94CC0ECE01019639
:1004E0000E945E0E2AE0B501A401CE0101960E9491
:1004F000F80ECE0101960E945E0E4C145D046E044F
:100500007F0421F0C80CD91CEA1CFB1C6FE471E0CD
:10051000CE0101960E94CC0ECE0101960E945E0E85
:100520002AE0B701A601CE0101960E94F80ECE0185
:1005300001960E945E0E28E130E0B701A6018BEB28
:1005400091E00E947D0826960FB6F894DEBF0FBE9C
:10055000CDBFDF91CF91FF90EF90DF90CF90BF9014
:10056000AF909F908F907F906F905F904F90089585
:100570004F925F926F927F928F929F92AF92BF92B3
:10058000CF92DF92EF92FF92CF93DF93CDB7DEB79A
:100590002A970FB6F894DEBF0FBECDBF0E94E601CA
:1005A000C0901501D0901601E0901701F09018014D
:1005B000A7019601C701B6010E94390C811138C00C
:1005C0008090110190901201A0901301B09014013D
:1005D000A5019401C501B4010E94390C811128C004
:1005E00040909F015090A0016090A1017090A201E5
:1005F000A3019201C301B2010E94390C20919B0119
:1006000030919C0140919D0150919E012F8338872C
:1006100049875A8781112BC02F81388549855A8592
:10062000CA01B9010E94390C882309F498C01FC07F
:1006300061E671E0CE0101960E94CC0ECE010196DA
:100640000E945E0E83E591E00E9468116B017C01BF
:1006500084E391E00E946811A70196010E9436028E
:100660008CE390E09093BA018093B9014AC1409223
:100670000D0150920E0160920F01709210018F8156
:100680009885A985BA858093090190930A01A09362
:100690000B01B0930C0183E591E00E9468114B01BE
:1006A0005C0120E030E040E251E4C701B6010E9465
:1006B000CC0B0E94DF0A072E000C880B990BA501BA
:1006C00094010E9436028AE591E00E9468116B0154
:1006D0007C0120E030E040E251E460911101709132
:1006E000120180911301909114010E94CC0B0E9481
:1006F000DF0A072E000C880B990BA70196010E94B8
:10070000360288E592E09093BA018093B901109285
:10071000A6011092A5018091150190911601A0915A
:100720001701B091180180939F019093A001A093AD
:10073000A101B093A2018091110190911201A091A9
:100740001301B091140180939B0190939C01A0939D
:100750009D01B0939E0180E00E949D01D2C0A50141
:1007600094016091090170910A0180910B019091AF
:100770000C010E946D0A2B013C0120E030E0A90130
:100780000E94C70B18165CF420E030E040E251E410
:10079000C301B2010E94C70B18165CF05DC020E0D7
:1007A00030E040E251ECC301B2010E94DA0A87FF57
:1007B00053C0A701960160910D0170910E018091C7
:1007C0000F01909110010E946D0A2B013C0120E065
:1007D00030E0A9010E94C70B18165CF420E030E05D
:1007E00040E251E4C301B2010E94C70B18165CF04D
:1007F00033C020E030E040E251ECC301B2010E947E
:10080000DA0A87FF29C08091A5019091A601823064
:10081000910564F401969093A6018093A5018CE361
:1008200090E09093BA018093B9016BC01092A60139
:100830001092A501C0929F01D092A001E092A10167
:10084000F092A20180929B0190929C01A0929D0146
:10085000B0929E0181E011C0C0929F01D092A00190
:10086000E092A101F092A20180929B0190929C01E2
:10087000A0929D01B0929E0180E00E949D0183E5BF
:1008800091E00E9468116B017C0120E030E040E2C1
:1008900051E46091150170911601809117019091BA
:1008A00018010E94CC0B0E94DF0A072E000C880B57
:1008B000990BA70196010E9436028AE591E00E94F9
:1008C00068116B017C0120E030E040E251E460916E
:1008D00011017091120180911301909114010E94F5
:1008E000CC0B0E94DF0A072E000C880B990BA70186
:1008F00096010E94360288E592E09093BA018093B7
:10090000B9012A960FB6F894DEBF0FBECDBFDF91B6
:10091000CF91FF90EF90DF90CF90BF90AF909F90DE
:100920008F907F906F905F904F9008958EE48093AA
:100930007C006AE070E080E090E00E944A0D8091C7
:100940007A00806480937A0080917A0086FDFCCFE3
:10095000809178002091790030E0322F2227A90180
:10096000330F660B770B9A01AB01282B60E070E325
:1009700081E190E00E943A0FCA01B9010895CF9237
:10098000DF92EF92FF92CF93DF9300D000D000D0A0
:10099000CDB7DEB761E087E00E94F30D61E087E04C
:1009A0000E942F0E66E070E08BEB91E00E94190828
:1009B0006FE070E08BEB91E00E94150861E871E058
:1009C000CE0101960E94CC0ECE0101960E945E0ED1
:1009D0000E949604AB01BC012AE0CE0101960E9460
:1009E000F80ECE0101960E945E0E8BE891E00E9407
:1009F00068116B017C010E949604A70196010E9478
:100A000036020E94430161E084E00E94F30D61E040
:100A100084E00E942F0E87EA91E00E94840564E63C
:100A200070E080E090E00E944A0D0E94B80260E011
:100A300084E00E942F0E60E083E00E94F30D60E0EE
:100A400083E00E942F0E60E084E00E94F30D8BEBA8
:100A500091E00E94200860E087E00E94F30D60E0D2
:100A600087E00E942F0E60E086E00E94F30D60E0B8
:100A700086E00E942F0E62E971E0CE0101960E948D
:100A8000CC0ECE0101960E945E0E8091B90190912C
:100A9000BA010E94F60026960FB6F894DEBF0FBE8C
:100AA000CDBFDF91CF91FF90EF90DF90CF90089571
:100AB0008BEB91E00E94EE0726E046E163E087EAD7
:100AC00091E00C946305DC0115966C9315971696CE
:100AD0004C93169770E0FB01EE54FF4FE49117968C
:100AE000EC931797FB01EA53FF4F649118966C93B0
:100AF000189740E45FE160E070E01D964D935D93D0
:100B00006D937C9350970895CF93DF93EC0162E04F
:100B10008D810E94F30D80E398EFAFEFBFEF8987DF
:100B20009A87AB87BC87DF91CF9108958F929F9270
:100B3000AF92BF92CF92DF92EF92FF92CF93DC0100
:100B40001796CC911797662311F09C2F01C090E067
:100B500018962C91189730E0220F331F26523F4FE2
:100B600040E050E0BA01F901E590F490F70180818E
:100B70008C2398131AC04A015B01FFEF8F1A9F0A5A
:100B8000AF0ABF0A1D96CD90DD90ED90FC90509776
:100B90004C155D056E057F0518F4B501A401E3CF82
:100BA00030E020E080E090E003C0342F252FCB011F
:100BB000632F722FCF91FF90EF90DF90CF90BF9077
:100BC000AF909F908F9008958F929F92AF92BF9217
:100BD000CF92DF92EF92FF920F931F93CF93DF9309
:100BE000CDB7DEB7C054D1400FB6F894DEBF0FBE0C
:100BF000CDBF8C01F62E0E94190DF11016C0F80120
:100C0000C184D284E384F4849B01AC012C193D0996
:100C10004E095F0969017A0130EDC31637E0D3064A
:100C2000E104F10410F48189ABC0F8016187728797
:100C3000838794871482138212821182108261E06A
:100C400085810E942F0E6AEF70E080E090E00E94A4
:100C50004A0D61E0F80185810E94F30D60E0F80122
:100C600085810E942F0E64E170E080E090E00E9498
:100C70004A0DF89462E0F80185810E94F30D82E349
:100C800090E00E94860D60E0C8010E949605672BE7
:100C9000682B692B21F4F801118A789442C061E035
:100CA000C8010E949605672B682B692BA1F39E0152
:100CB0002F5F3F4F79015E013FEBA31A3EEFB30A6E
:100CC000670160E0C8010E949605F60160837183A8
:100CD0008283938361E0C8010E949605F6016483D4
:100CE000758386839783F8E0CF0ED11CCA14DB048A
:100CF00041F7789420E030E0F70180809180A28075
:100D0000B380448155816681778181149104A10467
:100D1000B10429F0411551056105710521F4F8016F
:100D2000118A80E02DC0F90183E0F595E7958A9559
:100D3000E1F7E00FF11F8081880F84169506A60663
:100D4000B70608F4816080832F5F3F4FF8E0EF0E15
:100D5000F11C2832310581F6F801248130E0408110
:100D6000818190E0840F911D4281840F911D438108
:100D7000840F911D99272817390789F681E0818B07
:100D8000C05CDE4F0FB6F894DEBF0FBECDBFDF9163
:100D9000CF911F910F91FF90EF90DF90CF90BF9078
:100DA000AF909F908F900895CF92DF92EF92FF9235
:100DB0000F931F93CF93DF93EC01162F642F0E94A4
:100DC000E405882309F440C08E818B3029F0E0F1DE
:100DD0008551823040F038C06A8170E080E090E058
:100DE0000E94150B22C00A81602F6F7770E080E0AF
:100DF00090E00E94170B20E030E040E853E40E94AE
:100E0000CC0B6B017C016B8170E080E090E00E9474
:100E1000170BA70196010E946E0A2DEC3CEC4CECDE
:100E20005DE30E94CC0B07FD9058112389F026E664
:100E300036E646EE5FE30E94CC0B20E030E040E077
:100E400052E40E946E0A04C060E070E080EC9FE70C
:100E5000DF91CF911F910F91FF90EF90DF90CF9096
:100E60000895CF92DF92EF92FF92CF93DF93EC0140
:100E700060E00E94E405882369F18E818B3019F1CE
:100E800048F18551823030F5688170E080E090E073
:100E90000E94150B20E030E040E853E40E94CC0BA8
:100EA0006B017C01698170E080E090E00E94170B8B
:100EB000A70196010E946E0A2DEC3CEC4CEC5DE320
:100EC0000E94CC0B0BC0688170E080E090E00E9433
:100ED000150B04C060E070E080EC9FE7DF91CF91DC
:100EE000FF90EF90DF90CF900895411105C0EAE7A1
:100EF000F0E080818F7780836A30A9F063FD02C0C3
:100F000088E001C088E26770682B88E10FB6F8942A
:100F1000A895809360000FBE60936000E0E6F0E06B
:100F2000808180648083211114C083B7817F8460B5
:100F300083BFF89483B7816083BF85B7806685BF20
:100F40008F7D85BF7894889583B78E7F83BF789493
:100F50000EC083B7817F846083BFF89483B78160BC
:100F600083BF7894889583B78E7F83BF789441112F
:100F700005C0EAE7F0E080818068808308951F92D1
:100F80000F920FB60F9211248F930FB6F894A89575
:100F900080916000886180936000109260000FBEB5
:100FA0008F910F900FBE0F901F9018959B012150AD
:100FB00031092630310510F061E070E061507109AF
:100FC00049E0469F9001479F300D1124B9016859AF
:100FD0007F4F49E050E006960C948F110F931F93BA
:100FE000CF93DF93EC010FEF1FEF1B830A838AE09F
:100FF00090E09D838C8361E070E0CE010E94D60773
:10100000198308838CE390E090931A01809319016F
:1010100010925F02109260021092610210926202BE
:10102000DF91CF911F910F910895FC017583648327
:101030000895FC01862F6283738361E00C94F30DA5
:101040002FEF3FEFFC01338322830895FF920F932C
:101050001F93CF93DF93EC01F62E072F8E85882305
:1010600019F060E011E002C061E010E08A810E94A6
:101070002F0E8E819F819C01F29EC001F39E900DE8
:1010800011240E94860D612F8A810E942F0E8E816D
:101090009F819C01029FC001039F900D1124DF914D
:1010A000CF911F910F91FF900C94860DFC018081D0
:1010B00091818F3FFFEF9F0791F010925F02109296
:1010C0006002109261021092620210925E0210920F
:1010D0005D0241E050E062EF79E00C944F0C08951E
:1010E000CF93DF93EC0188810E946F0C8FEF9FEF0D
:1010F00099838883DF91CF9108952F923F924F92E9
:101100005F926F927F928F929F92AF92BF92CF9297
:10111000DF92EF92FF920F931F93CF93DF93DC0147
:101120001296ED91FC911397319609F45CC0190168
:101130006A017B01EC01488059808FEF4816580600
:1011400019F0CE010E947008612C712C812C912C19
:10115000540183948C819D81681679064CF5810138
:101160000150110917FD1BC0D501C401002E04C098
:10117000880F991FAA1FBB1F0A94D2F78C219D21AB
:10118000AE21BF21892B8A2B8B2B19F06C857D8595
:1011900002C06A857B85CE010E942608E1CF688562
:1011A0007985CE010E942608AFEF6A1A7A0AD2CF5B
:1011B000BFEF4B165B06B9F059824882CE01DF9132
:1011C000CF911F910F91FF90EF90DF90CF90BF9044
:1011D000AF909F908F907F906F905F904F903F90D7
:1011E0002F900C945608DF91CF911F910F91FF9093
:1011F000EF90DF90CF90BF90AF909F908F907F90B7
:101200006F905F904F903F902F9008952F923F9254
:101210004F925F926F927F928F929F92AF92BF9206
:10122000CF92DF92EF92FF920F931F93CF93DF93B2
:10123000CDB7DEB72D970FB6F894DEBF0FBECDBF8A
:101240008C017B01019729E0289FB001299F700D37
:10125000112468597F4F49E050E0CE0101960E9469
:101260008F118B816C81681708F4682F70E0809172
:10127000D3019091D4010E94260F9B014091190146
:1012800050911A01649FC001659F900D749F900D4D
:10129000112464E670E00E94260F8985811103C045
:1012A000A1E0B0E002C0A2E0B0E08D81829F3001F9
:1012B000839F700C11247B866A868E81829F100129
:1012C000839F300C11248F81829F2001839F500CBB
:1012D00011248885829FA001839F500D11245D8772
:1012E0004C87FD01EE0FFF1FED52FE4F812C912C1C
:1012F0005401670151E0C51AD108AC15BD05E0F5F0
:10130000880C991CAA1CBB1C80819181AC016A8449
:101310007B844619570957FF03C0519541955109E0
:101320004617570760F4428153814219530957FF0A
:1013300003C051954195510946175707D0F08419BC
:10134000950997FF03C09195819591098617970795
:1013500078F5828193814C855D85841B950B97FF81
:1013600003C09195819591098617970708F56894B0
:1013700080F812963496C1CF58E0E516F104C0F01B
:1013800080925F0290926002A0926102B09262022B
:10139000D694C794D0925E02C0925D0230935C02F4
:1013A00020935B0210935A020093590281E001C01E
:1013B00080E02D960FB6F894DEBF0FBECDBFDF9153
:1013C000CF911F910F91FF90EF90DF90CF90BF9042
:1013D000AF909F908F907F906F905F904F903F90D5
:1013E0002F900895CF92DF92EF92FF920F931F9369
:1013F000CF93DF930E94250D6B017C018091CF017B
:101400009091D0018601081B190B0D3C20E11207B9
:1014100090F18091D3019091D4019801281B390B50
:10142000C90137FF03C0919581959109883C9105C9
:10143000F4F48091CD019091CE0101969093CE016C
:101440008093CD01029799F4C1E0D0E06091CB0187
:101450007091CC01CE010E940609811104C0219631
:10146000C730D10599F71092CE011092CD0110929C
:10147000CC011092CB018091CB019091CC018334AF
:10148000910540F01092CC011092CB011092CE0148
:101490001092CD018091CB019091CC019C012F5FE6
:1014A0003F4F3093CC012093CB01880F991FFC0153
:1014B000ED52FE4F11830083C092CF01D092D00134
:1014C000E092D101F092D201DF91CF911F910F9163
:1014D000FF90EF90DF90CF9008955058BB27AA2738
:1014E0000E94850A0C948D0B0E947F0B38F00E949D
:1014F000860B20F039F49F3F19F426F40C947C0BF2
:101500000EF4E095E7FB0C94760BE92F0E949E0BFE
:1015100058F3BA17620773078407950720F079F428
:10152000A6F50C94C00B0EF4E0950B2EBA2FA02D4F
:101530000B01B90190010C01CA01A0011124FF2780
:10154000591B99F0593F50F4503E68F11A16F0407B
:10155000A22F232F342F4427585FF3CF469537957A
:101560002795A795F0405395C9F77EF41F16BA0B3F
:10157000620B730B840BBAF09150A1F0FF0FBB1FED
:10158000661F771F881FC2F70EC0BA0F621F731F36
:10159000841F48F4879577956795B795F7959E3F93
:1015A00008F0B0CF9395880F08F09927EE0F979524
:1015B000879508950E94520B08F481E008950E94D7
:1015C000E60A6894B1110C94C10B08950E94A60B11
:1015D00088F09F5798F0B92F9927B751B0F0E1F0F4
:1015E000660F771F881F991F1AF0BA95C9F714C0A4
:1015F000B13091F00E94C00BB1E008950C94C00B83
:10160000672F782F8827B85F39F0B93FCCF38695DC
:1016100077956795B395D9F73EF490958095709539
:1016200061957F4F8F4F9F4F0895E89409C097FBB6
:101630003EF490958095709561957F4F8F4F9F4FA9
:101640009923A9F0F92F96E9BB279395F6958795ED
:1016500077956795B795F111F8CFFAF4BB0F11F4B0
:1016600060FF1BC06F5F7F4F8F4F9F4F16C0882357
:1016700011F096E911C0772321F09EE8872F762F8D
:1016800005C0662371F096E8862F70E060E02AF0CE
:101690009A95660F771F881FDAF7880F96958795BA
:1016A00097F90895990F0008550FAA0BE0E8FEEF8F
:1016B00016161706E807F907C0F012161306E40716
:1016C000F50798F0621B730B840B950B39F40A260F
:1016D00061F0232B242B252B21F408950A2609F4ED
:1016E000A140A6958FEF811D811D089597F99F67F1
:1016F00080E870E060E008959FEF80EC089500249A
:101700000A941616170618060906089500240A9466
:1017100012161306140605060895092E0394000CEC
:1017200011F4882352F0BB0F40F4BF2B11F460FF7B
:1017300004C06F5F7F4F8F4F9F4F089557FD9058A4
:10174000440F551F59F05F3F71F04795880F97FB85
:10175000991F61F09F3F79F087950895121613063F
:101760001406551FF2CF4695F1DF08C0161617066E
:101770001806991FF1CF86957105610508940895A3
:10178000E894BB2766277727CB0197F908950E9435
:10179000520B08F48FEF08950E94DF0B0C948D0B11
:1017A0000E947F0B38F00E94860B20F0952311F0E9
:1017B0000C94760B0C947C0B11240C94C10B0E949E
:1017C0009E0B70F3959FC1F3950F50E0551F629FDC
:1017D000F001729FBB27F00DB11D639FAA27F00D8A
:1017E000B11DAA1F649F6627B00DA11D661F829FB1
:1017F0002227B00DA11D621F739FB00DA11D621F96
:10180000839FA00D611D221F749F3327A00D611DB2
:10181000231F849F600D211D822F762F6A2F112494
:101820009F5750409AF0F1F088234AF0EE0FFF1FC7
:10183000BB1F661F771F881F91505040A9F79E3F1E
:10184000510580F00C94760B0C94C10B5F3FE4F3D0
:10185000983ED4F3869577956795B795F795E79574
:101860009F5FC1F7FE2B880F911D9695879597F97D
:1018700008950E94520B880B990B089508950E94B9
:101880008F0D0E943E0C0E94A700C0E0D0E00E9495
:10189000BF042097E1F30E940000F9CF0895823041
:1018A000E8F4E82FF0E0EE0FFF1FE55EFE4F7183D6
:1018B0006083813041F0809169008C7F482B409398
:1018C0006900E89A089580916900837F440F551F4D
:1018D000440F551F482B40936900E99A08958230C0
:1018E00078F4813011F0E89801C0E998E82FF0E031
:1018F000EE0FFF1FE55EFE4F8EE49CE09183808338
:1019000008951F920F920FB60F9211242F933F93B9
:101910004F935F936F937F938F939F93AF93BF93F7
:10192000EF93FF93E0911B01F0911C010995FF914A
:10193000EF91BF91AF919F918F917F916F915F9147
:101940004F913F912F910F900FBE0F901F901895C0
:101950001F920F920FB60F9211242F933F934F9324
:101960005F936F937F938F939F93AF93BF93EF9307
:10197000FF93E0911D01F0911E010995FF91EF91F8
:10198000BF91AF919F918F917F916F915F914F9197
:101990003F912F910F900FBE0F901F9018951F929F
:1019A0000F920FB60F9211242F933F938F939F9313
:1019B000AF93BF938091640290916502A0916602FB
:1019C000B09167023091630226E0230F2D3720F497
:1019D0000296A11DB11D05C029E8230F0396A11D84
:1019E000B11D209363028093640290936502A093DB
:1019F0006602B09367028091680290916902A0919B
:101A00006A02B0916B020196A11DB11D809368021C
:101A100090936902A0936A02B0936B02BF91AF9159
:101A20009F918F913F912F910F900FBE0F901F901C
:101A300018952FB7F89460916402709165028091B7
:101A40006602909167022FBF08953FB7F894809186
:101A5000680290916902A0916A02B0916B0226B56A
:101A6000A89B05C02F3F19F00196A11DB11D3FBFD6
:101A7000BA2FA92F982F8827820F911DA11DB11D64
:101A8000BC01CD0143E0660F771F881F991F4A955F
:101A9000D1F708958F929F92AF92BF92CF92DF922B
:101AA000EF92FF926B017C010E94250D4B015C01BE
:101AB000C114D104E104F10401F10E94250F0E9438
:101AC000250DDC01CB0188199909AA09BB09883EBB
:101AD0009340A105B10560F321E0C21AD108E108E5
:101AE000F10888EE880E83E0981EA11CB11CC11479
:101AF000D104E104F10419F7DBCFFF90EF90DF9000
:101B0000CF90BF90AF909F908F90089583309105B4
:101B100028F0880F991F04970197F1F7089578949A
:101B200084B5826084BD84B5816084BD85B58260E2
:101B300085BD85B5816085BDEEE6F0E08081816080
:101B40008083E1E8F0E01082808182608083808180
:101B500081608083E0E8F0E0808181608083E1EB58
:101B6000F0E0808184608083E0EBF0E08081816040
:101B70008083EAE7F0E080818460808380818260F6
:101B8000808380818E7F80838081806880831092B3
:101B9000C1000895833081F028F4813099F08230BB
:101BA000A1F008958730A9F08830B9F08430D1F4DD
:101BB000809180008F7D03C0809180008F7780931B
:101BC0008000089584B58F7702C084B58F7D84BD71
:101BD00008958091B0008F7703C08091B0008F7D11
:101BE0008093B0000895CF93DF9390E0FC01EE5412
:101BF000FF4F2491FC01EA53FF4F8491882361F148
:101C000090E0880F991FFC01E251FF4FC591D491DC
:101C1000FC01EC51FF4FA591B491611109C09FB730
:101C2000F8948881209582238883EC912E230BC021
:101C3000623061F49FB7F8948881322F3095832306
:101C40008883EC912E2B2C939FBF06C08FB7F894FE
:101C5000E8812E2B28838FBFDF91CF9108951F93AA
:101C6000CF93DF93282F30E0F901E256FF4F8491A4
:101C7000F901EE54FF4FD491F901EA53FF4FC4919B
:101C8000CC23C1F0162F81110E94CA0DEC2FF0E079
:101C9000EE0FFF1FEC51FF4FA591B4919FB7F89441
:101CA000111104C08C91D095D82302C0EC91DE2B89
:101CB000DC939FBFDF91CF911F910895FC0180813C
:101CC00091810C941910CF93DF93EC018881998155
:101CD000009711F00E941910198218821D821C822F
:101CE0001B821A82DF91CF9108950F931F93CF9398
:101CF000DF93EC018B016F5F7F4F888199810E9498
:101D0000A210009731F0998388831B830A8381E0B6
:101D100001C080E0DF91CF911F910F910895CF9383
:101D2000DF93EC0188819981892B29F08A819B813D
:101D30008617970760F4CE010E94750E882341F044
:101D40008C819D81892B19F4E881F981108281E0D1
:101D5000DF91CF910895EF92FF920F931F93CF934E
:101D6000DF93EC017B018A01BA010E948F0E811181
:101D700004C0CE010E94630E07C01D830C83B7010F
:101D8000888199810E94A111CE01DF91CF911F918D
:101D90000F91FF90EF900895FC0111821082138241
:101DA0001282158214826115710551F0FB010190B8
:101DB0000020E9F73197AF01461B570B0C94AB0E8F
:101DC0000895CF93DF93EC016115710559F0FB0184
:101DD00001900020E9F73197AF01461B570B0E9495
:101DE000AB0E02C00E94630ECE01DF91CF91089529
:101DF0000F931F93CF93DF93CDB7DEB7A2970FB6A4
:101E0000F894DEBF0FBECDBF8C01CB01BA01F80143
:101E100011821082138212821582148230E0AE0188
:101E20004F5F5F4F0E94A811BE016F5F7F4FC801D7
:101E30000E94E10EA2960FB6F894DEBF0FBECDBF92
:101E4000DF91CF911F910F9108950895AA1BBB1B9D
:101E500051E107C0AA1FBB1FA617B70710F0A61BAA
:101E6000B70B881F991F5A95A9F780959095BC01CB
:101E7000CD010895052E97FB1EF400940E94510F8A
:101E800057FD07D00E94590F07FC03D04EF40C9465
:101E9000510F50954095309521953F4F4F4F5F4FD3
:101EA000089590958095709561957F4F8F4F9F4FC6
:101EB0000895A1E21A2EAA1BBB1BFD010DC0AA1F8B
:101EC000BB1FEE1FFF1FA217B307E407F50720F0A3
:101ED000A21BB30BE40BF50B661F771F881F991F1E
:101EE0001A9469F760957095809590959B01AC0167
:101EF000BD01CF010895EE0FFF1F0590F491E02D75
:101F000009940F931F93CF93DF938230910510F4C0
:101F100082E090E0E0916E02F0916F0220E030E00C
:101F2000A0E0B0E0309719F1408151810281138126
:101F300048175907C8F08417950769F4109731F0CE
:101F400012960C93129713961C9327C000936E025F
:101F500010936F0222C02115310519F04217530763
:101F600018F49A01BD01EF01DF01F801DBCF211563
:101F70003105F9F0281B390B2430310580F48A81B2
:101F80009B816115710521F0FB019383828304C05D
:101F900090936F0280936E02FE01329644C0FE0160
:101FA000E20FF31F819391932250310939832883E3
:101FB0003AC020916C0230916D02232B41F42091A4
:101FC00002013091030130936D0220936C02209145
:101FD0000001309101012115310541F42DB73EB7C3
:101FE0004091040150910501241B350BE0916C02D6
:101FF000F0916D02E217F307A0F42E1B3F0B281798
:10200000390778F0AC014E5F5F4F2417350748F071
:102010004E0F5F1F50936D0240936C02819391931A
:1020200002C0E0E0F0E0CF01DF91CF911F910F916E
:102030000895CF93DF93009709F481C0FC01329794
:1020400013821282A0916E02B0916F02109781F4F8
:1020500020813181820F931F20916C0230916D029B
:102060002817390751F5F0936D02E0936C0267C0B1
:10207000ED0120E030E0CE17DF0740F44A815B81BC
:102080009E0141155105F1F0EA01F5CFD383C283DA
:1020900040815181840F951FC817D90759F4888151
:1020A0009981840F951F0296918380838A819B81F9
:1020B000938382832115310529F4F0936F02E09315
:1020C0006E023DC0E901FB83EA8349915991C40F37
:1020D000D51FEC17FD0761F480819181840F951F56
:1020E0000296E90199838883828193819B838A8305
:1020F000E0E0F0E012968D919C911397009719F013
:10210000FD01DC01F7CF8D919C9111979D012E5F10
:102110003F4F820F931F20916C0230916D02281760
:10212000390769F4309729F410926F0210926E0209
:1021300002C013821282B0936D02A0936C02DF91F1
:10214000CF910895A0E0B0E0E8EAF0E10C945512D8
:10215000EC01009721F4CB010E94810FB4C0FC0177
:10216000E60FF71F9C0122503109E217F30708F42C
:10217000A8C0D9010D911C91119706171707B0F04F
:102180000530110508F49BC0C8010497861797070E
:1021900008F495C002501109061B170B0193119307
:1021A0006D937C93CF010E94191089C05B01A01A26
:1021B000B10A4C01800E911EA0916E02B0916F0287
:1021C000612C712CE12CF12C109709F446C08D91F3
:1021D0009C911197A815B905B1F56C0142E0C40EA8
:1021E000D11CCA14DB0478F14C018A189B086401E5
:1021F00042E0C40ED11C1296BC9012971396AC917B
:10220000B5E0CB16D10440F0B282A38391828082E4
:10221000D9016D937C9309C00E5F1F4F800F911FF2
:10222000F90191838083EB2DFA2FE114F10431F051
:10223000D7011396FC93EE93129741C0F0936F026F
:10224000E0936E023CC06816790608F43C017D01FB
:1022500012960D90BC91A02DB7CF80916C029091F9
:102260006D0288169906E1F466167706C8F4809127
:10227000000190910101009741F48DB79EB7409104
:10228000040150910501841B950BE817F907C8F468
:10229000F0936D02E0936C02F901718360830FC0CB
:1022A000CB010E94810F7C01009759F0A801BE016B
:1022B0000E949811CE010E941910C70104C0CE01DE
:1022C00002C080E090E0CDB7DEB7EEE00C94711272
:1022D0001F93FC0199278827BC01E89411911032C3
:1022E000E9F3193010F01E30C8F31B3251F01D32E3
:1022F00049F4689406C00E94C211610F711D811DCE
:10230000911D119110531A30B0F33EF490958095C1
:10231000709561957F4F8F4F9F4F1F910895FB01DF
:10232000DC0102C005900D9241505040D8F708954D
:10233000FB01DC0102C001900D9241505040D8F7E2
:102340000895FB01DC0101900D920020E1F7089552
:102350002532310520F4223010F00C94B311FA012B
:102360001082CA010895BB272A3051F4992342F400
:10237000BDE290958095709561957F4F8F4F9F4FEF
:102380000C94D811592F482F372F262F660F771FFF
:10239000881F991F660F771F881F991F620F731F71
:1023A000841F951F660F771F881F991F0895BB27ED
:1023B000FA01A62F6217710581059105330B30FBD9
:1023C00066F0AA27660F771F881F991FAA1FA217FA
:1023D00010F0A21B63953850A9F7A05DAA3308F04E
:1023E000A95DA19336F7B111B1931082CA010C9483
:1023F000F911DC01FC01672F71917723E1F7329726
:1024000004C07C916D9370836291AE17BF07C8F3CF
:102410000895DC01CB01FC01F999FECF06C0F2BDA5
:10242000E1BDF89A319600B40D9241505040B8F792
:102430000895F999FECF92BD81BDF89A992780B58C
:102440000895DC01A40FB51F4150504048F0CB0166
:10245000840F951F2E910E94321241505040D0F7A8
:102460000895262FF999FECF92BD81BDF89A019764
:1024700000B4021639F01FBA20BD0FB6F894FA9ACC
:10248000F99A0FBE0895262FF999FECF1FBA92BD73
:1024900081BD20BD0FB6F894FA9AF99A0FBE019645
:1024A00008952F923F924F925F926F927F928F92F8
:1024B0009F92AF92BF92CF92DF92EF92FF920F93D3
:1024C0001F93CF93DF93CDB7DEB7CA1BDB0B0FB6DD
:1024D000F894DEBF0FBECDBF09942A88398848889A
:1024E0005F846E847D848C849B84AA84B984C88430
:1024F000DF80EE80FD800C811B81AA81B981CE0F27
:10250000D11D0FB6F894DEBF0FBECDBFED0108950B
:04251000F894FFCF6D
:102514000000700220000100010000C07F0000C024
:102524007F0000C07F0000C07F3C004E0C4E0C5367
:1025340074617274206F66207468652070726F67AE
:1025440072616D0039393939303100446174615434
:102554006F53656E6400446174615479706500530F
:10256400756D00313130303030003133303430303B
:10257400004661696C656420746F20726561642033
:1025840066726F6D204448542073656E736F7221B8
:1025940000566F6C746167653A2000313530303015
:0825A4003000536C6565700006
:00000001FF
