:100000000C947D000C94210C0C94480C0C94A500CD
:100010000C94A5000C94A5000C945F070C94A5000B
:100020000C94A5000C94A5000C94A5000C94A500BC
:100030000C94A5000C94A5000C94A5000C94A500AC
:100040000C946F0C0C94A5000C94A5000C94A500C6
:100050000C94A5000C94A5000C94A5000C94A5008C
:100060000C94A5000C94A5005E01011F010303017F
:10007000008A02010A010202010064001E47040B0B
:100080000906007C0101060103030100F401060ECC
:100090000102020100C20117010102020101000078
:1000A0000008000201000003040700000000000037
:1000B0000000010204081020408001020408102002
:1000C00001020408102004040404040404040202CD
:1000D00002020202030303030303000000002300E3
:1000E0002600290000000000250028002B00000049
:1000F0000000240027002A00F80411241FBECFEFBF
:10010000D8E0DEBFCDBF11E0A0E0B1E0E4E5F4E26D
:1001100002C005900D92A039B107D9F722E0A0E9FD
:10012000B1E001C01D92A736B207E1F710E0CDE7BC
:10013000D0E004C02197FE010E941B0FCC37D107ED
:10014000C9F70E94DF0B0C9428120C9400001F9337
:10015000CF93DF9300D000D000D0CDB7DEB710E052
:1001600060E0812F0E94930D60E0812F0E94CF0DEF
:100170001F5F1431A9F760E084E00E94930D60E0F6
:1001800087E00E94930D61E089E00E94930D61E099
:1001900089E00E94CF0D68EC70E080E090E00E9462
:1001A000EA0C60E089E00E94CF0D60E089E00E94E7
:1001B000930D88E592E09093B1018093B00166E1E0
:1001C00071E0CE0101960E946C0ECE0101960E9454
:1001D000FE0D8CE08093900126960FB6F894DEBF5A
:1001E0000FBECDBFDF91CF911F9108950F931F9345
:1001F000CF93DF9397FD0796EC0183E0D595C795E4
:100200008A95E1F700E010E00C171D0754F420E098
:1002100040E069E081EC91E00E9415070F5F1F4FFD
:10022000F3CFDF91CF911F910F91089580E090E07F
:100230000E94B9119FEF980F9E3F40F081E080939C
:10024000060161E080E090E00C94E3118150909110
:100250009001899F802D11248F5F8093060108955E
:10026000CF93DF93CDB7DEB72C970FB6F894DEBFF0
:100270000FBECDBF0E9416014CE050E066E071E079
:10028000CE0101960E94A91180910701882381F077
:100290001A8219821C861B8680E090E0A0ECBFE7E2
:1002A0008B839C83AD83BE838F839887A987BA870E
:1002B0008CE0FE013196A1E9B1E001900D928A95A2
:1002C000E1F72C960FB6F894DEBF0FBECDBFDF91DD
:1002D000CF910895CF93882349F080919B0190910D
:1002E0009C01019690939C0180939B0180919101C8
:1002F0009091920101969093920180939101409187
:10030000900150E06091060170E081E991E00E9467
:10031000C111809191019091920180339547A8F08D
:1003200080E090E00E94B911C82F682F70E06F5FE5
:100330007F4F80E090E00E94D11180919001C89F92
:10034000C02D1124CF5FC0930601CF910895CF92A5
:10035000DF92EF92FF92CF93DF9364EF71E080E042
:1003600090E00E94EA0CC5E0D0E060E08EE991E008
:100370000E94D10660930C0170930D0180930E01D1
:1003800090930F0140E060E08EE991E00E947406D6
:100390006B017C01609308017093090180930A014D
:1003A00090930B0160910C0170910D0180910E01F1
:1003B00090910F019B01AC010E94D90B811108C0E3
:1003C000A7019601C701B6010E94D90B882341F00D
:1003D00064E378E080E090E00E94EA0C219729F63F
:1003E000DF91CF91FF90EF90DF90CF9008954F92E3
:1003F0005F926F927F928F929F92AF92BF92CF92B5
:10040000DF92EF92FF92CF93DF9300D000D000D025
:10041000CDB7DEB76B017C0149015A018BE291E057
:100420000E9408112B013C0162E371E0CE010196AC
:100430000E946C0ECE0101960E94FE0D2AE0B701CB
:10044000A601CE0101960E94980ECE0101960E944F
:10045000FE0D6DE371E0CE0101960E946C0ECE019F
:1004600001960E94FE0D2AE0B501A401CE0101967D
:100470000E94980ECE0101960E94FE0D4C145D0460
:100480006E047F0421F0C80CD91CEA1CFB1C66E436
:1004900071E0CE0101960E946C0ECE0101960E9481
:1004A000FE0D2AE0B701A601CE0101960E94980E2A
:1004B000CE0101960E94FE0D28E130E0B701A601B1
:1004C00082EB91E00E941D0826960FB6F894DEBFDD
:1004D0000FBECDBFDF91CF91FF90EF90DF90CF9017
:1004E000BF90AF909F908F907F906F905F904F9054
:1004F00008954F925F926F927F928F929F92AF92E8
:10050000BF92CF92DF92EF92FF92CF93DF93CDB75E
:10051000DEB72A970FB6F894DEBF0FBECDBF0E949C
:10052000A701C0900C01D0900D01E0900E01F09059
:100530000F01A7019601C701B6010E94D90B8111D5
:1005400036C08091080190910901A0910A01B091F3
:100550000B018F839887A987BA879C01AD01BC01E5
:10056000CD010E94D90B811122C0809097019090FB
:100570009801A0909901B0909A01A5019401C5013C
:10058000B4010E94D90B811131C040909301509069
:1005900094016090950170909601A3019201C301AE
:1005A000B2010E94D90B882309F482C01FC068E5FC
:1005B00071E0CE0101960E946C0ECE0101960E9460
:1005C000FE0D8AE491E00E9408116B017C018BE230
:1005D00091E00E940811A70196010E94F7018CE3A7
:1005E00090E09093B1018093B0012BC18AE491E037
:1005F0000E9408114B015C0120E030E040E251E430
:10060000C701B6010E946C0B0E947F0A072E000CE6
:10061000880B990BA50194010E94F70181E591E0F7
:100620000E9408116B017C0120E030E040E251E4BF
:10063000609108017091090180910A0190910B016C
:100640000E946C0B0E947F0A072E000C880B990BEE
:10065000A70196010E94F70188E592E09093B1010D
:100660008093B00110929D0180910C0190910D0139
:10067000A0910E01B0910F01809397019093980182
:10068000A0939901B0939A0180910801909109017A
:10069000A0910A01B0910B01809393019093940172
:1006A000A0939501B093960180E00E946A01C9C0B1
:1006B0002F81388549855A85C301B2010E940D0AF0
:1006C0002B013C0120E030E0A9010E94670B1816C5
:1006D0005CF420E030E040E251E4C301B2010E944A
:1006E000670B18165CF054C020E030E040E251EC9B
:1006F000C301B2010E947A0A87FF4AC0A70196018E
:10070000C501B4010E940D0A4B015C0120E030E0FC
:10071000A9010E94670B18165CF420E030E040E26B
:1007200051E4C501B4010E94670B18165CF030C09B
:1007300020E030E040E251ECC501B4010E947A0AA9
:1007400087FF26C080919D01823050F48F5F809397
:100750009D018CE390E09093B1018093B00171C052
:1007600010929D01C0929701D0929801E092990158
:10077000F0929A018F819885A985BA85809393011B
:1007800090939401A0939501B093960181E015C0D8
:10079000C0929701D0929801E0929901F0929A014B
:1007A0008F819885A985BA85809393019093940150
:1007B000A0939501B093960180E00E946A018AE4BB
:1007C00091E00E9408116B017C0120E030E040E2E2
:1007D00051E460910C0170910D0180910E01909196
:1007E0000F010E946C0B0E947F0A072E000C880BE1
:1007F000990BA70196010E94F70181E591E00E9403
:1008000008116B017C0120E030E040E251E460918E
:1008100008017091090180910A0190910B010E94D9
:100820006C0B0E947F0A072E000C880B990BA70106
:1008300096010E94F70188E592E09093B1018093C0
:10084000B0012A960FB6F894DEBF0FBECDBFDF9180
:10085000CF91FF90EF90DF90CF90BF90AF909F909F
:100860008F907F906F905F904F9008958EE480936B
:100870007C006AE070E080E090E00E94EA0C8091E9
:100880007A00806480937A0080917A0086FDFCCFA4
:10089000809178002091790030E0322F2227A90141
:1008A000330F660B770B9A01AB01282B60E070E3E6
:1008B00081E190E00E94DA0ECA01B9010895CF9259
:1008C000DF92EF92FF92CF93DF9300D000D000D061
:1008D000CDB7DEB761E087E00E94930D61E087E06D
:1008E0000E94CF0D66E070E082EB91E00E94B907B4
:1008F0006FE070E082EB91E00E94B50768E771E07D
:10090000CE0101960E946C0ECE0101960E94FE0D52
:100910000E943604AB01BC012AE0CE0101960E9480
:10092000980ECE0101960E94FE0D82E891E00E9491
:1009300008116B017C010E943604A70196010E94F8
:10094000F7010E94300161E084E00E94930D61E0B4
:1009500084E00E94CF0D8EE991E00E94240564E6B8
:1009600070E080E090E00E94EA0C0E94790260E072
:1009700084E00E94CF0D60E083E00E94930D60E070
:1009800083E00E94CF0D60E084E00E94930D82EB33
:1009900091E00E94C00760E087E00E94930D60E054
:1009A00087E00E94CF0D60E086E00E94930D60E03A
:1009B00086E00E94CF0D69E871E0CE0101960E94A9
:1009C0006C0ECE0101960E94FE0D8091B0019091B7
:1009D000B1010E94F60026960FB6F894DEBF0FBE56
:1009E000CDBFDF91CF91FF90EF90DF90CF90089532
:1009F00082EB91E00E948E0726E046E163E08EE9FB
:100A000091E00C940305DC0115966C9315971696EE
:100A10004C93169770E0FB01EE54FF4FE49117964C
:100A2000EC931797FB01EA53FF4F649118966C9370
:100A3000189740E45FE160E070E01D964D935D9390
:100A40006D937C9350970895CF93DF93EC0162E010
:100A50008D810E94930D80E398EFAFEFBFEF898700
:100A60009A87AB87BC87DF91CF9108958F929F9231
:100A7000AF92BF92CF92DF92EF92FF92CF93DC01C1
:100A80001796CC911797662311F09C2F01C090E028
:100A900018962C91189730E0220F331F26523F4FA3
:100AA00040E050E0BA01F901E590F490F70180814F
:100AB0008C2398131AC04A015B01FFEF8F1A9F0A1B
:100AC000AF0ABF0A1D96CD90DD90ED90FC90509737
:100AD0004C155D056E057F0518F4B501A401E3CF43
:100AE00030E020E080E090E003C0342F252FCB01E0
:100AF000632F722FCF91FF90EF90DF90CF90BF9038
:100B0000AF909F908F9008958F929F92AF92BF92D7
:100B1000CF92DF92EF92FF920F931F93CF93DF93C9
:100B2000CDB7DEB7C054D1400FB6F894DEBF0FBECC
:100B3000CDBF8C01F62E0E94B90CF11016C0F80141
:100B4000C184D284E384F4849B01AC012C193D0957
:100B50004E095F0969017A0130EDC31637E0D3060B
:100B6000E104F10410F48189ABC0F8016187728758
:100B7000838794871482138212821182108261E02B
:100B800085810E94CF0D6AEF70E080E090E00E94C6
:100B9000EA0C61E0F80185810E94930D60E0F801A4
:100BA00085810E94CF0D64E170E080E090E00E94BA
:100BB000EA0CF89462E0F80185810E94930D82E3CB
:100BC00090E00E94260D60E0C8010E943605672B68
:100BD000682B692B21F4F801118A789442C061E0F6
:100BE000C8010E943605672B682B692BA1F39E0173
:100BF0002F5F3F4F79015E013FEBA31A3EEFB30A2F
:100C0000670160E0C8010E943605F60160837183C8
:100C10008283938361E0C8010E943605F6016483F4
:100C2000758386839783F8E0CF0ED11CCA14DB044A
:100C300041F7789420E030E0F70180809180A28035
:100C4000B380448155816681778181149104A10428
:100C5000B10429F0411551056105710521F4F80130
:100C6000118A80E02DC0F90183E0F595E7958A951A
:100C7000E1F7E00FF11F8081880F84169506A60624
:100C8000B70608F4816080832F5F3F4FF8E0EF0ED6
:100C9000F11C2832310581F6F801248130E04081D1
:100CA000818190E0840F911D4281840F911D4381C9
:100CB000840F911D99272817390789F681E0818BC8
:100CC000C05CDE4F0FB6F894DEBF0FBECDBFDF9124
:100CD000CF911F910F91FF90EF90DF90CF90BF9039
:100CE000AF909F908F900895CF92DF92EF92FF92F6
:100CF0000F931F93CF93DF93EC01162F642F0E9465
:100D00008405882309F440C08E818B3029F0E0F1FE
:100D10008551823040F038C06A8170E080E090E018
:100D20000E94B50A22C00A81602F6F7770E080E0D0
:100D300090E00E94B70A20E030E040E853E40E94CF
:100D40006C0B6B017C016B8170E080E090E00E9495
:100D5000B70AA70196010E940E0A2DEC3CEC4CEC60
:100D60005DE30E946C0B07FD9058112389F026E685
:100D700036E646EE5FE30E946C0B20E030E040E098
:100D800052E40E940E0A04C060E070E080EC9FE72D
:100D9000DF91CF911F910F91FF90EF90DF90CF9057
:100DA0000895CF92DF92EF92FF92CF93DF93EC0101
:100DB00060E00E948405882369F18E818B3019F1EF
:100DC00048F18551823030F5688170E080E090E034
:100DD0000E94B50A20E030E040E853E40E946C0B2A
:100DE0006B017C01698170E080E090E00E94B70AAD
:100DF000A70196010E940E0A2DEC3CEC4CEC5DE341
:100E00000E946C0B0BC0688170E080E090E00E9453
:100E1000B50A04C060E070E080EC9FE7DF91CF91FD
:100E2000FF90EF90DF90CF900895411105C0EAE761
:100E3000F0E080818F7780836A30A9F063FD02C083
:100E400088E001C088E26770682B88E10FB6F894EB
:100E5000A895809360000FBE60936000E0E6F0E02C
:100E6000808180648083211114C083B7817F846076
:100E700083BFF89483B7816083BF85B7806685BFE1
:100E80008F7D85BF7894889583B78E7F83BF789454
:100E90000EC083B7817F846083BFF89483B781607D
:100EA00083BF7894889583B78E7F83BF78944111F0
:100EB00005C0EAE7F0E080818068808308951F9292
:100EC0000F920FB60F9211248F930FB6F894A89536
:100ED00080916000886180936000109260000FBE76
:100EE0008F910F900FBE0F901F9018959B0121506E
:100EF00031092630310510F061E070E06150710970
:100F000049E0469F9001479F300D1124B90168596F
:100F10007F4F49E050E006960C942F110F931F93DA
:100F2000CF93DF93EC010FEF1FEF1B830A838AE05F
:100F300090E09D838C8361E070E0CE010E94760793
:100F4000198308838CE390E0909311018093100142
:100F500010925602109257021092580210925902A3
:100F6000DF91CF911F910F910895FC0175836483E8
:100F70000895FC01862F6283738361E00C94930DC6
:100F80002FEF3FEFFC01338322830895FF920F93ED
:100F90001F93CF93DF93EC01F62E072F8E858823C6
:100FA00019F060E011E002C061E010E08A810E9467
:100FB000CF0D8E819F819C01F29EC001F39E900D0A
:100FC00011240E94260D612F8A810E94CF0D8E81EF
:100FD0009F819C01029FC001039F900D1124DF910E
:100FE000CF911F910F91FF900C94260DFC018081F1
:100FF00091818F3FFFEF9F0791F010925602109260
:1010000057021092580210925902109255021092F3
:10101000540241E050E062E979E00C94EF0B08954E
:10102000CF93DF93EC0188810E940F0C8FEF9FEF2D
:1010300099838883DF91CF9108952F923F924F92A9
:101040005F926F927F928F929F92AF92BF92CF9258
:10105000DF92EF92FF920F931F93CF93DF93DC0108
:101060001296ED91FC911397319609F45CC0190129
:101070006A017B01EC01488059808FEF48165806C1
:1010800019F0CE010E941008612C712C812C912C3A
:10109000540183948C819D81681679064CF58101F9
:1010A0000150110917FD1BC0D501C401002E04C059
:1010B000880F991FAA1FBB1F0A94D2F78C219D216C
:1010C000AE21BF21892B8A2B8B2B19F06C857D8556
:1010D00002C06A857B85CE010E94C607E1CF688584
:1010E0007985CE010E94C607AFEF6A1A7A0AD2CF7D
:1010F000BFEF4B165B06B9F059824882CE01DF91F3
:10110000CF911F910F91FF90EF90DF90CF90BF9004
:10111000AF909F908F907F906F905F904F903F9097
:101120002F900C94F607DF91CF911F910F91FF90B4
:10113000EF90DF90CF90BF90AF909F908F907F9077
:101140006F905F904F903F902F9008952F923F9215
:101150004F925F926F927F928F929F92AF92BF92C7
:10116000CF92DF92EF92FF920F931F93CF93DF9373
:10117000CDB7DEB72D970FB6F894DEBF0FBECDBF4B
:101180008C017B01019729E0289FB001299F700DF8
:10119000112468597F4F49E050E0CE0101960E942A
:1011A0002F118B816C81681708F4682F70E0809193
:1011B000CA019091CB010E94C60E9B014091100183
:1011C00050911101649FC001659F900D749F900D17
:1011D000112464E670E00E94C60E8985811103C067
:1011E000A1E0B0E002C0A2E0B0E08D81829F3001BA
:1011F000839F700C11247B866A868E81829F1001EA
:10120000839F300C11248F81829F2001839F500C7B
:1012100011248885829FA001839F500D11245D8732
:101220004C87FD01EE0FFF1FE653FE4F812C912CE2
:101230005401670151E0C51AD108AC15BD05E0F5B0
:10124000880C991CAA1CBB1C80819181AC016A840A
:101250007B844619570957FF03C0519541955109A1
:101260004617570760F4428153814219530957FFCB
:1012700003C051954195510946175707D0F084197D
:10128000950997FF03C09195819591098617970756
:1012900078F5828193814C855D85841B950B97FF42
:1012A00003C09195819591098617970708F5689471
:1012B00080F812963496C1CF58E0E516F104C0F0DC
:1012C0008092560290925702A0925802B092590210
:1012D000D694C794D0925502C092540230935302D0
:1012E00020935202109351020093500281E001C0FA
:1012F00080E02D960FB6F894DEBF0FBECDBFDF9114
:10130000CF911F910F91FF90EF90DF90CF90BF9002
:10131000AF909F908F907F906F905F904F903F9095
:101320002F900895CF92DF92EF92FF920F931F9329
:10133000CF93DF930E94C50C6B017C018091C601A5
:101340009091C7018601081B190B0D3C20E1120783
:1013500090F18091CA019091CB019801281B390B23
:10136000C90137FF03C0919581959109883C91058A
:10137000F4F48091C4019091C50101969093C50148
:101380008093C401029799F4C1E0D0E06091C2015A
:101390007091C301CE010E94A608811104C021965C
:1013A000C730D10599F71092C5011092C40110926F
:1013B000C3011092C2018091C2019091C301833494
:1013C000910540F01092C3011092C2011092C50124
:1013D0001092C4018091C2019091C3019C012F5FC2
:1013E0003F4F3093C3012093C201880F991FFC0126
:1013F000E653FE4F11830083C092C601D092C7010D
:10140000E092C801F092C901DF91CF911F910F9135
:10141000FF90EF90DF90CF9008955058BB27AA27F8
:101420000E94250A0C942D0B0E941F0B38F00E947D
:10143000260B20F039F49F3F19F426F40C941C0B72
:101440000EF4E095E7FB0C94160BE92F0E943E0B7F
:1014500058F3BA17620773078407950720F079F4E9
:10146000A6F50C94600B0EF4E0950B2EBA2FA02D70
:101470000B01B90190010C01CA01A0011124FF2741
:10148000591B99F0593F50F4503E68F11A16F0403C
:10149000A22F232F342F4427585FF3CF469537953B
:1014A0002795A795F0405395C9F77EF41F16BA0B00
:1014B000620B730B840BBAF09150A1F0FF0FBB1FAE
:1014C000661F771F881FC2F70EC0BA0F621F731FF7
:1014D000841F48F4879577956795B795F7959E3F54
:1014E00008F0B0CF9395880F08F09927EE0F9795E5
:1014F000879508950E94F20A08F481E008950E94F9
:10150000860A6894B1110C94610B08950E94460BF1
:1015100088F09F5798F0B92F9927B751B0F0E1F0B4
:10152000660F771F881F991F1AF0BA95C9F714C064
:10153000B13091F00E94600BB1E008950C94600B03
:10154000672F782F8827B85F39F0B93FCCF386959D
:1015500077956795B395D9F73EF4909580957095FA
:1015600061957F4F8F4F9F4F0895E89409C097FB77
:101570003EF490958095709561957F4F8F4F9F4F6A
:101580009923A9F0F92F96E9BB279395F6958795AE
:1015900077956795B795F111F8CFFAF4BB0F11F471
:1015A00060FF1BC06F5F7F4F8F4F9F4F16C0882318
:1015B00011F096E911C0772321F09EE8872F762F4E
:1015C00005C0662371F096E8862F70E060E02AF08F
:1015D0009A95660F771F881FDAF7880F969587957B
:1015E00097F90895990F0008550FAA0BE0E8FEEF50
:1015F00016161706E807F907C0F012161306E407D7
:10160000F50798F0621B730B840B950B39F40A26CF
:1016100061F0232B242B252B21F408950A2609F4AD
:10162000A140A6958FEF811D811D089597F99F67B1
:1016300080E870E060E008959FEF80EC089500245A
:101640000A941616170618060906089500240A9427
:1016500012161306140605060895092E0394000CAD
:1016600011F4882352F0BB0F40F4BF2B11F460FF3C
:1016700004C06F5F7F4F8F4F9F4F089557FD905865
:10168000440F551F59F05F3F71F04795880F97FB46
:10169000991F61F09F3F79F0879508951216130600
:1016A0001406551FF2CF4695F1DF08C0161617062F
:1016B0001806991FF1CF8695710561050894089564
:1016C000E894BB2766277727CB0197F908950E94F6
:1016D000F20A08F48FEF08950E947F0B0C942D0BF3
:1016E0000E941F0B38F00E94260B20F0952311F06A
:1016F0000C94160B0C941C0B11240C94610B0E947F
:101700003E0B70F3959FC1F3950F50E0551F629FFC
:10171000F001729FBB27F00DB11D639FAA27F00D4A
:10172000B11DAA1F649F6627B00DA11D661F829F71
:101730002227B00DA11D621F739FB00DA11D621F56
:10174000839FA00D611D221F749F3327A00D611D73
:10175000231F849F600D211D822F762F6A2F112455
:101760009F5750409AF0F1F088234AF0EE0FFF1F88
:10177000BB1F661F771F881F91505040A9F79E3FDF
:10178000510580F00C94160B0C94610B5F3FE4F351
:10179000983ED4F3869577956795B795F795E79535
:1017A0009F5FC1F7FE2B880F911D9695879597F93E
:1017B00008950E94F20A880B990B089508950E94DB
:1017C0002F0D0E94DE0B0E94A700C0E0D0E00E9417
:1017D0005F042097E1F30E940000F9CF0895823062
:1017E000E8F4E82FF0E0EE0FFF1FEE5EFE4F71838E
:1017F0006083813041F0809169008C7F482B409359
:101800006900E89A089580916900837F440F551F0D
:10181000440F551F482B40936900E99A0895823080
:1018200078F4813011F0E89801C0E998E82FF0E0F1
:10183000EE0FFF1FEE5EFE4F8EEE9BE091838083E6
:1018400008951F920F920FB60F9211242F933F937A
:101850004F935F936F937F938F939F93AF93BF93B8
:10186000EF93FF93E0911201F09113010995FF911D
:10187000EF91BF91AF919F918F917F916F915F9108
:101880004F913F912F910F900FBE0F901F90189581
:101890001F920F920FB60F9211242F933F934F93E5
:1018A0005F936F937F938F939F93AF93BF93EF93C8
:1018B000FF93E0911401F09115010995FF91EF91CB
:1018C000BF91AF919F918F917F916F915F914F9158
:1018D0003F912F910F900FBE0F901F9018951F9260
:1018E0000F920FB60F9211242F933F938F939F93D4
:1018F000AF93BF9380915B0290915C02A0915D02D7
:10190000B0915E0230915A0226E0230F2D3720F469
:101910000296A11DB11D05C029E8230F0396A11D44
:10192000B11D20935A0280935B0290935C02A093B6
:101930005D02B0935E0280915F0290916002A0917F
:101940006102B09162020196A11DB11D80935F02F8
:1019500090936002A0936102B0936202BF91AF9135
:101960009F918F913F912F910F900FBE0F901F90DD
:1019700018952FB7F89460915B0270915C0280918A
:101980005D0290915E022FBF08953FB7F894809159
:101990005F0290916002A0916102B091620226B54F
:1019A000A89B05C02F3F19F00196A11DB11D3FBF97
:1019B000BA2FA92F982F8827820F911DA11DB11D25
:1019C000BC01CD0143E0660F771F881F991F4A9520
:1019D000D1F708958F929F92AF92BF92CF92DF92EC
:1019E000EF92FF926B017C010E94C50C4B015C01E0
:1019F000C114D104E104F10401F10E94C50E0E945A
:101A0000C50CDC01CB0188199909AA09BB09883EDC
:101A10009340A105B10560F321E0C21AD108E108A5
:101A2000F10888EE880E83E0981EA11CB11CC11439
:101A3000D104E104F10419F7DBCFFF90EF90DF90C0
:101A4000CF90BF90AF909F908F9008958330910575
:101A500028F0880F991F04970197F1F7089578945B
:101A600084B5826084BD84B5816084BD85B58260A3
:101A700085BD85B5816085BDEEE6F0E08081816041
:101A80008083E1E8F0E01082808182608083808141
:101A900081608083E0E8F0E0808181608083E1EB19
:101AA000F0E0808184608083E0EBF0E08081816001
:101AB0008083EAE7F0E080818460808380818260B7
:101AC000808380818E7F8083808180688083109274
:101AD000C1000895833081F028F4813099F082307C
:101AE000A1F008958730A9F08830B9F08430D1F49E
:101AF000809180008F7D03C0809180008F778093DC
:101B00008000089584B58F7702C084B58F7D84BD31
:101B100008958091B0008F7703C08091B0008F7DD1
:101B20008093B0000895CF93DF9390E0FC01EE54D2
:101B3000FF4F2491FC01EA53FF4F8491882361F108
:101B400090E0880F991FFC01E251FF4FC591D4919D
:101B5000FC01EC51FF4FA591B491611109C09FB7F1
:101B6000F8948881209582238883EC912E230BC0E2
:101B7000623061F49FB7F8948881322F30958323C7
:101B80008883EC912E2B2C939FBF06C08FB7F894BF
:101B9000E8812E2B28838FBFDF91CF9108951F936B
:101BA000CF93DF93282F30E0F901E256FF4F849165
:101BB000F901EE54FF4FD491F901EA53FF4FC4915C
:101BC000CC23C1F0162F81110E946A0DEC2FF0E09A
:101BD000EE0FFF1FEC51FF4FA591B4919FB7F89402
:101BE000111104C08C91D095D82302C0EC91DE2B4A
:101BF000DC939FBFDF91CF911F910895FC018081FD
:101C000091810C94B90FCF93DF93EC018881998176
:101C1000009711F00E94B90F198218821D821C8250
:101C20001B821A82DF91CF9108950F931F93CF9358
:101C3000DF93EC018B016F5F7F4F888199810E9458
:101C40004210009731F0998388831B830A8381E0D7
:101C500001C080E0DF91CF911F910F910895CF9344
:101C6000DF93EC0188819981892B29F08A819B81FE
:101C70008617970760F4CE010E94150E882341F065
:101C80008C819D81892B19F4E881F981108281E092
:101C9000DF91CF910895EF92FF920F931F93CF930F
:101CA000DF93EC017B018A01BA010E942F0E8111A2
:101CB00004C0CE010E94030E07C01D830C83B70130
:101CC000888199810E944111CE01DF91CF911F91AE
:101CD0000F91FF90EF900895FC0111821082138202
:101CE0001282158214826115710551F0FB01019079
:101CF0000020E9F73197AF01461B570B0C944B0EB0
:101D00000895CF93DF93EC016115710559F0FB0144
:101D100001900020E9F73197AF01461B570B0E9455
:101D20004B0E02C00E94030ECE01DF91CF910895A9
:101D30000F931F93CF93DF93CDB7DEB7A2970FB664
:101D4000F894DEBF0FBECDBF8C01CB01BA01F80104
:101D500011821082138212821582148230E0AE0149
:101D60004F5F5F4F0E944811BE016F5F7F4FC801F8
:101D70000E94810EA2960FB6F894DEBF0FBECDBFB3
:101D8000DF91CF911F910F9108950895AA1BBB1B5E
:101D900051E107C0AA1FBB1FA617B70710F0A61B6B
:101DA000B70B881F991F5A95A9F780959095BC018C
:101DB000CD010895052E97FB1EF400940E94F10EAC
:101DC00057FD07D00E94F90E07FC03D04EF40C9487
:101DD000F10E50954095309521953F4F4F4F5F4FF5
:101DE000089590958095709561957F4F8F4F9F4F87
:101DF0000895A1E21A2EAA1BBB1BFD010DC0AA1F4C
:101E0000BB1FEE1FFF1FA217B307E407F50720F063
:101E1000A21BB30BE40BF50B661F771F881F991FDE
:101E20001A9469F760957095809590959B01AC0127
:101E3000BD01CF010895EE0FFF1F0590F491E02D35
:101E400009940F931F93CF93DF938230910510F481
:101E500082E090E0E0916502F091660220E030E0DF
:101E6000A0E0B0E0309719F14081518102811381E7
:101E700048175907C8F08417950769F4109731F08F
:101E800012960C93129713961C9327C00093650229
:101E90001093660222C02115310519F0421753072D
:101EA00018F49A01BD01EF01DF01F801DBCF211524
:101EB0003105F9F0281B390B2430310580F48A8173
:101EC0009B816115710521F0FB019383828304C01E
:101ED0009093660280936502FE01329644C0FE0133
:101EE000E20FF31F819391932250310939832883A4
:101EF0003AC02091630230916402232B41F4209177
:101F00000201309103013093640220936302209117
:101F10000001309101012115310541F42DB73EB783
:101F20004091040150910501241B350BE09163029F
:101F3000F0916402E217F307A0F42E1B3F0B281761
:101F4000390778F0AC014E5F5F4F2417350748F032
:101F50004E0F5F1F509364024093630281939193ED
:101F600002C0E0E0F0E0CF01DF91CF911F910F912F
:101F70000895CF93DF93009709F481C0FC01329755
:101F800013821282A0916502B0916602109781F4CB
:101F900020813181820F931F20916302309164026E
:101FA0002817390751F5F0936402E093630267C084
:101FB000ED0120E030E0CE17DF0740F44A815B817D
:101FC0009E0141155105F1F0EA01F5CFD383C2839B
:101FD00040815181840F951FC817D90759F4888112
:101FE0009981840F951F0296918380838A819B81BA
:101FF000938382832115310529F4F0936602E093DF
:1020000065023DC0E901FB83EA8349915991C40F00
:10201000D51FEC17FD0761F480819181840F951F16
:102020000296E90199838883828193819B838A83C5
:10203000E0E0F0E012968D919C911397009719F0D3
:10204000FD01DC01F7CF8D919C9111979D012E5FD1
:102050003F4F820F931F2091630230916402281733
:10206000390769F4309729F41092660210926502DC
:1020700002C013821282B0936402A0936302DF91C4
:10208000CF910895A0E0B0E0E8E4F0E10C94F51100
:10209000EC01009721F4CB010E94210FB4C0FC0198
:1020A000E60FF71F9C0122503109E217F30708F4ED
:1020B000A8C0D9010D911C91119706171707B0F010
:1020C0000530110508F49BC0C801049786179707CF
:1020D00008F495C002501109061B170B01931193C8
:1020E0006D937C93CF010E94B90F89C05B01A01A48
:1020F000B10A4C01800E911EA0916502B09166025A
:10210000612C712CE12CF12C109709F446C08D91B3
:102110009C911197A815B905B1F56C0142E0C40E68
:10212000D11CCA14DB0478F14C018A189B086401A5
:1021300042E0C40ED11C1296BC9012971396AC913B
:10214000B5E0CB16D10440F0B282A38391828082A5
:10215000D9016D937C9309C00E5F1F4F800F911FB3
:10216000F90191838083EB2DFA2FE114F10431F012
:10217000D7011396FC93EE93129741C0F093660239
:10218000E09365023CC06816790608F43C017D01C5
:1021900012960D90BC91A02DB7CF809163029091C3
:1021A000640288169906E1F466167706C8F48091F1
:1021B000000190910101009741F48DB79EB74091C5
:1021C000040150910501841B950BE817F907C8F429
:1021D000F0936402E0936302F901718360830FC09E
:1021E000CB010E94210F7C01009759F0A801BE018C
:1021F0000E943811CE010E94B90FC70104C0CE0160
:1022000002C080E090E0CDB7DEB7EEE00C94111292
:102210001F93FC0199278827BC01E8941191103283
:10222000E9F3193010F01E30C8F31B3251F01D32A3
:1022300049F4689406C00E946211610F711D811DEE
:10224000911D119110531A30B0F33EF49095809582
:10225000709561957F4F8F4F9F4F1F910895FB01A0
:10226000DC0102C005900D9241505040D8F708950E
:10227000FB01DC0102C001900D9241505040D8F7A3
:102280000895FB01DC0101900D920020E1F7089513
:102290002532310520F4223010F00C945311FA014C
:1022A0001082CA010895BB272A3051F4992342F4C1
:1022B000BDE290958095709561957F4F8F4F9F4FB0
:1022C0000C947811592F482F372F262F660F771F20
:1022D000881F991F660F771F881F991F620F731F32
:1022E000841F951F660F771F881F991F0895BB27AE
:1022F000FA01A62F6217710581059105330B30FB9A
:1023000066F0AA27660F771F881F991FAA1FA217BA
:1023100010F0A21B63953850A9F7A05DAA3308F00E
:10232000A95DA19336F7B111B1931082CA010C9443
:102330009911DC01FC01672F71917723E1F7329746
:1023400004C07C916D9370836291AE17BF07C8F390
:102350000895DC01CB01FC01F999FECF06C0F2BD66
:10236000E1BDF89A319600B40D9241505040B8F753
:102370000895F999FECF92BD81BDF89A992780B54D
:102380000895DC01A40FB51F4150504048F0CB0127
:10239000840F951F2E910E94D21141505040D0F7CA
:1023A0000895262FF999FECF92BD81BDF89A019725
:1023B00000B4021639F01FBA20BD0FB6F894FA9A8D
:1023C000F99A0FBE0895262FF999FECF1FBA92BD34
:1023D00081BD20BD0FB6F894FA9AF99A0FBE019606
:1023E00008952F923F924F925F926F927F928F92B9
:1023F0009F92AF92BF92CF92DF92EF92FF920F9394
:102400001F93CF93DF93CDB7DEB7CA1BDB0B0FB69D
:10241000F894DEBF0FBECDBF09942A88398848885A
:102420005F846E847D848C849B84AA84B984C884F0
:10243000DF80EE80FD800C811B81AA81B981CE0FE7
:10244000D11D0FB6F894DEBF0FBECDBFED010895CC
:04245000F894FFCF2E
:1024540000006702200001010000C07F0000C07F6F
:102464003C00EE0BEE0B5374617274206F662074A3
:1024740068652070726F6772616D0039393939305F
:10248400310044617461546F53656E640044617437
:1024940061547970650053756D00313130303030DE
:1024A40000313330343030004661696C6564207427
:1024B4006F20726561642066726F6D2044485420F9
:1024C40073656E736F722100566F6C746167653A41
:1024D400200031353030303000536C6565700000B9
:00000001FF
