:100000000C947D000C94ED0B0C94140C0C94A50036
:100010000C94A5000C94A5000C9430070C94A5003A
:100020000C94A5000C94A5000C94A5000C94A500BC
:100030000C94A5000C94A5000C94A5000C94A500AC
:100040000C943B0C0C94A5000C94A5000C94A500FA
:100050000C94A5000C94A5000C94A5000C94A5008C
:100060000C94A5000C94A5005E01011F010303017F
:10007000008A02010A010202010064001E47040B0B
:100080000906007C0101060103030100F401060ECC
:100090000102020100C20117010102020101000078
:1000A0000008000201000003040700000000000037
:1000B0000000010204081020408001020408102002
:1000C00001020408102004040404040404040202CD
:1000D00002020202030303030303000000002300E3
:1000E0002600290000000000250028002B00000049
:1000F0000000240027002A004A0511241FBECFEF6C
:10010000D8E0DEBFCDBF11E0A0E0B1E0E2E5F4E26F
:1001100002C005900D92A639B107D9F722E0A6E9F1
:10012000B1E001C01D92A837B207E1F710E0CDE7BA
:10013000D0E004C02197FE010E94100FCC37D107F8
:10014000C9F70E94AB0B0C9427120C940000CF93BC
:10015000C0E060E08C2F0E945F0D60E08C2F0E9459
:100160009B0DCF5FC431A9F7CF91089561E089E07D
:100170000E945F0D61E089E00E949B0D68EC70E0D9
:1001800080E090E00E94B60C60E089E00E949B0D48
:1001900060E089E00C945F0DCF93C82F61E00E946E
:1001A0005F0D61E08C2FCF910C949B0DCF93DF936B
:1001B000D82FC62F60E00E945F0D60E08D2F0E9457
:1001C0009B0D60E08C2F0E945F0D60E08C2FDF9113
:1001D000CF910C949B0DCF93DF9300D000D000D033
:1001E000CDB7DEB70E94A70060E084E00E945F0DFB
:1001F00060E087E00E945F0D0E94B60088E592E013
:100200009093C2018093C10166E171E0CE01019635
:100210000E94610ECE0101960E94F30D8CE0809346
:10022000960126960FB6F894DEBF0FBECDBFDF91C4
:10023000CF9108950F931F93CF93DF9397FD079668
:10024000EC0183E0D595C7958A95E1F700E010E0D1
:100250000C171D0754F420E040E069E082ED91E0C6
:100260000E94E6060F5F1F4FF3CFDF91CF911F91E2
:100270000F91089580E090E00E94AE1181508E3F72
:1002800050F081E0809306018093070161E080E0F7
:1002900090E00C94E21190919601899F802D112499
:1002A0008F5F80930601109207010895CF93DF932B
:1002B000CDB7DEB72C970FB6F894DEBF0FBECDBF1B
:1002C0000E943A016091060170E04CE050E0CE01DE
:1002D00001960E949E1180910701882381F01A8265
:1002E00019821C861B8680E090E0A0ECBFE78B8320
:1002F0009C83AD83BE838F839887A987BA878CE060
:10030000FE013196A7E9B1E001900D928A95E1F7DF
:100310002C960FB6F894DEBF0FBECDBFDF91CF9104
:1003200008951F93CF93DF93CDB7DEB72C970FB609
:10033000F894DEBF0FBECDBF882349F08091A101A4
:100340009091A20101969093A2018093A1018091C6
:10035000970190919801019690939801809397014D
:100360004091960150E06091060170E087E991E0CC
:100370000E94B61180919701909198018033954722
:1003800068F180E090E00E94AE11182F682F70E0B5
:100390006F5F7F4F80E090E00E94C6114091960110
:1003A000149F602D112411E0160F109306011A827C
:1003B00019821C861B8680E090E0A0ECBFE78B834F
:1003C0009C83AD83BE838F839887A987BA8750E0CB
:1003D000612F70E0CE0101960E94D8112C960FB6C5
:1003E000F894DEBF0FBECDBFDF91CF911F9108956E
:1003F0008F929F92AF92BF92CF92DF92EF92FF9235
:100400000F931F93CF93DF9364EF71E080E090E050
:100410000E94B60CC1E0D0E084EA91E00E94C206DE
:100420008C01892B01F58091A4019091A501A091E7
:10043000A601B091A70180930C0190930D01A093A8
:100440000E01B0930F018091A8019091A901A09194
:10045000AA01B091AB018093080190930901A09388
:100460000A01B0930B0180900C0190900D01A090B7
:100470000E01B0900F01A5019401C501B4010E94C5
:10048000A50B811126C0C0900801D0900901E09011
:100490000A01F0900B01A7019601C701B6010E9465
:1004A000A50B811116C0012BA1F420E030E048EC2F
:1004B00052E4C501B4010E94330B181654F020E039
:1004C00030E040EA52E4C701B6010E94330B18162F
:1004D0005CF464E378E080E090E00E94B60C219642
:1004E000C630D10509F098CFDF91CF911F910F91C0
:1004F000FF90EF90DF90CF90BF90AF909F908F9044
:1005000008954F925F926F927F928F929F92AF92D7
:10051000BF92CF92DF92EF92FF92CF93DF9300D002
:1005200000D000D0CDB7DEB76B017C0149015A0184
:100530008BE291E00E94FD102B013C0162E371E02F
:10054000CE0101960E94610ECE0101960E94F30D2C
:100550002AE0B701A601CE0101960E948D0ECE01C0
:1005600001960E94F30D6DE371E0CE0101960E94A9
:10057000610ECE0101960E94F30D2AE0B501A4019F
:10058000CE0101960E948D0ECE0101960E94F30DC0
:10059000C414D504E604F70424F4C80CD91CEA1CDE
:1005A000FB1C66E471E0CE0101960E94610ECE0153
:1005B00001960E94F30D2AE0B701A601CE01019633
:1005C0000E948D0ECE0101960E94F30D28E130E0CD
:1005D000B701A60183EC91E00E94EE0726960FB6C4
:1005E000F894DEBF0FBECDBFDF91CF91FF90EF90AB
:1005F000DF90CF90BF90AF909F908F907F906F9043
:100600005F904F9008954F925F926F927F928F927A
:100610009F92AF92BF92CF92DF92EF92FF92CF93D1
:10062000DF93CDB7DEB72C970FB6F894DEBF0FBEC1
:10063000CDBF0E94F801C0900C01D0900D01E09058
:100640000E01F0900F01A7019601C701B6010E94AB
:10065000A50B811135C08091080190910901A091ED
:100660000A01B0910B0189879A87AB87BC879C01EF
:10067000AD01BC01CD010E94A50B811121C080906C
:100680009D0190909E01A0909F01B090A001A501B6
:100690009401C501B4010E94A50B81116CC040906A
:1006A000990150909A0160909B0170909C01A30168
:1006B0009201C301B2010E94A50B882321F15BC006
:1006C0006FE571E0CE0101960E94610ECE010196A8
:1006D0000E94F30D8091A301882389F08AE491E0C0
:1006E0000E94FD106B017C0181E591E00E94FD10EC
:1006F000A70196010E9481021092A30135C081E0FA
:100700008093A30131C0C301B2010E944B0A2B01A7
:100710003C0169857A858B859C850E944B0A461A27
:10072000570A58864F82C501B4010E944B0A4B01FB
:100730005C01C701B6010E944B0A861A970A9A8289
:1007400089828F8198850B970CF477C089819A8173
:100750000B970CF472C08091A3018111CAC081E093
:100760008093A3010E9491018CE390E09093C201D9
:100770008093C101D6C08AE491E00E94FD104B0134
:100780005C0120E030E040E251E4C701B6010E9484
:10079000380B0E944B0A072E000C880B990BA50101
:1007A00094010E94810288E591E00E94FD106B0196
:1007B0007C0120E030E040E251E46091080170915A
:1007C000090180910A0190910B010E94380B0E944F
:1007D0004B0A072E000C880B990BA70196010E946B
:1007E000810288E592E09093C2018093C10110924A
:1007F000A30180910C0190910D01A0910E01B09187
:100800000F0180939D0190939E01A0939F01B0934F
:10081000A0018091080190910901A0910A01B09175
:100820000B018093990190939A01A0939B01B0933F
:100830009C0180E00E94910174C01092A301C092BB
:100840009D01D0929E01E0929F01F092A0018985C6
:100850009A85AB85BC858093990190939A01A0936A
:100860009B01B0939C0180E00E9491018AE491E099
:100870000E94FD106B017C0120E030E040E251E479
:1008800060910C0170910D0180910E0190910F010A
:100890000E94380B0E944B0A072E000C880B990B04
:1008A000A70196010E94810288E591E00E94FD1057
:1008B0006B017C0120E030E040E251E460910801EE
:1008C0007091090180910A0190910B010E94380BEF
:1008D0000E944B0A072E000C880B990BA70196016A
:1008E0000E94810288E592E09093C2018093C10149
:1008F00018C01092A301C0929D01D0929E01E09277
:100900009F01F092A00189859A85AB85BC85809373
:10091000990190939A01A0939B01B0939C0181E06F
:10092000A3CF2C960FB6F894DEBF0FBECDBFDF91DC
:10093000CF91FF90EF90DF90CF90BF90AF909F90BE
:100940008F907F906F905F904F90089584E090E03B
:100950000E94CC0064E670E080E090E00E94B60C5B
:100960000E94030363E070E084E090E00C94D60002
:100970008EE480937C006AE070E080E090E00E946A
:10098000B60C80917A00806480937A0080917A001E
:1009900086FDFCCF809178002091790030E0322FE5
:1009A0002227A901330F660B770B9A01AB01282B85
:1009B00060E070E381E190E00E94CF0ECA01B901CE
:1009C0000895CF92DF92EF92FF92CF93DF9300D002
:1009D00000D000D0CDB7DEB787E090E00E94CC0019
:1009E00066E070E083EC91E00E948A076FE070E0BF
:1009F00083EC91E00E9486076FE771E0CE010196DB
:100A00000E94610ECE0101960E94F30D0E94B8046F
:100A1000AB01BC012AE0CE0101960E948D0ECE01F1
:100A200001960E94F30D89E891E00E94FD106B0190
:100A30007C010E94B804A70196010E9481020E94D5
:100A400056010E94A60483EC91E00E94910766E0A3
:100A500070E087E090E00E94D60060E971E0CE018E
:100A600001960E94610ECE0101960E94F30D8091C5
:100A7000C1019091C2010E941A0126960FB6F89406
:100A8000DEBF0FBECDBFDF91CF91FF90EF90DF9023
:100A9000CF90089583EC91E00E945F0763E084EAC1
:100AA00091E00C945305FC0111861286138614867E
:100AB000158616861786108A118A128A138A148A56
:100AC000158A168A178A608708958F929F92AF922F
:100AD000BF92CF92DF92FF920F931F93CF93DF933A
:100AE000EC01188E198E1A8E1B8E1C8E61E0888583
:100AF0000E945F0D60E088850E949B0D698570E013
:100B000080E090E00E94B60C60E088850E945F0D56
:100B100088E290E00E94F20C08EC10E088850E94C8
:100B2000CA0D892B31F401501109C1F78EEF9FEFE7
:100B300046C008EC10E088850E94CA0D019721F498
:100B400001501109C1F7F2CF08E2F12C10E898EC3E
:100B5000C92ED12C88850E94CA0D892B29F481E0E9
:100B6000C81AD108B9F7E2CF0E94910C4B015C0181
:100B700088ECC82ED12C88850E94CA0D019729F4D3
:100B800081E0C81AD108B9F7D1CF0E94910CDC01DD
:100B9000CB0188199909AA09BB098997A105B10553
:100BA00030F0FE01EF0DF11D808D812B808F1695A9
:100BB00011F4F39410E8015051F680E090E0DF91D9
:100BC000CF911F910F91FF90DF90CF90BF90AF908A
:100BD0009F908F9008958F929F92AF92BF92EF92C5
:100BE000FF920F931F93CF93DF93EC010E94850C2C
:100BF0006B8B7C8B8D8B9E8B8F89882309F0F8946F
:100C0000CE010E9465052F89222309F07894009770
:100C100069F040E050EC69E774EC488359836A83DB
:100C20007B834C835D836E837F83A1C08A85F88C30
:100C3000098DEA8C1B8D863151F56F2D70E0762F72
:100C40006627600F711D072E000C880B990B0E9400
:100C5000830A2DEC3CEC4CEC5DE30E94380B68837E
:100C600079838A839B836E2D6F7770E0762F66275A
:100C7000610F711D072E000C880B990B0E94830ACF
:100C80002DEC3CEC4CEC5DE30E94380B38C0602F3F
:100C900070E080E090E00E94830A2DEC3CEC4CEC8C
:100CA0005DE30E94380B4B015C016F2D70E080E02A
:100CB00090E00E94830A9B01AC01C501B4010E942F
:100CC000DF09688379838A839B83612F70E080E0EA
:100CD00090E00E94830A2DEC3CEC4CEC5DE30E941A
:100CE000380B4B015C016E2D70E080E090E00E94BB
:100CF000830A9B01AC01C501B4010E94DF096C832A
:100D00007D838E839F83E7FE09C08C819D81AE81A8
:100D1000BF81B0588C839D83AE83BF832B853C8578
:100D20004D855E85688179818A819B810E94DF097A
:100D3000688379838A839B832F85388949895A8977
:100D40006C817D818E819F810E94DF096C837D8310
:100D50008E839F83FE0C0F0D100F81E090E02C8D91
:100D6000121302C080E090E0919581959109DF9186
:100D7000CF911F910F91FF90EF90BF90AF909F90F8
:100D80008F900895CF93DF93FC012285222321F0D9
:100D9000DF91CF910C94EB05EC0186E1828781E035
:100DA0008187CF010E94EB05892B59F08BE08A8760
:100DB00082E18987CE010E94EB05009711F01A8627
:100DC00002C080E090E0DF91CF910895411105C00D
:100DD000EAE7F0E080818F7780836A30A9F063FDD5
:100DE00002C088E001C088E26770682B88E10FB616
:100DF000F894A895809360000FBE60936000E0E6D1
:100E0000F0E0808180648083211114C083B7817FEA
:100E1000846083BFF89483B7816083BF85B78066A1
:100E200085BF8F7D85BF7894889583B78E7F83BF7C
:100E300078940EC083B7817F846083BFF89483B7B2
:100E4000816083BF7894889583B78E7F83BF7894C1
:100E5000411105C0EAE7F0E0808180688083089551
:100E60001F920F920FB60F9211248F930FB6F89422
:100E7000A895809160008861809360001092600066
:100E80000FBE8F910F900FBE0F901F9018959B0172
:100E9000215031092630310510F061E070E06150D9
:100EA000710949E0469F9001479F300D1124B90117
:100EB00068597F4F49E050E006960C9424110F9337
:100EC0001F93CF93DF93EC010FEF1FEF1B830A8378
:100ED0008AE090E09D838C8361E070E0CE010E9407
:100EE0004707198308838CE390E090931101809366
:100EF000100110926702109268021092690210921B
:100F00006A02DF91CF911F910F910895FC017583C3
:100F100064830895FC01862F6283738361E00C94DF
:100F20005F0D2FEF3FEFFC01338322830895FF9283
:100F30000F931F93CF93DF93EC01F62E072F8E852F
:100F4000882319F060E011E002C061E010E08A81BE
:100F50000E949B0D8E819F819C01F29EC001F39E99
:100F6000900D11240E94F20C612F8A810E949B0D2A
:100F70008E819F819C01029FC001039F900D1124CF
:100F8000DF91CF911F910F91FF900C94F20CFC0117
:100F9000808191818F3FFFEF9F0791F01092670250
:100FA000109268021092690210926A021092660210
:100FB0001092650241E050E063E679E00C94BB0BCF
:100FC0000895CF93DF93EC0188810E94DB0B8FEFB4
:100FD0009FEF99838883DF91CF9108952F923F925D
:100FE0004F925F926F927F928F929F92AF92BF9239
:100FF000CF92DF92EF92FF920F931F93CF93DF93E5
:10100000DC011296ED91FC911397319609F45CC0C6
:1010100019016A017B01EC01488059808FEF481665
:10102000580619F0CE010E94E107612C712C812C29
:10103000912C540183948C819D81681679064CF51E
:1010400081010150110917FD1BC0D501C401002EFB
:1010500004C0880F991FAA1FBB1F0A94D2F78C21C6
:101060009D21AE21BF21892B8A2B8B2B19F06C85FA
:101070007D8502C06A857B85CE010E949707E1CFFE
:1010800068857985CE010E949707AFEF6A1A7A0AC0
:10109000D2CFBFEF4B165B06B9F059824882CE0122
:1010A000DF91CF911F910F91FF90EF90DF90CF9044
:1010B000BF90AF909F908F907F906F905F904F9078
:1010C0003F902F900C94C707DF91CF911F910F9104
:1010D000FF90EF90DF90CF90BF90AF909F908F9058
:1010E0007F906F905F904F903F902F9008952F9238
:1010F0003F924F925F926F927F928F929F92AF92A8
:10110000BF92CF92DF92EF92FF920F931F93CF93F4
:10111000DF93CDB7DEB72D970FB6F894DEBF0FBEC5
:10112000CDBF8C017B01019729E0289FB001299F49
:10113000700D112468597F4F49E050E0CE010196AF
:101140000E9424118B816C81681708F4682F70E06D
:101150008091DB019091DC010E94BB0E9B014091CC
:10116000100150911101649FC001659F900D749F03
:10117000900D112464E670E00E94BB0E89858111F8
:1011800003C0A1E0B0E002C0A2E0B0E08D81829F88
:101190003001839F700C11247B866A868E81829F2A
:1011A0001001839F300C11248F81829F2001839F27
:1011B000500C11248885829FA001839F500D11241B
:1011C0005D874C87FD01EE0FFF1FE552FE4F812C1E
:1011D000912C5401670151E0C51AD108AC15BD0529
:1011E000E0F5880C991CAA1CBB1C80819181AC0184
:1011F0006A847B844619570957FF03C0519541956E
:1012000051094617570760F4428153814219530927
:1012100057FF03C051954195510946175707D0F024
:101220008419950997FF03C09195819591098617B7
:10123000970778F5828193814C855D85841B950B9A
:1012400097FF03C09195819591098617970708F537
:10125000689480F812963496C1CF58E0E516F104F0
:10126000C0F08092670290926802A0926902B092E8
:101270006A02D694C794D0926602C09265023093F7
:10128000640220936302109362020093610281E082
:1012900001C080E02D960FB6F894DEBF0FBECDBF23
:1012A000DF91CF911F910F91FF90EF90DF90CF9042
:1012B000BF90AF909F908F907F906F905F904F9076
:1012C0003F902F900895CF92DF92EF92FF920F936D
:1012D0001F93CF93DF930E94910C6B017C0180914F
:1012E000D7019091D8018601081B190B0D3C20E114
:1012F000120790F18091DB019091DC019801281B8D
:10130000390BC90137FF03C0919581959109883C3C
:101310009105F4F48091D5019091D60101969093B6
:10132000D6018093D501029799F4C1E0D0E0609195
:10133000D3017091D401CE010E947708811104C0BD
:101340002196C730D10599F71092D6011092D50198
:101350001092D4011092D3018091D3019091D401C5
:101360008334910540F01092D4011092D301109271
:10137000D6011092D5018091D3019091D4019C01A6
:101380002F5F3F4F3093D4012093D301880F991FD3
:10139000FC01E552FE4F11830083C092D701D09229
:1013A000D801E092D901F092DA01DF91CF911F913B
:1013B0000F91FF90EF90DF90CF9008955058BB278A
:1013C000AA270E94F6090C94F90A0E94EB0A38F049
:1013D0000E94F20A20F039F49F3F19F426F40C948D
:1013E000E80A0EF4E095E7FB0C94E20AE92F0E946C
:1013F0000A0B58F3BA17620773078407950720F0A2
:1014000079F4A6F50C942C0B0EF4E0950B2EBA2F64
:10141000A02D0B01B90190010C01CA01A0011124FA
:10142000FF27591B99F0593F50F4503E68F11A16A6
:10143000F040A22F232F342F4427585FF3CF469537
:1014400037952795A795F0405395C9F77EF41F1659
:10145000BA0B620B730B840BBAF09150A1F0FF0F23
:10146000BB1F661F771F881FC2F70EC0BA0F621F0F
:10147000731F841F48F4879577956795B795F795FF
:101480009E3F08F0B0CF9395880F08F09927EE0F94
:101490009795879508950E94520A6894B1110C940B
:1014A0002D0B08950E94120B88F09F5798F0B92FCA
:1014B0009927B751B0F0E1F0660F771F881F991F89
:1014C0001AF0BA95C9F714C0B13091F00E942C0BF4
:1014D000B1E008950C942C0B672F782F8827B85F04
:1014E00039F0B93FCCF3869577956795B395D9F7E1
:1014F0003EF490958095709561957F4F8F4F9F4FEB
:101500000895E89409C097FB3EF4909580957095F6
:1015100061957F4F8F4F9F4F9923A9F0F92F96E93F
:10152000BB279395F695879577956795B795F111B4
:10153000F8CFFAF4BB0F11F460FF1BC06F5F7F4F51
:101540008F4F9F4F16C0882311F096E911C0772363
:1015500021F09EE8872F762F05C0662371F096E86C
:10156000862F70E060E02AF09A95660F771F881F3B
:10157000DAF7880F9695879597F90895990F0008DF
:10158000550FAA0BE0E8FEEF16161706E807F90755
:10159000C0F012161306E407F50798F0621B730BF0
:1015A000840B950B39F40A2661F0232B242B252B71
:1015B00021F408950A2609F4A140A6958FEF811D14
:1015C000811D089597F99F6780E870E060E00895B5
:1015D0009FEF80EC089500240A941616170618064B
:1015E0000906089500240A94121613061406050627
:1015F0000895092E0394000C11F4882352F0BB0FB8
:1016000040F4BF2B11F460FF04C06F5F7F4F8F4F1A
:101610009F4F089557FD9058440F551F59F05F3F55
:1016200071F04795880F97FB991F61F09F3F79F004
:1016300087950895121613061406551FF2CF469586
:10164000F1DF08C0161617061806991FF1CF869508
:101650007105610508940895E894BB2766277727EC
:10166000CB0197F908950E94BE0A08F48FEF089500
:101670000E944B0B0C94F90A0E94EB0A38F00E946E
:10168000F20A20F0952311F00C94E20A0C94E80A77
:1016900011240C942D0B0E940A0B70F3959FC1F33B
:1016A000950F50E0551F629FF001729FBB27F00D10
:1016B000B11D639FAA27F00DB11DAA1F649F662765
:1016C000B00DA11D661F829F2227B00DA11D621FB4
:1016D000739FB00DA11D621F839FA00D611D221F6E
:1016E000749F3327A00D611D231F849F600D211D52
:1016F000822F762F6A2F11249F5750409AF0F1F0D5
:1017000088234AF0EE0FFF1FBB1F661F771F881F3D
:1017100091505040A9F79E3F510580F00C94E20A89
:101720000C942D0B5F3FE4F3983ED4F386957795A8
:101730006795B795F795E7959F5FC1F7FE2B880FE3
:10174000911D9695879597F908950E94BE0A880B7A
:10175000990B089508950E94FB0C0E94AA0B0E9409
:10176000EB00C0E0D0E00E94E1042097E1F30E948A
:101770000000F9CF08958230E8F4E82FF0E0EE0F92
:10178000FF1FEE5EFE4F71836083813041F08091D8
:1017900069008C7F482B40936900E89A08958091F6
:1017A0006900837F440F551F440F551F482B4093FA
:1017B0006900E99A0895823078F4813011F0E89850
:1017C00001C0E998E82FF0E0EE0FFF1FEE5EFE4F3C
:1017D0008AEB9BE09183808308951F920F920FB64E
:1017E0000F9211242F933F934F935F936F937F93A7
:1017F0008F939F93AF93BF93EF93FF93E091120169
:10180000F09113010995FF91EF91BF91AF919F91D5
:101810008F917F916F915F914F913F912F910F9099
:101820000FBE0F901F9018951F920F920FB60F9238
:1018300011242F933F934F935F936F937F938F93D5
:101840009F93AF93BF93EF93FF93E0911401F091B7
:1018500015010995FF91EF91BF91AF919F918F91E4
:101860007F916F915F914F913F912F910F900FBE9C
:101870000F901F9018951F920F920FB60F92112480
:101880002F933F938F939F93AF93BF9380916C025D
:1018900090916D02A0916E02B0916F0230916B0237
:1018A00026E0230F2D3720F40296A11DB11D05C09F
:1018B00029E8230F0396A11DB11D20936B0280938D
:1018C0006C0290936D02A0936E02B0936F028091B0
:1018D000700290917102A0917202B0917302019610
:1018E000A11DB11D8093700290937102A0937202AA
:1018F000B0937302BF91AF919F918F913F912F91C0
:101900000F900FBE0F901F9018952FB7F89460910D
:101910006C0270916D0280916E0290916F022FBFE8
:1019200008953FB7F8948091700290917102A09150
:101930007202B091730226B5A89B05C02F3F19F023
:101940000196A11DB11D3FBFBA2FA92F982F88273F
:10195000820F911DA11DB11DBC01CD0143E0660F99
:10196000771F881F991F4A95D1F708958F929F92EC
:10197000AF92BF92CF92DF92EF92FF926B017C0108
:101980000E94910C4B015C01C114D104E104F104EB
:1019900001F10E94BA0E0E94910CDC01CB01881962
:1019A0009909AA09BB09883E9340A105B10560F3D6
:1019B00021E0C21AD108E108F10888EE880E83E020
:1019C000981EA11CB11CC114D104E104F10419F743
:1019D000DBCFFF90EF90DF90CF90BF90AF909F90C4
:1019E0008F9008958330910528F0880F991F0497F0
:1019F0000197F1F70895789484B5826084BD84B529
:101A0000816084BD85B5826085BD85B5816085BDF9
:101A1000EEE6F0E0808181608083E1E8F0E0108212
:101A2000808182608083808181608083E0E8F0E053
:101A3000808181608083E1EBF0E08081846080833D
:101A4000E0EBF0E0808181608083EAE7F0E0808174
:101A50008460808380818260808380818E7F8083A8
:101A60008081806880831092C1000895833081F066
:101A700028F4813099F08230A1F008958730A9F0E0
:101A80008830B9F08430D1F4809180008F7D03C01C
:101A9000809180008F7780938000089584B58F7740
:101AA00002C084B58F7D84BD08958091B0008F778A
:101AB00003C08091B0008F7D8093B0000895CF93D4
:101AC000DF9390E0FC01EE54FF4F2491FC01EA53B8
:101AD000FF4F8491882361F190E0880F991FFC01EA
:101AE000E251FF4FC591D491FC01EC51FF4FA591FC
:101AF000B491611109C09FB7F89488812095822321
:101B00008883EC912E230BC0623061F49FB7F89468
:101B10008881322F309583238883EC912E2B2C9350
:101B20009FBF06C08FB7F894E8812E2B28838FBF04
:101B3000DF91CF9108951F93CF93DF93282F30E04B
:101B4000F901E256FF4F8491F901EE54FF4FD49111
:101B5000F901EA53FF4FC491CC23C1F0162F811134
:101B60000E94360DEC2FF0E0EE0FFF1FEC51FF4FFF
:101B7000A591B4919FB7F894111104C08C91D095A0
:101B8000D82302C0EC91DE2BDC939FBFDF91CF9175
:101B90001F910895CF93DF93282F30E0F901E2568B
:101BA000FF4F8491F901EE54FF4FD491F901EA53AC
:101BB000FF4FC491CC2391F081110E94360DEC2F80
:101BC000F0E0EE0FFF1FE652FF4FA591B491EC91AC
:101BD000ED2381E090E021F480E002C080E090E01D
:101BE000DF91CF910895FC01808191810C94AE0F1B
:101BF000CF93DF93EC0188819981009711F00E94C7
:101C0000AE0F198218821D821C821B821A82DF91FC
:101C1000CF9108950F931F93CF93DF93EC018B0126
:101C20006F5F7F4F888199810E943710009731F054
:101C3000998388831B830A8381E001C080E0DF9160
:101C4000CF911F910F910895CF93DF93EC0188817D
:101C50009981892B29F08A819B818617970760F4E7
:101C6000CE010E940A0E882341F08C819D81892B30
:101C700019F4E881F981108281E0DF91CF91089514
:101C8000EF92FF920F931F93CF93DF93EC017B01B1
:101C90008A01BA010E94240E811104C0CE010E9463
:101CA000F80D07C01D830C83B701888199810E94BC
:101CB0003611CE01DF91CF911F910F91FF90EF90E0
:101CC0000895FC01118210821382128215821482FF
:101CD0006115710551F0FB0101900020E9F7319782
:101CE000AF01461B570B0C94400E0895CF93DF9322
:101CF000EC016115710559F0FB0101900020E9F735
:101D00003197AF01461B570B0E94400E02C00E9444
:101D1000F80DCE01DF91CF9108950F931F93CF93CC
:101D2000DF93CDB7DEB7A2970FB6F894DEBF0FBE34
:101D3000CDBF8C01CB01BA01F80111821082138250
:101D400012821582148230E0AE014F5F5F4F0E9415
:101D50003D11BE016F5F7F4FC8010E94760EA296B3
:101D60000FB6F894DEBF0FBECDBFDF91CF911F91AC
:101D70000F9108950895AA1BBB1B51E107C0AA1F2C
:101D8000BB1FA617B70710F0A61BB70B881F991F1C
:101D90005A95A9F780959095BC01CD010895052E1F
:101DA00097FB1EF400940E94E60E57FD07D00E9498
:101DB000EE0E07FC03D04EF40C94E60E50954095C1
:101DC000309521953F4F4F4F5F4F089590958095E7
:101DD000709561957F4F8F4F9F4F0895A1E21A2E06
:101DE000AA1BBB1BFD010DC0AA1FBB1FEE1FFF1FBF
:101DF000A217B307E407F50720F0A21BB30BE40B0F
:101E0000F50B661F771F881F991F1A9469F7609555
:101E10007095809590959B01AC01BD01CF0108950F
:101E2000EE0FFF1F0590F491E02D09940F931F937F
:101E3000CF93DF938230910510F482E090E0E0913F
:101E40007602F091770220E030E0A0E0B0E0309739
:101E500019F1408151810281138148175907C8F057
:101E60008417950769F4109731F012960C93129726
:101E700013961C9327C0009376021093770222C01A
:101E80002115310519F04217530718F49A01BD01C5
:101E9000EF01DF01F801DBCF21153105F9F0281B37
:101EA000390B2430310580F48A819B8161157105DD
:101EB00021F0FB019383828304C090937702809387
:101EC0007602FE01329644C0FE01E20FF31F8193B9
:101ED000919322503109398328833AC020917402AA
:101EE00030917502232B41F42091020130910301BE
:101EF000309375022093740220910001309101010A
:101F00002115310541F42DB73EB7409104015091A0
:101F10000501241B350BE0917402F0917502E21764
:101F2000F307A0F42E1B3F0B2817390778F0AC01FC
:101F30004E5F5F4F2417350748F04E0F5F1F5093D9
:101F40007502409374028193919302C0E0E0F0E047
:101F5000CF01DF91CF911F910F910895CF93DF9320
:101F6000009709F481C0FC01329713821282A0917C
:101F70007602B0917702109781F420813181820F2F
:101F8000931F20917402309175022817390751F57B
:101F9000F0937502E093740267C0ED0120E030E039
:101FA000CE17DF0740F44A815B819E014115510540
:101FB000F1F0EA01F5CFD383C28340815181840FD0
:101FC000951FC817D90759F488819981840F951FE7
:101FD0000296918380838A819B81938382832115DA
:101FE000310529F4F0937702E09376023DC0E901D0
:101FF000FB83EA8349915991C40FD51FEC17FD0764
:1020000061F480819181840F951F0296E901998383
:102010008883828193819B838A83E0E0F0E012963B
:102020008D919C911397009719F0FD01DC01F7CF7A
:102030008D919C9111979D012E5F3F4F820F931FB1
:1020400020917402309175022817390769F430978E
:1020500029F4109277021092760202C01382128243
:10206000B0937502A0937402DF91CF910895A0E020
:10207000B0E0EDE3F0E10C94F411EC01009721F4F1
:10208000CB010E94160FB4C0FC01E60FF71F9C01A4
:1020900022503109E217F30708F4A8C0D9010D91C5
:1020A0001C91119706171707B0F00530110508F4B9
:1020B0009BC0C80104978617970708F495C0025083
:1020C0001109061B170B019311936D937C93CF019C
:1020D0000E94AE0F89C05B01A01AB10A4C01800EAC
:1020E000911EA0917602B0917702612C712CE12CA7
:1020F000F12C109709F446C08D919C911197A81569
:10210000B905B1F56C0142E0C40ED11CCA14DB0460
:1021100078F14C018A189B08640142E0C40ED11C7E
:102120001296BC9012971396AC91B5E0CB16D104E1
:1021300040F0B282A38391828082D9016D937C9317
:1021400009C00E5F1F4F800F911FF901918380839B
:10215000EB2DFA2FE114F10431F0D7011396FC9323
:10216000EE93129741C0F0937702E09376023CC061
:102170006816790608F43C017D0112960D90BC9119
:10218000A02DB7CF809174029091750288169906A0
:10219000E1F466167706C8F4809100019091010180
:1021A000009741F48DB79EB740910401509105010D
:1021B000841B950BE817F907C8F4F0937502E093B8
:1021C0007402F901718360830FC0CB010E94160F66
:1021D0007C01009759F0A801BE010E942D11CE018B
:1021E0000E94AE0FC70104C0CE0102C080E090E0A3
:1021F000CDB7DEB7EEE00C9410121F93FC019927C7
:102200008827BC01E89411911032E9F3193010F0DD
:102210001E30C8F31B3251F01D3249F4689406C0D9
:102220000E945711610F711D811D911D1191105355
:102230001A30B0F33EF490958095709561957F4F7C
:102240008F4F9F4F1F910895FB01DC0102C0059045
:102250000D9241505040D8F70895FB01DC0102C0B7
:1022600001900D9241505040D8F70895FB01DC01D8
:1022700001900D920020E1F708952532310520F4F8
:10228000223010F00C944811FA011082CA0108950E
:10229000BB272A3051F4992342F4BDE290958095F2
:1022A000709561957F4F8F4F9F4F0C946D11592FF3
:1022B000482F372F262F660F771F881F991F660F0D
:1022C000771F881F991F620F731F841F951F660F4A
:1022D000771F881F991F0895BB27FA01A62F621741
:1022E000710581059105330B30FB66F0AA27660F57
:1022F000771F881F991FAA1FA21710F0A21B6395B2
:102300003850A9F7A05DAA3308F0A95DA19336F76C
:10231000B111B1931082CA010C948E11DC01FC0141
:10232000672F71917723E1F7329704C07C916D9309
:1023300070836291AE17BF07C8F30895DC01CB012B
:10234000FC01F999FECF06C0F2BDE1BDF89A3196C5
:1023500000B40D9241505040B8F70895F999FECF5E
:1023600092BD81BDF89A992780B50895DC01A40F2C
:10237000B51F4150504048F0CB01840F951F2E915E
:102380000E94C71141505040D0F70895262FF99967
:10239000FECF92BD81BDF89A019700B4021639F0C4
:1023A0001FBA20BD0FB6F894FA9AF99A0FBE089595
:1023B000DC01CB0103C02D910E94E311415050403C
:1023C000D0F70895262FF999FECF1FBA92BD81BD8F
:1023D00020BD0FB6F894FA9AF99A0FBE01960895A7
:1023E0002F923F924F925F926F927F928F929F9225
:1023F000AF92BF92CF92DF92EF92FF920F931F9313
:10240000CF93DF93CDB7DEB7CA1BDB0B0FB6F894C3
:10241000DEBF0FBECDBF09942A88398848885F8403
:102420006E847D848C849B84AA84B984C884DF8074
:10243000EE80FD800C811B81AA81B981CE0FD11D58
:102440000FB6F894DEBF0FBECDBFED010895F8942E
:02245000FFCFBC
:1024520000007802200001010000C07F0000C07F60
:102462003C00BA0BBA0B5374617274206F6620740D
:1024720068652070726F6772616D00393939393061
:10248200300044617461546F53656E64004461743A
:1024920061547970650053756D00323130303030DF
:1024A2000039393939313100323330343030004675
:1024B20061696C656420746F207265616420667264
:1024C2006F6D204448542073656E736F72210056FD
:1024D2006F6C746167653A200032353030303000FD
:0624E200536C65657000FB
:00000001FF
