:100000000C94FD000C9485100C94AC100C942501FC
:100010000C9425010C9425010C9482090C94250163
:100020000C9425010C9425010C9425010C942501B8
:100030000C9425010C9425010C9425010C942501A8
:100040000C94D3100C9425010C9425010C942501DB
:100050000C9425010C9425010C9425010C94250188
:100060000C9425010C942501005EBCE2613FDD8308
:10007000C29C7E20A3FD1F419DC3217FFCA2401E88
:100080005F01E3BD3E6082DC237D9FC1421CFEA078
:10009000E1BF5D0380DE3C62BEE0025CDF81633D68
:1000A0007C22C09E1D43A1FF4618FAA427799BC558
:1000B00084DA3866E5BB5907DB856739BAE4065848
:1000C0001947A5FB7826C49A653BD987045AB8E638
:1000D000A7F91B45C6987A24F8A6441A99C7257B28
:1000E0003A6486D85B05E7B98CD2306EEDB3510F18
:1000F0004E10F2AC2F7193CD114FADF3702ECC9208
:10010000D38D6F31B2EC0E50AFF1134DCE90722CF7
:100110006D33D18F0C52B0EE326C8ED0530DEFB1E7
:10012000F0AE4C1291CF2D73CA947628ABF51749D7
:100130000856B4EA6937D58B5709EBB536688AD4C7
:1001400095CB2977F4AA4816E9B7550B88D6346AB7
:100150002B7597C94A14F6A8742AC896154BA9F7A7
:10016000B6E80A54D7896B355E01011F010303010C
:10017000008A02010A010202010064001E47040B0A
:100180000906007C0101060103030100F401060ECB
:100190000102020100C20117010102020101000077
:1001A0000008000201000003040700000000000036
:1001B0000000010204081020408001020408102001
:1001C00001020408102004040404040404040202CC
:1001D00002020202030303030303000000002300E2
:1001E0002600290000000000250028002B00000048
:1001F0000000240027002A004F0511241FBECFEF66
:10020000D8E0DEBFCDBF11E0A0E0B1E0E0E3FDE269
:1002100002C005900D92AC3BB107D9F722E0ACEBE0
:10022000B1E001C01D92A33AB207E1F710E0CDEFB3
:10023000D0E004C02197FE010E947F13CC3FD1077C
:10024000C9F70E9443100C9496160C9400001F935B
:10025000CF93DF9300D000D000D0CDB7DEB710E051
:1002600060E0812F0E94F71160E0812F0E9433121D
:100270001F5F1431A9F760E084E00E94F71161E08C
:1002800084E00E94F71161E084E00E94331260E094
:1002900087E00E94F71161E089E00E94F71161E0B8
:1002A00089E00E94331268EC70E080E090E00E94E8
:1002B0004E1160E089E00E94331260E089E00E9404
:1002C000F71188E592E09093ED018093EC0166E2EE
:1002D00071E0CE0101960E94D012CE0101960E94DB
:1002E00062128CE08093BC0126960FB6F894DEBFB4
:1002F0000FBECDBFDF91CF911F9108950F931F9334
:10030000CF93DF9397FD0796EC0183E0D595C795D2
:100310008A95E1F700E010E00C171D0754F420E087
:1003200040E069E08DEF91E00E9438090F5F1F4FB8
:10033000F3CFDF91CF911F910F91089580E090E06E
:100340000E941D1681508E3F50F081E0809306017F
:100350008093070161E080E090E00C945116909149
:10036000BC01899F802D11248F5F8093060110921C
:1003700007010895CF93DF93CDB7DEB72C970FB663
:10038000F894DEBF0FBECDBF0E949E0160910601B2
:1003900070E04CE050E0CE0101960E940D16809175
:1003A0000701882381F01A8219821C861B8680E04F
:1003B00090E0A0ECBFE78B839C83AD83BE838F83EB
:1003C0009887A987BA878CE0FE013196ADEBB1E042
:1003D00001900D928A95E1F72C960FB6F894DEBF46
:1003E0000FBECDBFDF91CF9108951F93CF93DF93C1
:1003F000CDB7DEB72C970FB6F894DEBF0FBECDBFDA
:10040000882349F08091C7019091C801019690938B
:10041000C8018093C7018091BD019091BE010196F2
:100420009093BE018093BD014091BC0150E060916A
:10043000060170E08DEB91E00E9425168091BD01D0
:100440009091BE018033954768F180E090E00E9472
:100450001D16182F682F70E06F5F7F4F80E090E0CF
:100460000E9435164091BC01149F602D112411E0AB
:10047000160F109306011A8219821C861B8680E0D3
:1004800090E0A0ECBFE78B839C83AD83BE838F831A
:100490009887A987BA8750E0612F70E0CE01019656
:1004A0000E9447162C960FB6F894DEBF0FBECDBF44
:1004B000DF91CF911F9108954F925F926F927F923B
:1004C0008F929F92AF92BF92CF92DF92EF92FF9264
:1004D000CF93DF9300D000D000D0CDB7DEB74B0173
:1004E0005C0129013A018BE391E00E946C156B01DC
:1004F0007C0162E471E0CE0101960E94D012CE012F
:1005000001960E9462122AE0B501A401CE01019673
:100510000E94FC12CE0101960E9462126DE471E00D
:10052000CE0101960E94D012CE0101960E94621265
:100530002AE0B301A201CE0101960E94FC12CE0175
:1005400001960E9462128C149D04AE04BF0434F420
:1005500075016401C40CD51CE61CF71C66E571E04E
:10056000CE0101960E94D012CE0101960E94621225
:100570002AE0B701A601CE0101960E94FC12CE012D
:1005800001960E94621228E130E0B701A6018EEECA
:1005900091E00E94140C26960FB6F894DEBF0FBEB1
:1005A000CDBFDF91CF91FF90EF90DF90CF90BF90C4
:1005B000AF909F908F907F906F905F904F90089535
:1005C0008F929F92AF92BF92CF92DF92EF92FF9263
:1005D000CF93DF9300D000D000D0CDB7DEB7C0906E
:1005E0000C01D0900D01E0900E01F0900F01A701D9
:1005F0009601C701B6010E943D10811124C0809070
:10060000080190900901A0900A01B0900B01A5018A
:100610009401C501B4010E943D10811114C020E075
:1006200030E04CEF52ECC701B6010E94710E87FD1D
:100630000AC020E030E04CEF52ECC501B4010E944A
:10064000710E87FF25C06AE571E0CE0101960E9418
:10065000D012CE0101960E946212C0900801D09083
:100660000901E0900A01F0900B01A7019601C70172
:10067000B6010E943D10811129C020E030E04CEF0E
:1006800052ECC701B6010E94710E87FD1FC033C036
:100690006091C3017091C4018091C5019091C60120
:1006A0009B01AC010E943D10811134C06091BF01DB
:1006B0007091C0018091C1019091C2019B01AC0178
:1006C0000E943D10882309F485C024C089E891E088
:1006D0000E946C156B017C0180E991E00E946C1511
:1006E000A70196010E945C028CE390E09093ED01DB
:1006F0008093EC01C4C087E991E00E946C156B0106
:100700007C018EE991E00E946C15A70196010E9480
:100710005C02EACF87E991E00E946C154B015C0115
:1007200020E030E040E251E4C701B6010E94D00F62
:100730000E94E80E072E000C880B990BA50194016E
:100740000E945C0289E891E00E946C156B017C01BB
:1007500020E030E040E251E460910801709109012D
:1007600080910A0190910B010E94D00F0E94E80E27
:10077000072E000C880B990BA70196010E945C02C2
:1007800088E592E09093ED018093EC0180910C015B
:1007900090910D01A0910E01B0910F018093C301C2
:1007A0009093C401A093C501B093C6018091080144
:1007B00090910901A0910A01B0910B018093BF01B2
:1007C0009093C001A093C101B093C20180E00E9448
:1007D000F50155C0C092C301D092C401E092C50199
:1007E000F092C6018092BF019092C001A092C10117
:1007F000B092C20180E00E94F50187E991E00E9479
:100800006C156B017C0120E030E040E251E4609126
:100810000C0170910D0180910E0190910F010E94C9
:10082000D00F0E94E80E072E000C880B990BA70131
:1008300096010E945C0289E891E00E946C156B01B0
:100840007C0120E030E040E251E4609108017091C9
:10085000090180910A0190910B010E94D00F0E9422
:10086000E80E072E000C880B990BA70196010E9439
:100870005C0288E592E09093ED018093EC0126966E
:100880000FB6F894DEBF0FBECDBFDF91CF91FF90C2
:10089000EF90DF90CF90BF90AF909F908F90089592
:1008A00061E070E080E090E00E944E1189EC91E000
:1008B0000E94440789EC91E00E94180860E089ECEE
:1008C00091E00E94140960930801709309018093DC
:1008D0000A0190930B0189EC91E00E94440789EC96
:1008E00091E00E946E0590E09093EB018093EA0105
:1008F0006CE089EC91E00E94CE0689EC91E00E94C8
:10090000180868E171E089EC91E00E94E4086093C6
:1009100008017093090180930A0190930B0160E133
:1009200071E089EC91E00E94E40860930C017093FF
:100930000D0180930E0190930F010E94E00260E090
:1009400084E00E94331260E083E00E94F71160E0CF
:1009500083E00E94331260E084E00C94F7118EE48F
:1009600080937C006AE070E080E090E00E944E118D
:1009700080917A00806480937A0080917A0086FD6D
:10098000FCCF809178002091790030E0322F22272F
:10099000A901330F660B770B9A01AB01282B60E09E
:1009A00070E381E190E00E943E13CA01B90108950D
:1009B000CF92DF92EF92FF92CF93DF9300D000D0DF
:1009C00000D0CDB7DEB761E087E00E94F71161E0AB
:1009D00087E00E94331266E070E08EEE91E00E94A4
:1009E000B00B6FE070E08EEE91E00E94AC0B65EA18
:1009F00071E0CE0101960E94D012CE0101960E94B4
:100A000062120E94AF04AB01BC012AE0CE01019644
:100A10000E94FC12CE0101960E9462128FEA91E0C0
:100A20000E946C156B017C010E94AF04A701960126
:100A30000E945C020E94BA010E9450048EEE91E076
:100A40000E94B70B60E087E00E94F71160E087E04A
:100A50000E94331260E086E00E94F71160E086E0B9
:100A60000E94331266EB71E0CE0101960E94D01213
:100A7000CE0101960E9462128091EC019091ED01ED
:100A80000E947E0126960FB6F894DEBF0FBECDBF42
:100A9000DF91CF91FF90EF90DF90CF9008958EEE91
:100AA00091E00E94850B63E08CED91E00E94B50A15
:100AB0006CED71E089EC91E00C945F050895FC0108
:100AC0008EE595E0928B818B76836583148210820C
:100AD00089E0818381E0828383830895FC0184819E
:100AE0000895CF93DF93EB0167E0CE010E94600B86
:100AF00091E02F81281390E0892FDF91CF91089505
:100B0000EF92FF920F931F93CF93DF938C017B01A2
:100B1000D42FFC01858196810E94A90AC0E0B7010B
:100B2000F801858196810E94D80A882359F0DC1348
:100B300006C0B701C8010E947105811104C0CF5FD2
:100B4000DC1768F780E0DF91CF911F910F91FF9044
:100B5000EF900895EF92FF920F931F93CF93DF933F
:100B6000EC017B018A018D819E810E949909B70168
:100B70008D819E810E94860A40E06EEB8D819E8170
:100B80000E94360A8D819E810E946A0AF801808344
:100B90008D819E810E946A0AF80181838D819E81E8
:100BA0000E946A0AF80182838D819E810E946A0AEE
:100BB000F80183838D819E810E946A0AF8018483F3
:100BC0008D819E810E946A0AF80185838D819E81B4
:100BD0000E946A0AF80186838D819E810E946A0ABA
:100BE000F80187838D819E810E946A0AF8018087BF
:100BF0008D819E81DF91CF911F910F91FF90EF909A
:100C00000C949909CF93DF93EA010E94AA0568E04A
:100C1000CE010E94600B91E02885281390E0892F77
:100C2000DF91CF910895EF92FF920F931F93CF938F
:100C3000DF93EC017B018A018D819E810E949909DD
:100C4000B7018D819E810E94860A40E06EE48D810D
:100C50009E810E94360A40E0F80162818D819E816A
:100C60000E94360A40E0F80163818D819E810E94D6
:100C7000360AF7018081803139F040E0F801648163
:100C80008D819E810E94360A8D819E810E949909E4
:100C9000488168E48D819E810E94360A888188237C
:100CA00031F06AE070E080E090E00E944E118D81AA
:100CB0009E81DF91CF911F910F91FF90EF900C9447
:100CC00099090F931F93CF93DF93EC018B018D81D3
:100CD0009E810E949909B8018D819E810E94860A99
:100CE00040E064EB8D819E810E94360A8D819E8159
:100CF0000E940B0A182F8D819E810E94990981E024
:100D0000111180E0DF91CF911F910F910895CF9243
:100D1000DF92EF92FF920F931F93CF93DF93CDB7A4
:100D2000DEB729970FB6F894DEBF0FBECDBF6C01BA
:100D30008B01F42EAE014F5F5F4F0E940206E82E3A
:100D40008823E1F0F80180818031C1F0FBE0FF16DB
:100D500051F08CE0F81629F0EAE0FE1206C08FE3AD
:100D600005C08FE703C08FE501C08FE18D83AE0121
:100D70004F5F5F4FB801C6010E9413068E2D299662
:100D80000FB6F894DEBF0FBECDBFDF91CF911F919C
:100D90000F91FF90EF90DF90CF900895EF92FF9228
:100DA0000F931F93CF93DF93CDB7DEB728970FB67E
:100DB000F894DEBF0FBECDBF8C01693020F06D30DE
:100DC00018F06CE001C069E0F8016183E12CF12CBE
:100DD000F801848190E0E816F9069CF44E2DBE01DE
:100DE0006F5F7F4FC8010E948005F8014181BE01FD
:100DF0006F5F7F4FC8010E948706FFEFEF1AFF0A5F
:100E0000E7CF28960FB6F894DEBF0FBECDBFDF91B7
:100E1000CF911F910F91FF90EF900895CF93DF93A3
:100E2000CDB7DEB729970FB6F894DEBF0FBECDBFA2
:100E3000FB0120812031F1F0AE014F5F5F4F0E9436
:100E400002068823A9F08D818F3359F018F48F3171
:100E500089F009C08F3519F08F3741F004C08BE05D
:100E60000AC08AE008C0807F803F11F48CE003C094
:100E700080E001C089E029960FB6F894DEBF0FBE6E
:100E8000CDBFDF91CF910895EF92FF920F931F9303
:100E9000CF93DF93CDB7DEB761970FB6F894DEBF7F
:100EA0000FBECDBF8C01FC01858196810E94A90AED
:100EB000F8011482FF24F394BE01665F7F4FF801AE
:100EC000858196810E94D80A8823C9F1BE01665F98
:100ED0007F4FC8010E947105882371F3F80180815A
:100EE000811108C0BE01665F7F4FC8010E94610684
:100EF000811122C0AE014F5F5F4FBE01665F7F4F21
:100F0000C8010E94AA05F801E180BE01665F7F4F1B
:100F1000C8010E940E078E1518F4F801818106C0E1
:100F2000BE01665F7F4FC8010E940E07F8018183F2
:100F300084818F5F8483C0CFF801F082DBCF61961C
:100F40000FB6F894DEBF0FBECDBFDF91CF911F91DA
:100F50000F91FF90EF900895CF93DF93CDB7DEB759
:100F600029970FB6F894DEBF0FBECDBFAE014F5F1D
:100F70005F4F0E94AA0581E09981911101C080E034
:100F800029960FB6F894DEBF0FBECDBFDF91CF918B
:100F90000895CF92DF92EF92FF920F931F93CF931A
:100FA000DF93EC018B01452BF1F08B818823D9F085
:100FB0008881811118C00E941D116B017C0160E0C5
:100FC00070E0CE010E94AC0781110DC00E941D117E
:100FD000DC01CB018C199D09AE09BF098E3E924000
:100FE000A105B10560F3F80180818A30A9F46CEBAA
:100FF00070E080E090E006C08930A9F46EE570E012
:1010000080E090E0DF91CF911F910F91FF90EF90E2
:10101000DF90CF900C944E118B3071F767E771E041
:1010200080E090E0EFCF6EEE72E080E090E0EACFFB
:10103000CF93DF93EC018D819E810E9499098D8170
:101040009E810E94A50A488164E48D819E810E9450
:10105000360A8A81882351F0BE016F5F7F4F40E0DE
:1010600050E0CE01DF91CF910C94C907DF91CF9171
:1010700008958F929F92AF92BF92CF92DF92EF929C
:10108000FF92CF93DF93FA01C081D1819081DB0180
:101090008C918232F1F1A8F5803109F086C0F78099
:1010A0006F2D70E08681681B7109072E000C880B7C
:1010B000990B0E94200F4B015C016F2D70E080E0C6
:1010C00090E00E941E0F9B01AC01C501B4010E947B
:1010D000760E6B017C01BE0175956795072E000C9D
:1010E000880B990B0E94200F20E030E040E85EE37F
:1010F0000E94040E9B01AC01C701B6010E94050EBF
:1011000050C0883231F08B3309F04FC090FD45C09C
:101110001BC084818F3381F198F48F3109F045C071
:1011200093E0D595C7959A95E1F7BE01DD0F880B41
:10113000990B0E94200F20E030E040E05FE32AC0DE
:101140008F3569F08F3789F5BE01DD0F880B990B5C
:101150000E94200F20E030E040E85DE31BC0D59501
:10116000C795BE01DD0F880B990B0E94200F20E070
:1011700030E040E05EE30EC0D595C795D595C795A4
:10118000BE01DD0F880B990B0E94200F20E030E09C
:1011900040E85EE30E94D00F04C060E070E080ECA5
:1011A0009FE7262F572F482F392F622F752F842F17
:1011B000932FDF91CF91FF90EF90DF90CF90BF9072
:1011C000AF909F908F900895EF92FF920F931F938F
:1011D000CF93DF93CDB7DEB729970FB6F894DEBF74
:1011E0000FBECDBF8C017B01AE014F5F5F4F0E94F0
:1011F0000206882341F0AE014F5F5F4FB701C8017F
:101200000E94390804C060E070E08EEF92EC2996ED
:101210000FB6F894DEBF0FBECDBFDF91CF911F9107
:101220000F91FF90EF9008950F931F93CF93DF934B
:10123000CDB7DEB728970FB6F894DEBF0FBECDBF8F
:101240008C01462FBE016F5F7F4F0E948005BE015B
:101250006F5F7F4FC8010E94E40828960FB6F8948C
:10126000DEBF0FBECDBFDF91CF911F910F910895CB
:10127000411105C0EAE7F0E080818F7780836A3012
:10128000A9F063FD02C088E001C088E26770682BA6
:1012900088E10FB6F894A895809360000FBE609324
:1012A0006000E0E6F0E0808180648083211114C05A
:1012B00083B7817F846083BFF89483B7816083BFE5
:1012C00085B7806685BF8F7D85BF7894889583B705
:1012D0008E7F83BF78940EC083B7817F846083BF85
:1012E000F89483B7816083BF7894889583B78E7FA5
:1012F00083BF7894411105C0EAE7F0E080818068FF
:10130000808308951F920F920FB60F9211248F932E
:101310000FB6F894A8958091600088618093600072
:10132000109260000FBE8F910F900FBE0F901F9014
:101330001895FF920F931F93CF93DF93FC01F080DA
:10134000C181D281F89489810F2D009580238983F2
:1013500078941DE7115029F182E090E00E948A11F3
:1013600088818F21B9F3F8948A8180238A838981C7
:101370008F298983789480EE91E00E948A11F894F5
:1013800089810823098386E490E00E948A1188817C
:10139000F82211E009F010E078948AE991E00E94C7
:1013A0008A11812FDF91CF911F910F91FF900895A6
:1013B0001F93CF93DF93FC011081C181D281812FD4
:1013C000809560FF12C0F8949A8189238A8389816D
:1013D000812B89838AE090E00E948A118A81182BF0
:1013E0001A83789487E390E011C0F8949A81892356
:1013F0008A838981812B898381E490E00E948A110C
:101400008A81182B1A83789485E090E0DF91CF9140
:101410001F910C948A110F931F93CF93DF93FC01BC
:101420000081C181D281F8948981802B89838A814E
:10143000102F109581238A8383E090E00E948A1107
:101440008981182319838AE090E00E948A11C8815B
:10145000789485E390E00E948A11C02381E009F42A
:1014600080E0DF91CF911F910F910895DF92EF926D
:10147000FF920F931F93CF93DF93EC01D62EE42EB0
:1014800008E010E0FF24F39461E08D2D8F2109F432
:1014900060E0CE010E94D809FF0C01501109A1F7AC
:1014A000E11010C0F894E981FA81918188818095DA
:1014B00089238183E981FA819281888180958923BA
:1014C00082837894DF91CF911F910F91FF90EF90DD
:1014D000DF900895EF92FF920F931F93CF93DF93C6
:1014E0007C0108E010E0C0E0D1E0C7010E940B0AD7
:1014F0008111CD2BDD0F01501109B9F78C2FDF9130
:10150000CF911F910F91FF90EF900895EF92FF926E
:101510000F931F93CF93DF938C017B0140E065E530
:101520000E94360AE70188E0E80EF11C699140E06C
:10153000C8010E94360ACE15DF05C1F7DF91CF91B1
:101540001F910F91FF90EF90089540E06CEC0C9488
:10155000360AFC01138615861486DC011B96339629
:101560001E92AE17BF07E1F708951F93CF93DF9345
:10157000EC01162F60E0812F0E94F711612F70E0BF
:10158000FB01EE54FE4FE491E883FB01EA53FE4F6A
:10159000E491F0E0EE0FFF1FE652FE4F859194912B
:1015A0009A838983CE01DF91CF911F910C94A90A70
:1015B000BF92CF92DF92EF92FF920F931F93CF9340
:1015C000DF93EC01D62EC72E8D8581115BC0CE0135
:1015D0000E949909811104C01B861D861C8666C065
:1015E00040E060EFCE010E94360A01E0E12CB12C10
:1015F00011E0CE010E940B0AF82ECE010E940B0AC8
:1016000091E0F91203C08130B1F434C02E2D30E0E6
:10161000F8121BC08B85181738F4FE01E20FF31F78
:101620008381802341F402C0181729F0F12C19306E
:1016300058F41C8709C0FE01EE0DF11D8381802B3B
:101640008383FF24F39409C0B12EFE01E20FF31F40
:101650009381802F8095892383836F2DCE010E94F3
:10166000D8091F5F000F11F4E39401E087E08E15A5
:1016700008F0BFCF113430F0BB86B11012C081E04A
:101680008D870FC01B861D861C8680E0DE011396A9
:10169000ED2DFC2D2B969D919193AC17BD07D9F79D
:1016A00005C08B81882371F381E0F0CFDF91CF916A
:1016B0001F910F91FF90EF90DF90CF90BF90089512
:1016C000DC0180E0615040F09D91E82FE927F0E0D7
:1016D000E859FF4F8491F6CF08959B0121503109BD
:1016E0002630310510F061E070E06150710949E089
:1016F000469F9001479F300D1124B90168597E4FD4
:1017000049E050E006960C9493150F931F93CF93E6
:10171000DF93EC010FEF1FEF1B830A838AE090E059
:101720009D838C8361E070E0CE010E946D0B198374
:1017300008838CE390E09093210180932001109224
:101740009202109293021092940210929502DF91ED
:10175000CF911F910F910895FC01758364830895C3
:10176000FC01862F6283738361E00C94F7112FEFE5
:101770003FEFFC01338322830895FF920F931F9361
:10178000CF93DF93EC01F62E072F8E85882319F077
:1017900060E011E002C061E010E08A810E94331233
:1017A0008E819F819C01F29EC001F39E900D1124B9
:1017B0000E948A11612F8A810E9433128E819F813B
:1017C0009C01029FC001039F900D1124DF91CF91D6
:1017D0001F910F91FF900C948A11FC0180819181DF
:1017E0008F3FFFEF9F0791F01092920210929302A9
:1017F000109294021092950210929102109290020F
:1018000041E050E069E87DE00C9453100895CF93D7
:10181000DF93EC0188810E9473108FEF9FEF998313
:101820008883DF91CF9108952F923F924F925F92DC
:101830006F927F928F929F92AF92BF92CF92DF92E0
:10184000EF92FF920F931F93CF93DF93DC011296D9
:10185000ED91FC911397319609F45CC019016A016E
:101860007B01EC01488059808FEF4816580619F02B
:10187000CE010E94070C612C712C812C912C5401FB
:1018800083948C819D81681679064CF58101015005
:10189000110917FD1BC0D501C401002E04C0880F1B
:1018A000991FAA1FBB1F0A94D2F78C219D21AE213C
:1018B000BF21892B8A2B8B2B19F06C857D8502C06B
:1018C0006A857B85CE010E94BD0BE1CF6885798555
:1018D000CE010E94BD0BAFEF6A1A7A0AD2CFBFEFDA
:1018E0004B165B06B9F059824882CE01DF91CF9149
:1018F0001F910F91FF90EF90DF90CF90BF90AF902E
:101900009F908F907F906F905F904F903F902F901F
:101910000C94ED0BDF91CF911F910F91FF90EF9001
:10192000DF90CF90BF90AF909F908F907F906F90FF
:101930005F904F903F902F9008952F923F924F923B
:101940005F926F927F928F929F92AF92BF92CF924F
:10195000DF92EF92FF920F931F93CF93DF93CDB758
:10196000DEB72D970FB6F894DEBF0FBECDBF8C014A
:101970007B01019729E0289FB001299F700D112458
:1019800068597E4F49E050E0CE0101960E949315C0
:101990008B816C81681708F4682F70E080910602D3
:1019A000909107020E942A139B01409120015091BF
:1019B0002101649FC001659F900D749F900D1124BB
:1019C00064E670E00E942A138985811103C0A1E0BA
:1019D000B0E002C0A2E0B0E08D81829F3001839F21
:1019E000700C11247B866A868E81829F1001839FF2
:1019F000300C11248F81829F2001839F500C112471
:101A00008885829FA001839F500D11245D874C879C
:101A1000FD01EE0FFF1FEA5FFD4F812C912C540159
:101A2000670151E0C51AD108AC15BD05E0F5880C79
:101A3000991CAA1CBB1C80819181AC016A847B84A7
:101A40004619570957FF03C051954195510946174B
:101A5000570760F4428153814219530957FF03C06D
:101A600051954195510946175707D0F084199509AA
:101A700097FF03C09195819591098617970778F58F
:101A8000828193814C855D85841B950B97FF03C0F4
:101A90009195819591098617970708F5689480F8C4
:101AA00012963496C1CF58E0E516F104C0F080924A
:101AB000920290929302A0929402B0929502D694D0
:101AC000C794D0929102C092900230938F022093DB
:101AD0008E0210938D0200938C0281E001C080E0A1
:101AE0002D960FB6F894DEBF0FBECDBFDF91CF911C
:101AF0001F910F91FF90EF90DF90CF90BF90AF902C
:101B00009F908F907F906F905F904F903F902F901D
:101B10000895CF92DF92EF92FF920F931F93CF938E
:101B2000DF930E9429116B017C0180910202909148
:101B300003028601081B190B0D3C20E1120790F1EE
:101B400080910602909107029801281B390BC90168
:101B500037FF03C0919581959109883C9105F4F474
:101B6000809100029091010201969093010280936E
:101B70000002029799F4C1E0D0E06091FE017091FB
:101B8000FF01CE010E949D0C811104C02196C73037
:101B9000D10599F710920102109200021092FF01F4
:101BA0001092FE018091FE019091FF018334910516
:101BB00040F01092FF011092FE011092010210926B
:101BC00000028091FE019091FF019C012F5F3F4F29
:101BD0003093FF012093FE01880F991FFC01EA5FFB
:101BE000FD4F11830083C0920202D0920302E09263
:101BF0000402F0920502DF91CF911F910F91FF90A7
:101C0000EF90DF90CF9008955058BB27AA270E94ED
:101C10001C0E0C94960F0E94880F38F00E948F0FB4
:101C200020F039F49F3F19F426F40C94850F0EF43C
:101C3000E095E7FB0C947F0FE92F0E94A70F58F364
:101C4000BA17620773078407950720F079F4A6F5A1
:101C50000C94C90F0EF4E0950B2EBA2FA02D0B019A
:101C6000B90190010C01CA01A0011124FF27591BE1
:101C700099F0593F50F4503E68F11A16F040A22FE7
:101C8000232F342F4427585FF3CF46953795279558
:101C9000A795F0405395C9F77EF41F16BA0B620B57
:101CA000730B840BBAF09150A1F0FF0FBB1F661F9E
:101CB000771F881FC2F70EC0BA0F621F731F841FE1
:101CC00048F4879577956795B795F7959E3F08F007
:101CD000B0CF9395880F08F09927EE0F97958795C9
:101CE00008950E945B0F08F481E008950E948A0E17
:101CF0000C94960F0E948F0F58F00E94880F40F0AE
:101D000029F45F3F29F00C947F0F51110C94CA0FF6
:101D10000C94850F0E94A70F68F39923B1F3552304
:101D200091F3951B550BBB27AA27621773078407EE
:101D300038F09F5F5F4F220F331F441FAA1FA9F384
:101D400035D00E2E3AF0E0E832D091505040E69572
:101D5000001CCAF72BD0FE2F29D0660F771F881FD3
:101D6000BB1F261737074807AB07B0E809F0BB0BC6
:101D7000802DBF01FF2793585F4F3AF09E3F5105DA
:101D800078F00C947F0F0C94CA0F5F3FE4F3983EF9
:101D9000D4F3869577956795B795F7959F5FC9F7C3
:101DA000880F911D9695879597F90895E1E0660F44
:101DB000771F881FBB1F621773078407BA0720F0BD
:101DC000621B730B840BBA0BEE1F88F7E095089526
:101DD0000E94EF0E6894B1110C94CA0F08950E94EE
:101DE000AF0F88F09F5798F0B92F9927B751B0F0EF
:101DF000E1F0660F771F881F991F1AF0BA95C9F78F
:101E000014C0B13091F00E94C90FB1E008950C9454
:101E1000C90F672F782F8827B85F39F0B93FCCF307
:101E2000869577956795B395D9F73EF4909580950B
:101E3000709561957F4F8F4F9F4F0895E89409C02B
:101E400097FB3EF490958095709561957F4F8F4FED
:101E50009F4F9923A9F0F92F96E9BB279395F69503
:101E6000879577956795B795F111F8CFFAF4BB0F81
:101E700011F460FF1BC06F5F7F4F8F4F9F4F16C0E5
:101E8000882311F096E911C0772321F09EE8872F6F
:101E9000762F05C0662371F096E8862F70E060E02B
:101EA0002AF09A95660F771F881FDAF7880F9695A4
:101EB000879597F90895990F0008550FAA0BE0E848
:101EC000FEEF16161706E807F907C0F012161306FC
:101ED000E407F50798F0621B730B840B950B39F43C
:101EE0000A2661F0232B242B252B21F408950A26A2
:101EF00009F4A140A6958FEF811D811D089597F9E2
:101F00009F6780E870E060E008959FEF80EC08959F
:101F100000240A94161617061806090608950024C8
:101F20000A9412161306140605060895092E039442
:101F3000000C11F4882352F0BB0F40F4BF2B11F4B6
:101F400060FF04C06F5F7F4F8F4F9F4F089557FD15
:101F50009058440F551F59F05F3F71F04795880F17
:101F600097FB991F61F09F3F79F0879508951216AE
:101F700013061406551FF2CF4695F1DF08C016165A
:101F800017061806991FF1CF86957105610508940B
:101F90000895E894BB2766277727CB0197F9089522
:101FA0000E94E30F0C94960F0E94880F38F00E9455
:101FB0008F0F20F0952311F00C947F0F0C94850F58
:101FC00011240C94CA0F0E94A70F70F3959FC1F3C0
:101FD000950F50E0551F629FF001729FBB27F00DD7
:101FE000B11D639FAA27F00DB11DAA1F649F66272C
:101FF000B00DA11D661F829F2227B00DA11D621F7B
:10200000739FB00DA11D621F839FA00D611D221F34
:10201000749F3327A00D611D231F849F600D211D18
:10202000822F762F6A2F11249F5750409AF0F1F09B
:1020300088234AF0EE0FFF1FBB1F661F771F881F04
:1020400091505040A9F79E3F510580F00C947F0FAE
:102050000C94CA0F5F3FE4F3983ED4F386957795CE
:102060006795B795F795E7959F5FC1F7FE2B880FAA
:10207000911D9695879597F908950E945B0F880B9F
:10208000990B089508950E9493110E9442100E9496
:102090002701C0E0D0E00E94D8042097E1F30E941D
:1020A0000000F9CF08958230E8F4E82FF0E0EE0F59
:1020B000FF1FEE5DFE4F71836083813041F08091A0
:1020C00069008C7F482B40936900E89A08958091BD
:1020D0006900837F440F551F440F551F482B4093C1
:1020E0006900E99A0895823078F4813011F0E89817
:1020F00001C0E998E82FF0E0EE0FFF1FEE5DFE4F04
:1021000082E590E19183808308951F920F920FB62C
:102110000F9211242F933F934F935F936F937F936D
:102120008F939F93AF93BF93EF93FF93E09122011F
:10213000F09123010995FF91EF91BF91AF919F918C
:102140008F917F916F915F914F913F912F910F9060
:102150000FBE0F901F9018951F920F920FB60F92FF
:1021600011242F933F934F935F936F937F938F939C
:102170009F93AF93BF93EF93FF93E0912401F0916E
:1021800025010995FF91EF91BF91AF919F918F919B
:102190007F916F915F914F913F912F910F900FBE63
:1021A0000F901F9018951F920F920FB60F92112447
:1021B0002F933F938F939F93AF93BF9380919702F9
:1021C00090919802A0919902B0919A023091960252
:1021D00026E0230F2D3720F40296A11DB11D05C066
:1021E00029E8230F0396A11DB11D20939602809329
:1021F000970290939802A0939902B0939A028091CB
:102200009B0290919C02A0919D02B0919E0201962A
:10221000A11DB11D80939B0290939C02A0939D02EF
:10222000B0939E02BF91AF919F918F913F912F915B
:102230000F900FBE0F901F9018952FB7F8946091D4
:102240009702709198028091990290919A022FBF03
:1022500008953FB7F89480919B0290919C02A091C1
:102260009D02B0919E0226B5A89B05C02F3F19F094
:102270000196A11DB11D3FBFBA2FA92F982F882706
:10228000820F911DA11DB11DBC01CD0143E0660F60
:10229000771F881F991F4A95D1F708958F929F92B3
:1022A000AF92BF92CF92DF92EF92FF926B017C01CF
:1022B0000E9429114B015C01C114D104E104F10415
:1022C00001F10E9429130E942911DC01CB01881918
:1022D0009909AA09BB09883E9340A105B10560F39D
:1022E00021E0C21AD108E108F10888EE880E83E0E7
:1022F000981EA11CB11CC114D104E104F10419F70A
:10230000DBCFFF90EF90DF90CF90BF90AF909F908A
:102310008F9008958330910528F0880F991F0497B6
:102320000197F1F70895789484B5826084BD84B5EF
:10233000816084BD85B5826085BD85B5816085BDC0
:10234000EEE6F0E0808181608083E1E8F0E01082D9
:10235000808182608083808181608083E0E8F0E01A
:10236000808181608083E1EBF0E080818460808304
:10237000E0EBF0E0808181608083EAE7F0E080813B
:102380008460808380818260808380818E7F80836F
:102390008081806880831092C1000895833081F02D
:1023A00028F4813099F08230A1F008958730A9F0A7
:1023B0008830B9F08430D1F4809180008F7D03C0E3
:1023C000809180008F7780938000089584B58F7707
:1023D00002C084B58F7D84BD08958091B0008F7751
:1023E00003C08091B0008F7D8093B0000895CF939B
:1023F000DF9390E0FC01EE54FE4F2491FC01EA5380
:10240000FE4F8491882361F190E0880F991FFC01B1
:10241000E251FE4FC591D491FC01EC51FE4FA591C4
:10242000B491611109C09FB7F894888120958223E7
:102430008883EC912E230BC0623061F49FB7F8942F
:102440008881322F309583238883EC912E2B2C9317
:102450009FBF06C08FB7F894E8812E2B28838FBFCB
:10246000DF91CF9108951F93CF93DF93282F30E012
:10247000F901E256FE4F8491F901EE54FE4FD491DA
:10248000F901EA53FE4FC491CC23C1F0162F8111FC
:102490000E94CE11EC2FF0E0EE0FFF1FEC51FE4F2B
:1024A000A591B4919FB7F894111104C08C91D09567
:1024B000D82302C0EC91DE2BDC939FBFDF91CF913C
:1024C0001F910895FC01808191810C941D14CF937C
:1024D000DF93EC0188819981009711F00E941D140F
:1024E000198218821D821C821B821A82DF91CF9171
:1024F00008950F931F93CF93DF93EC018B016F5FD0
:102500007F4F888199810E94A614009731F09983AA
:1025100088831B830A8381E001C080E0DF91CF9133
:102520001F910F910895CF93DF93EC0188819981DA
:10253000892B29F08A819B818617970760F4CE0149
:102540000E947912882341F08C819D81892B19F496
:10255000E881F981108281E0DF91CF910895EF92B7
:10256000FF920F931F93CF93DF93EC017B018A01BE
:10257000BA010E949312811104C0CE010E94671219
:1025800007C01D830C83B701888199810E94A5151E
:10259000CE01DF91CF911F910F91FF90EF900895A1
:1025A000FC0111821082138212821582148261153D
:1025B000710551F0FB0101900020E9F73197AF015F
:1025C000461B570B0C94AF120895CF93DF93EC0189
:1025D0006115710559F0FB0101900020E9F7319771
:1025E000AF01461B570B0E94AF1202C00E94671238
:1025F000CE01DF91CF9108950F931F93CF93DF9377
:10260000CDB7DEB7A2970FB6F894DEBF0FBECDBF31
:102610008C01CB01BA01F80111821082138212825F
:102620001582148230E0AE014F5F5F4F0E94AC15FF
:10263000BE016F5F7F4FC8010E94E512A2960FB6E0
:10264000F894DEBF0FBECDBFDF91CF911F910F91E8
:1026500008950895AA1BBB1B51E107C0AA1FBB1F09
:10266000A617B70710F0A61BB70B881F991F5A951E
:10267000A9F780959095BC01CD010895052E97FB93
:102680001EF400940E94551357FD07D00E945D135D
:1026900007FC03D04EF40C9455135095409530959B
:1026A00021953F4F4F4F5F4F0895909580957095BE
:1026B00061957F4F8F4F9F4F0895A1E21A2EAA1B5D
:1026C000BB1BFD010DC0AA1FBB1FEE1FFF1FA217E2
:1026D000B307E407F50720F0A21BB30BE40BF50BDF
:1026E000661F771F881F991F1A9469F76095709568
:1026F000809590959B01AC01BD01CF010895EE0F2F
:10270000FF1F0590F491E02D09940F931F93CF9331
:10271000DF938230910510F482E090E0E091A10215
:10272000F091A20220E030E0A0E0B0E0309719F193
:10273000408151810281138148175907C8F08417DD
:10274000950769F4109731F012960C93129713962F
:102750001C9327C00093A1021093A20222C021154E
:10276000310519F04217530718F49A01BD01EF0122
:10277000DF01F801DBCF21153105F9F0281B390BFA
:102780002430310580F48A819B816115710521F027
:10279000FB019383828304C09093A2028093A102E1
:1027A000FE01329644C0FE01E20FF31F8193919324
:1027B00022503109398328833AC020919F023091F9
:1027C000A002232B41F420910201309103013093A8
:1027D000A00220939F022091000130910101211558
:1027E000310541F42DB73EB74091040150910501E8
:1027F000241B350BE0919F02F091A002E217F30732
:10280000A0F42E1B3F0B2817390778F0AC014E5F60
:102810005F4F2417350748F04E0F5F1F5093A002FB
:1028200040939F028193919302C0E0E0F0E0CF01DA
:10283000DF91CF911F910F910895CF93DF93009770
:1028400009F481C0FC01329713821282A091A10287
:10285000B091A202109781F420813181820F931FE1
:1028600020919F023091A0022817390751F5F0936B
:10287000A002E0939F0267C0ED0120E030E0CE1798
:10288000DF0740F44A815B819E0141155105F1F05B
:10289000EA01F5CFD383C28340815181840F951F14
:1028A000C817D90759F488819981840F951F02961A
:1028B000918380838A819B81938382832115310553
:1028C00029F4F093A202E093A1023DC0E901FB8349
:1028D000EA8349915991C40FD51FEC17FD0761F4A4
:1028E00080819181840F951F0296E90199838883E5
:1028F000828193819B838A83E0E0F0E012968D9140
:102900009C911397009719F0FD01DC01F7CF8D9191
:102910009C9111979D012E5F3F4F820F931F209135
:102920009F023091A0022817390769F4309729F4E3
:102930001092A2021092A10202C013821282B093DE
:10294000A002A0939F02DF91CF910895A0E0B0E094
:10295000ECEAF4E10C946316EC01009721F4CB014E
:102960000E948513B4C0FC01E60FF71F9C012250A2
:102970003109E217F30708F4A8C0D9010D911C91A1
:10298000119706171707B0F00530110508F49BC022
:10299000C80104978617970708F495C002501109DB
:1029A000061B170B019311936D937C93CF010E942B
:1029B0001D1489C05B01A01AB10A4C01800E911E42
:1029C000A091A102B091A202612C712CE12CF12CFA
:1029D000109709F446C08D919C911197A815B905DF
:1029E000B1F56C0142E0C40ED11CCA14DB0478F1CD
:1029F0004C018A189B08640142E0C40ED11C129657
:102A0000BC9012971396AC91B5E0CB16D10440F070
:102A1000B282A38391828082D9016D937C9309C095
:102A20000E5F1F4F800F911FF90191838083EB2D63
:102A3000FA2FE114F10431F0D7011396FC93EE93D1
:102A4000129741C0F093A202E093A1023CC0681625
:102A5000790608F43C017D0112960D90BC91A02DE1
:102A6000B7CF80919F029091A00288169906E1F459
:102A700066167706C8F480910001909101010097D5
:102A800041F48DB79EB74091040150910501841B1C
:102A9000950BE817F907C8F4F093A002E0939F02A2
:102AA000F901718360830FC0CB010E9485137C0103
:102AB000009759F0A801BE010E949C15CE010E940A
:102AC0001D14C70104C0CE0102C080E090E0CDB764
:102AD000DEB7EEE00C947F161F93FC019927882740
:102AE000BC01E89411911032E9F3193010F01E3056
:102AF000C8F31B3251F01D3249F4689406C00E949D
:102B0000C615610F711D811D911D119110531A3051
:102B1000B0F33EF490958095709561957F4F8F4FFF
:102B20009F4F1F910895FB01DC0102C005900D929B
:102B300041505040D8F70895FB01DC0102C00190DC
:102B40000D9241505040D8F70895FB01DC010190EF
:102B50000D920020E1F708952532310520F422304E
:102B600010F00C94B715FA011082CA010895BB2722
:102B70002A3051F4992342F4BDE2909580957095E6
:102B800061957F4F8F4F9F4F0C94DC15592F482F25
:102B9000372F262F660F771F881F991F660F771F05
:102BA000881F991F620F731F841F951F660F771F61
:102BB000881F991F0895BB27FA01A62F6217710578
:102BC00081059105330B30FB66F0AA27660F771F4E
:102BD000881F991FAA1FA21710F0A21B63953850D7
:102BE000A9F7A05DAA3308F0A95DA19336F7B1114A
:102BF000B1931082CA010C94FD15DC01FC01672F12
:102C000071917723E1F7329704C07C916D937083C3
:102C10006291AE17BF07C8F30895DC01CB01FC0138
:102C2000F999FECF06C0F2BDE1BDF89A319600B425
:102C30000D9241505040B8F70895F999FECF92BDDA
:102C400081BDF89A992780B50895DC01A40FB51FBE
:102C50004150504048F0CB01840F951F2E910E94A7
:102C6000361641505040D0F70895262FF999FECFDF
:102C700092BD81BDF89A019700B4021639F01FBACF
:102C800020BD0FB6F894FA9AF99A0FBE0895DC01A8
:102C9000CB0103C02D910E94521641505040D0F7F5
:102CA0000895262FF999FECF1FBA92BD81BD20BD90
:102CB0000FB6F894FA9AF99A0FBE019608952F92DA
:102CC0003F924F925F926F927F928F929F92AF92BC
:102CD000BF92CF92DF92EF92FF920F931F93CF9309
:102CE000DF93CDB7DEB7CA1BDB0B0FB6F894DEBFA0
:102CF0000FBECDBF09942A88398848885F846E84C6
:102D00007D848C849B84AA84B984C884DF80EE800F
:102D1000FD800C811B81AA81B981CE0FD11D0FB618
:102D2000F894DEBF0FBECDBFED010895F894FFCF3C
:102D30000000A302200001010000C07F0000C07F4E
:102D400028FF040AC117016828071C43980B00805C
:102D50003C00521052105374617274206F662074DC
:102D600068652070726F6772616D0039393939306A
:102D7000300044617461546F53656E640044617443
:102D800061547970650053756D004661696C6564C6
:102D900020746F20726561642066726F6D206F6EA3
:102DA00065206F6620746865206F6E65776972654F
:102DB0002073656E736F7221003433303535300007
:102DC000393939393331003431303535300039391A
:102DD0003939333200566F6C746167653A200034BC
:0C2DE000353030303000536C65657000F9
:00000001FF
