:100000000C947D000C9453080C942C080C94A500BF
:100010000C94A5000C94A5000C947A080C94A500EF
:100020000C94A5000C94A5000C94A5000C94A500BC
:100030000C94A5000C94A5000C94A5000C94A500AC
:100040000C94E2070C94A5000C94B0070C948A075A
:100050000C94A5000C94A5000C94A5000C94A5008C
:100060000C94A5000C94A5000000000024002700BB
:100070002A0000000000250028002B0000000008D6
:10008000000201000003040700000000000000005F
:1000900000000000230026002900040404040404D6
:1000A0000404020202020202030303030303010227
:1000B00004081020408001020408102001020408F6
:1000C00010205E01011F01030301008A02010A01E1
:1000D0000202010064001E47040B0906007C0101B6
:1000E000060103030100F401060E0102020100C231
:1000F0000117010102020101910811241FBECFEF77
:10010000D8E0DEBFCDBF22E0A2E7B1E001C01D9282
:10011000A63DB207E1F711E0A0E0B1E0EEE7F0E2C2
:1001200002C005900D92A237B107D9F710E0CDE7D4
:10013000D0E004C02197FE010E942B0ECC37D107DE
:10014000C9F70E9408090C943D100C9400008F928E
:100150009F92AF92BF92CF92DF92EF92FF92CF9396
:10016000DF93A091B802882311F03A2F01C030E04C
:100170008091B90290E0880F991F80579F4FC090DF
:10018000BE02D090BF02E090C002F090C10240E0F9
:1001900050E0BA01FC01C591D49128812A23231390
:1001A0000FC04A015B012FEF821A920AA20AB20A1B
:1001B0004C155D056E057F0538F4B501A401EACF45
:1001C000342F252FCB0104C030E020E080E090E008
:1001D000632F722FDF91CF91FF90EF90DF90CF9040
:1001E000BF90AF909F908F900895CF92DF92EF9243
:1001F000FF920F931F93CF93DF936C017A018B01D2
:10020000C0E0D0E0CE15DF0589F0D8016D918D01F9
:10021000D601ED91FC910190F081E02DC601099588
:10022000892B11F47E0102C02196ECCFC701DF912A
:10023000CF911F910F91FF90EF90DF90CF90089595
:10024000CF93DF93FC01448155816081718180E10E
:1002500092E00E94F500EC0142E050E06EE171E0B6
:1002600080E192E00E94F5008C0F9D1FDF91CF91FD
:100270000895089580E090E00895FC01538D448D29
:10028000252F30E0842F90E0821B930B541710F041
:10029000CF96089501970895FC01918D828D98174E
:1002A00061F0828DDF01A80FB11D5D968C91928D5A
:1002B0009F5F9F73928F90E008958FEF9FEF089557
:1002C000FC01918D828D981731F0828DE80FF11D20
:1002D000858D90E008958FEF9FEF0895FC01918D3B
:1002E000228D892F90E0805C9F4F821B91098F7334
:1002F0009927089580E192E00E946E0121E0892B08
:1003000009F420E0822F0895FC01848DDF01A80FFD
:10031000B11DA35ABF4F2C91848D90E001968F732D
:100320009927848FA689B7892C93A089B1898C914C
:1003300080648C93938D848D981306C00288F38912
:10034000E02D80818F7D80830895EF92FF920F933F
:100350001F93CF93DF93EC0181E0888F9B8D8C8D71
:10036000981305C0E889F989808185FD24C0F62E9F
:100370000B8D10E00F5F1F4F0F731127E02E8C8D38
:10038000E8120CC00FB607FCFACFE889F989808122
:1003900085FFF5CFCE010E948401F1CF8B8DFE0148
:1003A000E80FF11DE35AFF4FF0820B8FEA89FB89BA
:1003B0008081806207C0EE89FF896083E889F989BE
:1003C00080818064808381E090E0DF91CF911F91F4
:1003D0000F91FF90EF900895CF93DF93EC01888DFC
:1003E0008823C9F0EA89FB89808185FD05C0A88939
:1003F000B9898C9186FD0FC00FB607FCF5CF8081BF
:1004000085FFF2CFA889B9898C9185FFEDCFCE0108
:100410000E948401E7CFDF91CF91089580E090E0C2
:10042000892B29F00E947A0181110C940000089513
:1004300090E0FC01E458FF4F3491FC01E255FF4F7E
:100440002491FC01E656FF4FE491EE2309F43BC0F2
:10045000332339F1333091F038F43130A9F03230B0
:1004600001F584B58F7D12C0373091F03830A1F09E
:100470003430B9F4809180008F7D03C0809180007A
:100480008F77809380000DC084B58F7784BD09C0BD
:100490008091B0008F7703C08091B0008F7D8093F2
:1004A000B000F0E0EE0FFF1FEE58FF4FA591B491A2
:1004B0008FB7F894EC91611103C020952E2301C0F1
:1004C0002E2B2C938FBF08951F93CF93DF93182F5C
:1004D000D92F8091D102882319F060E0C1E002C0D9
:1004E00061E0C0E08091C5020E9418024091C902FB
:1004F0005091CA02149F9001159F300D1124233092
:10050000310530F0C901880F991F04970197F1F761
:100510006C2F8091C5020E9418022091C90230916F
:10052000CA02D29FC001D39F900D11248330910540
:1005300028F0880F991F04970197F1F7DF91CF9169
:100540001F910895CF93DF9390E0FC01E255FF4F98
:100550002491FC01E656FF4F8491882361F190E0DD
:10056000880F991FFC01E859FF4FC591D491FC01F8
:10057000EE58FF4FA591B491611109C09FB7F8944F
:100580008881209582238883EC912E230BC06230D2
:1005900061F49FB7F8943881822F809583238883F4
:1005A000EC912E2B2C939FBF06C08FB7F894E88157
:1005B0002E2B28838FBFDF91CF9108953FB7F894FA
:1005C0008091070290910802A0910902B0910A025D
:1005D00026B5A89B05C02F3F19F00196A11DB11D9E
:1005E0003FBFBA2FA92F982F8827820F911DA11DD9
:1005F000B11DBC01CD0143E0660F771F881F991F15
:100600004A95D1F708958F929F92AF92BF92CF9261
:10061000DF92EF92FF926B017C010E94DE024B01A0
:100620005C01C114D104E104F104F1F00E94DE0286
:10063000DC01CB0188199909AA09BB09883E9340BE
:10064000A105B10570F321E0C21AD108E108F10853
:1006500088EE880E83E0981EA11CB11CC114D10441
:10066000E104F10419F7DDCFFF90EF90DF90CF9018
:10067000BF90AF909F908F900895CF92DF92EF92AE
:10068000FF920F931F93CF93DF93CDB7DEB7C05484
:10069000D1400FB6F894DEBF0FBECDBF2FB7F89490
:1006A00080910C0290910D02A0910E02B0910F0268
:1006B0002FBF4091BA025091BB026091BC02709171
:1006C000BD028C019D01041B150B260B370BB901D4
:1006D000A801403D57406105710518F48091C202A0
:1006E000BCC08093BA029093BB02A093BC02B093AB
:1006F000BD021092B5021092B4021092B302109291
:10070000B2021092B10261E08091B6020E9418021A
:100710006AEF70E080E090E00E94030361E0809166
:10072000B6020E94A20260E08091B6020E94180206
:1007300064E170E080E090E00E940303F89461E0DF
:100740008091B6020E9418028CE490E00197F1F7C4
:1007500062E08091B6020E94A20280E190E00197DF
:10076000F1F780E00E94A700672B682B692B21F42A
:100770001092C20278943EC081E00E94A700672BCD
:10078000682B692BA9F38E010F5F1F4F6E012FEBB2
:10079000C21A2EEFD20A780180E00E94A700F7016A
:1007A000608371838283938381E00E94A700F701B5
:1007B0006483758386839783F8E0EF0EF11CEC1455
:1007C000FD0451F7789420E030E0F8014081518138
:1007D00062817381C480D580E680F7804115510520
:1007E0006105710529F0C114D104E104F10421F47B
:1007F0001092C20280E031C0F90183E0F595E795DF
:100800008A95E1F7EF54FD4F8081880F4C155D0507
:100810006E057F0508F4816080832F5F3F4F085F7E
:100820001F4F2832310589F62091B50230E0409102
:10083000B1028091B20290E0840F911D4091B30209
:10084000840F911D4091B402840F911D99272817A0
:10085000390771F681E08093C202C05CDE4F0FB6AB
:10086000F894DEBF0FBECDBFDF91CF911F910F91E6
:10087000FF90EF90DF90CF900895089541155105B6
:1008800029F4EAE7F0E080818F7780836A30710590
:10089000A9F063FD02C088E001C088E26770682BA0
:1008A00088E10FB6F894A895809360000FBE60931E
:1008B0006000E0E6F0E0808180648083232BA1F477
:1008C00083B7817F846083BFF89483B7816083BFDF
:1008D00085B7806685BF8F7D85BF7894889583B7FF
:1008E0008E7F83BF78940EC083B7817F846083BF7F
:1008F000F89483B7816083BF7894889583B78E7F9F
:1009000083BF7894452B29F4EAE7F0E08081806882
:10091000808308952F923F924F925F926F927F92C1
:100920008F929F92AF92BF92CF92DF92EF92FF92FF
:100930000F931F93CF93DF93CDB7DEB765970FB6B5
:10094000F894DEBF0FBECDBF0E94DE026B017C01BA
:1009500080910202909103022601481A590A2DEC57
:10096000421620E1520608F4F6C080917C01909175
:100970007D01A201481B590BCA0157FF03C0919585
:1009800081959109883C910508F0E1C080917A0138
:1009900090917B01019690937B0180937A0102975D
:1009A00009F0D5C092EC692E90E0792E01E010E0BC
:1009B00020907801309079013B862A8649E050E00A
:1009C000B301CE0101960E946E0B8C816B8168177A
:1009D00008F4682F70E080917C0190917D010E9465
:1009E000D60D9B014091040150910501649FC00107
:1009F000659F900D749F900D112464E670E00E9435
:100A0000D60D8985811103C0A1E0B0E002C0A2E04B
:100A1000B0E08D81829FA001839F500D11245D87DE
:100A20004C878E81829F1001839F300C11243F865A
:100A30002E868F81829FA001839F500D1124598B98
:100A4000488B8885829F1001839F300C11243B8A3C
:100A50002A8AFD01EE0FFF1FE458FE4F812C912CD6
:100A600054014A855B85415051095D8B4C8B8C89C3
:100A70009D89A817B90708F040C0880C991CAA1CCA
:100A8000BB1C80819181AC012C843D8442195309A7
:100A900057FF03C05195419551094617570770F408
:100AA000428153812E843F844219530957FF03C06A
:100AB00051954195510946175707E0F02888398824
:100AC0008219930997FF03C0919581959109861723
:100AD000970780F5828193814A895B89841B950BF6
:100AE00097FF03C09195819591098617970710F597
:100AF000689480F812963496BACF4A855B85483060
:100B00005105C0F08092AD029092AE02A092AF0269
:100B1000B092B0021C013694279430927701209253
:100B20007601309375012093740110937301009343
:100B3000720109C00F5F1F4F59E0650E711C07302D
:100B4000110509F035CF10927B0110927A011092B5
:100B50007901109278018091780190917901833424
:100B6000910540F0109279011092780110927B016A
:100B700010927A0180917801909179019C012F5F08
:100B80003F4F3093790120937801880F991FFC0122
:100B9000E458FE4F51824082C0920202D09203027A
:100BA000E0920402F092050265960FB6F894DEBF5B
:100BB0000FBECDBFDF91CF911F910F91FF90EF90AE
:100BC000DF90CF90BF90AF909F908F907F906F906D
:100BD0005F904F903F902F9008950E942810EF92C1
:100BE000FF920F931F93CF93DF93EC017B018A0158
:100BF00088819981009729F02A813B812417350744
:100C0000F8F4B8016F5F7F4F0E945E0F009759F0B4
:100C1000998388831B830A832C813D81232B81F454
:100C2000FC0110820DC088819981009711F00E940B
:100C3000C60E198218821D821C821B821A8207C06E
:100C40001D830C83B701888199810E943610CE01E3
:100C5000DF91CF911F910F91FF90EF900895FC01CC
:100C6000118210821382128215821482611571051D
:100C700051F0FB0101900020E9F73197AF01461BCD
:100C8000570B0C94EF050895EF92FF920F931F936B
:100C9000CF93DF93CDB7DEB7A2970FB6F894DEBF40
:100CA0000FBECDBF8C01CB01BA01F80111821082B9
:100CB000138212821582148230E0AE014F5F5F4FC3
:100CC0007A010E94770BF70101900020E9F7319734
:100CD000AF014E195F09B701C8010E94EF05A29646
:100CE0000FB6F894DEBF0FBECDBFDF91CF911F913D
:100CF0000F91FF90EF9008954F925F926F927F92C5
:100D00008F929F92AF92BF92CF92DF92EF92FF921B
:100D10000F931F93CF93DF9300D000D000D0CDB7B7
:100D2000DEB74B015C0129013A0181E291E00E94AA
:100D3000470B6B017C012AE0B501A401CE010196AD
:100D40000E944406CE0101960E94200189819A8169
:100D50000E94C60E2AE0B301A201CE0101960E94B4
:100D60004406CE0101960E94200189819A810E9449
:100D7000C60E8C149D04AE04BF0431F075016401ED
:100D8000C40CD51CE61CF71C67E271E0CE0101968D
:100D90000E942F06CE0101960E94200189819A812E
:100DA0000E94C60E2AE0B701A601CE0101960E945C
:100DB0004406CE0101960E94200189819A810E94F9
:100DC000C60E8091C5029091C602019609F48BC0AF
:100DD0000091C3021091C4020F3F8FEF1807B9F0C2
:100DE000023078F4013011F0E89801C0E998F80178
:100DF000FF27EE0FFF1FE050FF4F8DE394E091833C
:100E000080838FEF9FEF9093C4028093C302812C65
:100E1000912C412C512C320143948091C702909126
:100E2000C8028816990674F527E1A22EB12CD301C9
:100E3000C2010A2C04C0880F991FAA1FBB1F0A9465
:100E4000D2F78C219D21AE21BF21892B8A2B8B2BA0
:100E500029F08091CF029091D00204C08091CD0200
:100E60009091CE020E94640221E0A21AB108F8F625
:100E70008091CB029091CC020E9464022FEF821AE3
:100E8000920ACBCF0F3F8FEF180769F11093C4027E
:100E90000093C3021092AD021092AE021092AF0204
:100EA0001092B00210927701109276010230D8F4BD
:100EB000F801FF27EE0FFF1FE050FF4F2AE834E054
:100EC00031832083013041F0809169008C7F816003
:100ED00080936900E89A07C080916900837F8460ED
:100EE00080936900E99A26960FB6F894DEBF0FBE8C
:100EF000CDBFDF91CF911F910F91FF90EF90DF90C9
:100F0000CF90BF90AF909F908F907F906F905F90A9
:100F10004F9008951F920F920FB60F9211242F93A6
:100F20003F934F935F936F937F938F939F93AF9371
:100F3000BF93EF93FF9380E192E00E948401FF91C1
:100F4000EF91BF91AF919F918F917F916F915F9141
:100F50004F913F912F910F900FBE0F901F901895BA
:100F60001F920F920FB60F9211242F938F939F937E
:100F7000EF93FF93E0912002F09121028081E091B4
:100F80002602F091270282FD12C0908180912902F1
:100F90008F5F8F7320912A02821751F0E09129020E
:100FA000F0E0E05FFD4F958F8093290201C08081C2
:100FB000FF91EF919F918F912F910F900FBE0F9006
:100FC0001F9018951F920F920FB60F9211242F9316
:100FD0003F938F939F93AF93BF9380910C02909117
:100FE0000D02A0910E02B0910F023091060226E090
:100FF000230F2D3720F40296A11DB11D05C029E84D
:10100000230F0396A11DB11D2093060280930C02AD
:1010100090930D02A0930E02B0930F0280910702ED
:1010200090910802A0910902B0910A020196A11DB7
:10103000B11D8093070290930802A0930902B09318
:101040000A02BF91AF919F918F913F912F910F9085
:101050000FBE0F901F9018951F920F920FB60F9210
:1010600011242F933F934F935F936F937F938F93AD
:101070009F93AF93BF93EF93FF93E0910201F091A1
:1010800003010995FF91EF91BF91AF919F918F91CE
:101090007F916F915F914F913F912F910F900FBE74
:1010A0000F901F9018951F920F920FB60F92112458
:1010B0002F933F934F935F936F937F938F939F9360
:1010C000AF93BF93EF93FF93E0910001F091010183
:1010D0000995FF91EF91BF91AF919F918F917F9172
:1010E0006F915F914F913F912F910F900FBE0F9095
:1010F0001F9018951F920F920FB60F9211248F9385
:101100000FB6F894A8958091600088618093600084
:10111000109260000FBE8F910F900FBE0F901F9026
:1011200018950F931F93CF93DF93E0E1F2E01382C2
:10113000128288EE93E0A0E0B0E084839583A683DA
:10114000B78380E191E09183808385EC90E095877F
:10115000848784EC90E09787868780EC90E0918B81
:10116000808B81EC90E0938B828B82EC90E0958B6E
:10117000848B86EC90E0978B868B118E128E138E6B
:10118000148EC3ECD2E00FEF1FEF1B830A838AE0BB
:1011900090E09D838C8349E050E062EC70E089EC44
:1011A00092E00E946E0B198308838CE390E0909389
:1011B0000501809304011092AD021092AE021092CC
:1011C000AF021092B002A1EBB2E083E015968C93CF
:1011D000159786E116968C931697E1EBF0E0E49173
:1011E0001796EC931797EDE9F0E0E4911896EC93DD
:1011F000189740E45FE160E070E01D964D935D93C9
:101200006D937C935097DF91CF911F910F9108952B
:10121000CF93DF93CDB7DEB72A970FB6F894DEBF32
:101220000FBECDBF789484B5826084BD84B58160E3
:1012300084BD85B5826085BD85B5816085BD8091A1
:101240006E00816080936E00109281008091810019
:101250008260809381008091810081608093810011
:10126000809180008160809380008091B1008460D3
:101270008093B1008091B00081608093B000809134
:101280007A00846080937A0080917A0082608093F3
:101290007A0080917A008E7F80937A0080917A0024
:1012A000806880937A001092C100E0912002F09152
:1012B000210282E08083E0911C02F0911D021082E5
:1012C000E0911E02F0911F0287E6808310922802AF
:1012D000E0912402F091250286E08083E0912202D1
:1012E000F0912302808180618083E0912202F0915D
:1012F0002302808188608083E0912202F0912302A2
:10130000808180688083E0912202F09123028081B5
:101310008F7D808360E084E00E94A20260E087E02D
:101320000E94A20261E089E00E94A20261E089E0DD
:101330000E94180264EF71E080E090E00E940303D5
:1013400060E089E00E94180260E089E00E94A20249
:101350006BE271E0CE0101960E942F06CE0101964C
:101360000E94200189819A810E94C60E56E0252E96
:10137000312C61E087E00E94A20261E087E00E94D8
:1013800018023092C6022092C50261E086E00E94F7
:10139000A2028AE090E09093C8028093C70280E4A2
:1013A00091E00E94470B6B017C019EE490937C00CE
:1013B0006AE070E080E090E00E94030380917A0090
:1013C000806480937A0080917A0086FDFCCF8091C2
:1013D00078002091790030E0322F2227A901330FC5
:1013E000660B770B9A01AB01282B60E070E381E17B
:1013F00090E00E94EA0DCA01B901A70196010E947E
:101400007C0661E084E00E94A20261E084E00E9428
:10141000180262E08091B6020E94A20280E398EF77
:10142000AFEFBFEF8093BA029093BB02A093BC02D0
:10143000B093BD0264EF71E080E090E00E9403038E
:101440000E943D038823A9F18091B7028B3039F1C6
:1014500080F18551823068F56091B10270E080E0E2
:1014600090E00E94D80B20E030E040E853E40E9476
:10147000390C6B017C016091B20270E080E090E079
:101480000E94DA0B9B01AC01C701B6010E942F0D2F
:101490002DEC3CEC4CEC5DE30E94390C07C06091F4
:1014A000B10270E080E090E00E94D80B4B015C013B
:1014B00006C0812C912C90ECA92E9FE7B92E0E949A
:1014C0003D03882309F485C08091B7028B3029F051
:1014D000D8F18551823058F037C06091B30270E086
:1014E00080E090E00E94D80B6B017C0133C010912A
:1014F000B302612F6F7770E080E090E00E94DA0B1A
:1015000020E030E040E853E40E94390C6B017C019C
:101510006091B40270E080E090E00E94DA0B9B01E1
:10152000AC01C701B6010E942F0D2DEC3CEC4CEC38
:101530005DE30E94390C6B017C0117FF0BC0F7FAC9
:10154000F094F7F8F09406C0C12CD12C80ECE82E72
:101550008FE7F82EA5019401C501B4010E94D10DB9
:10156000811137C0A7019601C701B6010E94D10DB4
:1015700081112FC086E491E00E94470B2B013C01B2
:1015800020E030E040E251E4C501B4010E94390C92
:101590000E949B0D072E000C880B990BA301920152
:1015A0000E947C068CE491E00E94470B4B015C0199
:1015B00020E030E040E251E4C701B6010E94390C5E
:1015C0000E949B0D072E000C880B990BA50194011E
:1015D00034C062E571E0CE0101960E942F06CE0173
:1015E00001960E94200189819A810E94C60E86E49C
:1015F00091E00E94470B9B01AC0181E291E02F83B7
:10160000388749875A870E94470B2F81388549853B
:101610005A850E947C068CE491E00E94470B9B0156
:10162000AC0181E291E02F83388749875A870E9475
:10163000470B2F81388549855A850E947C0660E0DA
:1016400084E00E94180260E083E00E94A20260E051
:1016500084E00E94A202AFEFBFEFB093C602A09356
:10166000C50260E087E00E94A20204EB10E020E0E7
:1016700030E040E050E066E070E08BE092E00E94F5
:101680003E040150110999F70E940E0272CE1F9379
:10169000FC0199278827BC01E89411911032E9F3E5
:1016A000193010F01E30C8F31B3251F01D3249F4CE
:1016B000689406C00E94910B610F711D811D911DE0
:1016C000119110531A30B0F33EF4909580957095B7
:1016D00061957F4F8F4F9F4F1F910895FB01DC0154
:1016E00002C005900D9241505040D8F70895253220
:1016F000310520F4223010F00C94820BFA01108294
:10170000CA010895BB272A3051F4992342F4BDE25F
:1017100090958095709561957F4F8F4F9F4F0C945A
:10172000A70B592F482F372F262F660F771F881F9B
:10173000991F660F771F881F991F620F731F841FE1
:10174000951F660F771F881F991F0895BB27FA0101
:10175000A62F6217710581059105330B30FB66F0EA
:10176000AA27660F771F881F991FAA1FA21710F0BC
:10177000A21B63953850A9F7A05DAA3308F0A95DB4
:10178000A19336F7B111B1931082CA010C94C80B22
:10179000DC01FC01672F71917723E1F7329704C0D8
:1017A0007C916D9370836291AE17BF07C8F3089563
:1017B000E89409C097FB3EF49095809570956195EB
:1017C0007F4F8F4F9F4F9923A9F0F92F96E9BB27A1
:1017D0009395F695879577956795B795F111F8CF1D
:1017E000FAF4BB0F11F460FF1BC06F5F7F4F8F4F88
:1017F0009F4F16C0882311F096E911C0772321F07E
:101800009EE8872F762F05C0662371F096E8862F15
:1018100070E060E02AF09A95660F771F881FDAF76C
:10182000880F9695879597F90895990F0008550F99
:10183000AA0BE0E8FEEF16161706E807F907C0F056
:1018400012161306E407F50798F0621B730B840B5E
:10185000950B39F40A2661F0232B242B252B21F438
:1018600008950A2609F4A140A6958FEF811D811DD8
:1018700008950E944C0C0C94BD0C0E94AF0C38F0E3
:101880000E94B60C20F0952311F00C94A60C0C9439
:10189000AC0C11240C94F10C0E94CE0C70F3959FAB
:1018A000C1F3950F50E0551F629FF001729FBB2757
:1018B000F00DB11D639FAA27F00DB11DAA1F649FF3
:1018C0006627B00DA11D661F829F2227B00DA11DA6
:1018D000621F739FB00DA11D621F839FA00D611D2C
:1018E000221F749F3327A00D611D231F849F600D4D
:1018F000211D822F762F6A2F11249F5750409AF076
:10190000F1F088234AF0EE0FFF1FBB1F661F771F01
:10191000881F91505040A9F79E3F510580F00C94CC
:10192000A60C0C94F10C5F3FE4F3983ED4F386953B
:1019300077956795B795F795E7959F5FC1F7FE2B6C
:10194000880F911D9695879597F9089597F99F6748
:1019500080E870E060E008959FEF80EC0895002437
:101960000A941616170618060906089500240A9404
:1019700012161306140605060895092E0394000C8A
:1019800011F4882352F0BB0F40F4BF2B11F460FF19
:1019900004C06F5F7F4F8F4F9F4F089557FD905842
:1019A000440F551F59F05F3F71F04795880F97FB23
:1019B000991F61F09F3F79F08795089512161306DD
:1019C0001406551FF2CF4695F1DF08C0161617060C
:1019D0001806991FF1CF8695710561050894089541
:1019E000E894BB2766277727CB0197F908952F92B4
:1019F0003F924F925F926F927F928F929F92AF929F
:101A0000BF92CF92DF92EF92FF920F931F93CF93EB
:101A1000DF93CDB7DEB7CA1BDB0B0FB6F894DEBF82
:101A20000FBECDBF09942A88398848885F846E84A8
:101A30007D848C849B84AA84B984C884DF80EE80F2
:101A4000FD800C811B81AA81B981CE0FD11D0FB6FB
:101A5000F894DEBF0FBECDBFED0108955058BB27EF
:101A6000AA270E94460D0C94BD0C0E94AF0C38F0C2
:101A70000E94B60C20F039F49F3F19F426F40C9420
:101A8000AC0C0EF4E095E7FB0C94A60CE92F0E9439
:101A9000CE0C58F3BA17620773078407950720F036
:101AA00079F4A6F50C94F00C0EF4E0950B2EBA2FF9
:101AB000A02D0B01B90190010C01CA01A001112454
:101AC000FF27591B99F0593F50F4503E68F11A1600
:101AD000F040A22F232F342F4427585FF3CF469591
:101AE00037952795A795F0405395C9F77EF41F16B3
:101AF000BA0B620B730B840BBAF09150A1F0FF0F7D
:101B0000BB1F661F771F881FC2F70EC0BA0F621F68
:101B1000731F841F48F4879577956795B795F79558
:101B20009E3F08F0B0CF9395880F08F09927EE0FED
:101B30009795879508950E94A20D6894B1110C9411
:101B4000F10C08950E94D60C88F09F5798F0B92F99
:101B50009927B751B0F0E1F0660F771F881F991FE2
:101B60001AF0BA95C9F714C0B13091F00E94F00C88
:101B7000B1E008950C94F00C672F782F8827B85F98
:101B800039F0B93FCCF3869577956795B395D9F73A
:101B90003EF490958095709561957F4F8F4F9F4F44
:101BA00008950E94150C880B990B0895AA1BBB1B66
:101BB00051E107C0AA1FBB1FA617B70710F0A61B4D
:101BC000B70B881F991F5A95A9F780959095BC016E
:101BD000CD010895052E97FB1EF400940E94010E7E
:101BE00057FD07D00E94090E07FC03D04EF40C9459
:101BF000010E50954095309521953F4F4F4F5F4FC7
:101C0000089590958095709561957F4F8F4F9F4F68
:101C10000895A1E21A2EAA1BBB1BFD010DC0AA1F2D
:101C2000BB1FEE1FFF1FA217B307E407F50720F045
:101C3000A21BB30BE40BF50B661F771F881F991FC0
:101C40001A9469F760957095809590959B01AC0109
:101C5000BD01CF010895EE0FFF1F0590F491E02D17
:101C60000994CF93DF938230910510F482E090E0E5
:101C7000E091D402F091D50220E030E0C0E0D0E065
:101C8000309711F14081518148175907C0F048172A
:101C9000590761F482819381209719F09B838A838D
:101CA0002BC09093D5028093D40226C02115310514
:101CB00019F04217530718F49A01BE01DF01EF0132
:101CC0000280F381E02DDCCF2115310509F1281BBD
:101CD000390B2430310590F412968D919C91139715
:101CE0006115710521F0FB019383828304C09093F9
:101CF000D5028093D402FD01329644C0FD01E20F6B
:101D0000F31F81939193225031092D933C933AC054
:101D10002091D2023091D302232B41F4209108016B
:101D2000309109013093D3022093D2022091060111
:101D3000309107012115310541F42DB73EB740918F
:101D40000A0150910B01241B350BE091D202F09156
:101D5000D302E217F307A0F42E1B3F0B2817390715
:101D600078F0AC014E5F5F4F2417350748F04E0FF7
:101D70005F1F5093D3024093D2028193919302C08C
:101D8000E0E0F0E0CF01DF91CF9108950F931F9332
:101D9000CF93DF93009709F48CC0FC013297138234
:101DA00012820091D4021091D5020115110581F41F
:101DB00020813181820F931F2091D2023091D30272
:101DC0002817390779F5F093D302E093D20271C056
:101DD000D80140E050E0AE17BF0750F412962D91A5
:101DE0003C911397AD012115310509F1D901F3CFCC
:101DF0009D01DA013383228360817181860F971FF1
:101E00008217930769F4EC0128813981260F371F67
:101E10002E5F3F4F318320838A819B81938382830E
:101E2000452B29F4F093D502E093D40242C01396D7
:101E3000FC93EE931297ED01499159919E01240F65
:101E4000351FE217F30771F480819181840F951F8C
:101E5000029611969C938E938281938113969C9304
:101E60008E931297E0E0F0E0D80112968D919C914C
:101E70001397009719F0F8018C01F6CF8D919C9182
:101E800098012E5F3F4F820F931F2091D202309115
:101E9000D3022817390769F4309729F41092D50234
:101EA0001092D40202C0138212821093D3020093C4
:101EB000D202DF91CF911F910F910895A0E0B0E081
:101EC000E4E6FFE00C94FB0CEC01009721F4CB015D
:101ED0000E94310EB8C0FC01E60FF71F9C01225092
:101EE0003109E217F30708F4ACC0D9010D911C9138
:101EF000119706171707B0F00530110508F49FC0B9
:101F0000C80104978617970708F499C00250110971
:101F1000061B170B019311936D937C93CF010E94C5
:101F2000C60E8DC05B01A01AB10A4C01800E911E35
:101F3000A091D402B091D50240E050E0E12CF12C08
:101F4000109709F44AC0A815B905D1F56D907C9099
:101F50001197630182E0C80ED11CCA14DB0480F122
:101F6000A3014A195B096A0182E0C80ED11C1296CE
:101F7000BC9012971396AC91B5E0CB16D10440F00B
:101F8000B282A38351834083D9016D937C930AC0AD
:101F90000E5F1F4FC301800F911FF9019183808352
:101FA000EB2DFA2FE114F10431F0D7011396FC93D5
:101FB000EE93129744C0F093D502E093D4023FC051
:101FC0008D919C9111974817590708F4AC017D0138
:101FD00012960D90BC91A02DB3CF8091D20290911A
:101FE000D30288159905E1F446175707C8F4809184
:101FF000060190910701009741F48DB79EB740917B
:102000000A0150910B01841B950BE817F907C8F4DE
:10201000F093D302E093D202F901718360830FC081
:10202000CB010E94310E7C01009759F0A801BE013E
:102030000E942D10CE010E94C60EC70104C0CE0121
:1020400002C080E090E0CDB7DEB7EEE00C94170D53
:1020500081E090E0F8940C943D10FB01DC0102C09B
:1020600001900D9241505040D8F70895FB01DC01DA
:1020700001900D920020E1F70895F894FFCF3D0400
:102080003D043C000000D602800000000000A501D5
:10209000F5003D01EC016E014C0160010D0A0039B3
:1020A000393939390053756D005374617274206F7A
:1020B00066207468652070726F6772616D003635D6
:1020C0003030300036313030300036333030300090
:1020D0004661696C656420746F2072656164206676
:1020E000726F6D204448542073656E736F722100C7
:1020F000FFFFFFFFFFFFFFFFFFFFFFFFFFFFFFFFF0
:10210000FFFFFFFFFFFFFFFFFFFFFFFFFFFFFFFFDF
:10211000FFFFFFFFFFFFFFFFFFFFFFFFFFFFFFFFCF
:10212000FFFFFFFFFFFFFFFFFFFFFFFFFFFFFFFFBF
:107800000C94343C0C94513C0C94513C0C94513CE1
:107810000C94513C0C94513C0C94513C0C94513CB4
:107820000C94513C0C94513C0C94513C0C94513CA4
:107830000C94513C0C94513C0C94513C0C94513C94
:107840000C94513C0C94513C0C94513C0C94513C84
:107850000C94513C0C94513C0C94513C0C94513C74
:107860000C94513C0C94513C11241FBECFEFD8E036
:10787000DEBFCDBF11E0A0E0B1E0EAE8FFE702C063
:1078800005900D92A230B107D9F712E0A2E0B1E065
:1078900001C01D92AD30B107E1F70E942D3D0C945F
:1078A000C33F0C94003C982F95959595959595958B
:1078B000905D8F708A307CF0282F295A8091C0000B
:1078C00085FFFCCF9093C6008091C00085FFFCCF60
:1078D0002093C6000895282F205DF0CF982F809127
:1078E000C00085FFFCCF9093C6000895EF92FF92F1
:1078F0000F931F93EE24FF2487018091C00087FD22
:1079000017C00894E11CF11C011D111D81E2E8164D
:1079100081EAF80687E0080780E0180770F3E09135
:107920000401F091050109958091C00087FFE9CF1E
:107930008091C6001F910F91FF90EF9008950E94D3
:10794000763C982F8091C00085FFFCCF9093C600B5
:1079500091362CF490330CF09053892F089597555D
:10796000892F08951F930E949F3C182F0E949F3CCF
:107970001295107F810F1F9108951F93182F882350
:1079800021F00E94763C1150E1F71F9108951F935A
:10799000182F0E94763C803249F0809103018F5F5E
:1079A000809303018530C1F01F9108958091C0003C
:1079B00085FFFCCF84E18093C6008091C00085FFE5
:1079C000FCCF1093C6008091C00085FFFCCF80E102
:1079D0008093C6001F910895E0910401F091050184
:1079E00009951F9108950E94763C803241F0809164
:1079F00003018F5F80930301853081F008958091AA
:107A0000C00085FFFCCF84E18093C6008091C00058
:107A100085FFFCCF80E18093C6000895E0910401CA
:107A2000F09105010995089548EC50E08823A1F0F4
:107A30002D9A28EE33E0FA013197F1F721503040CA
:107A4000D1F72D9828EE33E0FA013197F1F7215064
:107A50003040D1F7815061F708953F924F925F9285
:107A60006F927F928F929F92AF92BF92CF92DF924E
:107A7000EF92FF920F931F93CF93DF93000082E06A
:107A80008093C00080E18093C4001092C50088E11B
:107A90008093C10086E08093C2005098589A259A3E
:107AA00081E00E94143D24E1F22E9EE1E92E85E959
:107AB000D82E0FE0C02E10E1B12EAA24A394B1E479
:107AC0009B2EA6E58A2EF2E57F2EE0E26E2E79E46B
:107AD000572E63E5462E50E5352E0E94763C8033C6
:107AE000B1F18133B9F1803409F46FC0813409F404
:107AF00076C0823409F485C0853409F488C08035A5
:107B000031F1823521F1813511F1853509F485C0D6
:107B1000863509F48DC0843609F496C0843709F49B
:107B200003C1853709F472C1863709F466C08091B4
:107B300003018F5F80930301853079F6E0910401A2
:107B4000F091050109950E94763C803351F60E9420
:107B5000F33CC3CF0E94763C803249F78091C0004D
:107B600085FFFCCFF092C6008091C00085FFFCCF5E
:107B70009092C6008091C00085FFFCCF8092C60025
:107B80008091C00085FFFCCF7092C6008091C0003C
:107B900085FFFCCF6092C6008091C00085FFFCCFBE
:107BA0005092C6008091C00085FFFCCF4092C60075
:107BB0008091C00085FFFCCF3092C6008091C0004C
:107BC00085FFFCCFB092C60088CF0E94763C8638F5
:107BD00008F4BDCF0E94763C0E94F33C7ECF0E9409
:107BE000763C803809F49CC0813809F40BC1823896
:107BF00009F430C1883909F48FC080E00E94C73C85
:107C00006CCF84E10E94BD3C0E94F33C66CF85E0CE
:107C10000E94BD3C0E94F33C60CF0E94763C809362
:107C200006010E94763C809307010E94F33C55CFE9
:107C30000E94763C803309F411C183E00E94BD3C70
:107C400080E00E94C73C49CF0E94763C80930902A5
:107C50000E94763C8093080280910C028E7F809374
:107C60000C020E94763C853409F409C18091080217
:107C700090910902892B89F000E010E00E94763C87
:107C8000F801E85FFE4F80830F5F1F4F809108026D
:107C9000909109020817190788F30E94763C8032F8
:107CA00009F045CF80910C0280FFF5C0609106017C
:107CB00070910701660F771F7093070160930601AB
:107CC000A0910802B09109021097C9F0E8E0F1E034
:107CD0009B01AD014E0F5F1FF999FECF32BD21BD53
:107CE000819180BDFA9AF99A2F5F3F4FE417F5070B
:107CF00099F76A0F7B1F70930701609306018091CB
:107D0000C00085FFFCCFF092C6008091C00085FFC7
:107D1000FCCFB092C600E1CE83E00E94C73CDDCE2E
:107D200082E00E94C73CD9CE0E94763C8093090233
:107D30000E94763C80930802809106019091070191
:107D4000880F991F90930701809306010E94763C4B
:107D5000853409F49AC080910C028E7F80930C02C6
:107D60000E94763C803209F0B8CE8091C00085FF39
:107D7000FCCFF092C600A0910802B09109021097C2
:107D8000C1F180910C02082F0170182F1695117007
:107D9000E0910601F0910701AF014F5F5F4FBA011B
:107DA00020E030E00023B1F4112339F49491809164
:107DB000C00085FFFCCF9093C6002F5F3F4FCB01E3
:107DC0000196FA012A173B0780F4BC014F5F5F4F11
:107DD000002351F3F999FECFF2BDE1BDF89A90B5B9
:107DE0008091C00085FFFCCFE6CF709307016093C0
:107DF00006018091C00085FDE5CE8091C00085FF21
:107E0000F8CFE0CE81E00E94C73C67CE0E94763C6E
:107E1000803209F08CCE8091C00085FFFCCFF092BB
:107E2000C6008091C00085FFFCCFE092C600809123
:107E3000C00085FFFCCFD092C6008091C00085FFB6
:107E4000FCCFC092C6008091C00085FFFCCFB092ED
:107E5000C60043CE80E10E94C73C3FCE0E94763CE4
:107E60000E94763C182F0E94763C112309F483C0AF
:107E7000113009F484C08FE00E94C73C2ECE80915F
:107E80000C02816080930C02F1CE80910C02816023
:107E900080930C0265CF809107018823880F880B9F
:107EA0008A2180930B028091060190910701880F2F
:107EB000991F90930701809306018091080280FF2B
:107EC00009C08091080290910902019690930902DD
:107ED00080930802F894F999FECF1127E0910601EA
:107EE000F0910701C8E0D1E0809108029091090269
:107EF000103091F40091570001700130D9F303E084
:107F000000935700E8950091570001700130D9F3B4
:107F100001E100935700E8950990199000915700EE
:107F200001700130D9F301E000935700E8951395F3
:107F3000103498F011270091570001700130D9F3E7
:107F400005E000935700E89500915700017001305B
:107F5000D9F301E100935700E8953296029709F0B2
:107F6000C7CF103011F00296E5CF11248091C000E8
:107F700085FFC5CEC8CE8EE10E94C73CAECD85E957
:107F80000E94C73CAACDF894FFCF8000FFFFFFFFFF
:107F9000FFFFFFFFFFFFFFFFFFFFFFFFFFFFFFFFF1
:107FA000FFFFFFFFFFFFFFFFFFFFFFFFFFFFFFFFE1
:107FB000FFFFFFFFFFFFFFFFFFFFFFFFFFFFFFFFD1
:107FC000FFFFFFFFFFFFFFFFFFFFFFFFFFFFFFFFC1
:107FD000FFFFFFFFFFFFFFFFFFFFFFFFFFFFFFFFB1
:107FE000FFFFFFFFFFFFFFFFFFFFFFFFFFFFFFFFA1
:107FF000FFFFFFFFFFFFFFFFFFFFFFFFFFFFFFFF91
:00000001FF
