:100000000C947D000C947D080C9456080C94A5006B
:100010000C94A5000C94A5000C94A4080C94A500C5
:100020000C94A5000C94A5000C94A5000C94A500BC
:100030000C94A5000C94A5000C94A5000C94A500AC
:100040000C940C080C94A5000C94DA070C94B407DB
:100050000C94A5000C94A5000C94A5000C94A5008C
:100060000C94A5000C94A5000000000024002700BB
:100070002A0000000000250028002B0000000008D6
:10008000000201000003040700000000000000005F
:1000900000000000230026002900040404040404D6
:1000A0000404020202020202030303030303010227
:1000B00004081020408001020408102001020408F6
:1000C00010205E01011F01030301008A02010A01E1
:1000D0000202010064001E47040B0906007C0101B6
:1000E000060103030100F401060E0102020100C231
:1000F0000117010102020101BB0811241FBECFEF4D
:10010000D8E0DEBFCDBF22E0ACE7B1E001C01D9278
:10011000A03EB207E1F711E0A0E0B1E0E4EBF0E2CD
:1001200002C005900D92AC37B107D9F710E0CDE7CA
:10013000D0E004C02197FE010E94460ECC37D107C3
:10014000C9F70E9432090C9458100C9400008F9249
:100150009F92AF92BF92CF92DF92EF92FF92CF9396
:10016000DF93A091C202882311F03A2F01C030E042
:100170008091C30290E0880F991F80579F4FC090D5
:10018000C802D090C902E090CA02F090CB0240E0D1
:1001900050E0BA01FC01C591D49128812A23231390
:1001A0000FC04A015B012FEF821A920AA20AB20A1B
:1001B0004C155D056E057F0538F4B501A401EACF45
:1001C000342F252FCB0104C030E020E080E090E008
:1001D000632F722FDF91CF91FF90EF90DF90CF9040
:1001E000BF90AF909F908F900895CF92DF92EF9243
:1001F000FF920F931F93CF93DF936C017A018B01D2
:10020000C0E0D0E0CE15DF0589F0D8016D918D01F9
:10021000D601ED91FC910190F081E02DC601099588
:10022000892B11F47E0102C02196ECCFC701DF912A
:10023000CF911F910F91FF90EF90DF90CF90089595
:10024000089580E090E00895FC01538D448D252FA2
:1002500030E0842F90E0821B930B541710F0CF9660
:10026000089501970895FC01918D828D981761F092
:10027000828DDF01A80FB11D5D968C91928D9F5FDD
:100280009F73928F90E008958FEF9FEF0895FC0188
:10029000918D828D981731F0828DE80FF11D858D3B
:1002A00090E008958FEF9FEF0895FC01918D228DCE
:1002B000892F90E0805C9F4F821B91098F73992753
:1002C00008958AE192E00E94550121E0892B09F40A
:1002D00020E0822F0895FC01848DDF01A80FB11D5D
:1002E000A35ABF4F2C91848D90E001968F7399276C
:1002F000848FA689B7892C93A089B1898C91806459
:100300008C93938D848D981306C00288F389E02D19
:1003100080818F7D80830895EF92FF920F931F93CA
:10032000CF93DF93EC0181E0888F9B8D8C8D9813A8
:1003300005C0E889F989808185FD24C0F62E0B8DE2
:1003400010E00F5F1F4F0F731127E02E8C8DE81206
:100350000CC00FB607FCFACFE889F989808185FFC8
:10036000F5CFCE010E946B01F1CF8B8DFE01E80F1E
:10037000F11DE35AFF4FF0820B8FEA89FB898081E0
:10038000806207C0EE89FF896083E889F9898081EE
:100390008064808381E090E0DF91CF911F910F9185
:1003A000FF90EF900895CF93DF93EC01888D882321
:1003B000C9F0EA89FB89808185FD05C0A889B989D2
:1003C0008C9186FD0FC00FB607FCF5CF808185FFAD
:1003D000F2CFA889B9898C9185FFEDCFCE010E941B
:1003E0006B01E7CFDF91CF91089580E090E0892BFA
:1003F00029F00E94610181110C940000089590E0A1
:10040000FC01E458FF4F3491FC01E255FF4F249169
:10041000FC01E656FF4FE491EE2309F43BC0332381
:1004200039F1333091F038F43130A9F0323001F540
:1004300084B58F7D12C0373091F03830A1F0343060
:10044000B9F4809180008F7D03C0809180008F7708
:10045000809380000DC084B58F7784BD09C08091E2
:10046000B0008F7703C08091B0008F7D8093B00083
:10047000F0E0EE0FFF1FEE58FF4FA591B4918FB73C
:10048000F894EC91611103C020952E2301C02E2B0E
:100490002C938FBF08951F93CF93DF93182FD92FDD
:1004A0008091DB02882319F060E0C1E002C061E0C6
:1004B000C0E08091CF020E94FF014091D302509191
:1004C000D402149F9001159F300D11242230310564
:1004D00040F0C901880F991F880F991F0597019750
:1004E000F1F76C2F8091CF020E94FF012091D3027F
:1004F0003091D402D29FC001D39F900D112482303D
:10050000910538F0880F991F880F991F059701975B
:10051000F1F7DF91CF911F910895CF93DF9390E092
:10052000FC01E255FF4F2491FC01E656FF4F8491F8
:10053000882361F190E0880F991FFC01E859FF4F73
:10054000C591D491FC01EE58FF4FA591B491611172
:1005500009C09FB7F8948881209582238883EC9105
:100560002E230BC0623061F49FB7F8943881822F3C
:10057000809583238883EC912E2B2C939FBF06C0FC
:100580008FB7F894E8812E2B28838FBFDF91CF910E
:1005900008953FB7F8948091110290911202A091B2
:1005A0001302B091140226B5A89B05C02F3F19F085
:1005B0000196A11DB11D3FBFBA2FA92F982F8827E3
:1005C000820F911DA11DB11DBC01CD0142E0660F3E
:1005D000771F881F991F4A95D1F708958F929F9290
:1005E000AF92BF92CF92DF92EF92FF926B017C01AC
:1005F0000E94C9024B015C01C114D104E104F10461
:10060000F1F00E94C902DC01CB0188199909AA09FD
:10061000BB09883E9340A105B10570F321E0C21AE1
:10062000D108E108F10888EE880E83E0981EA11C2D
:10063000B11CC114D104E104F10419F7DDCFFF901E
:10064000EF90DF90CF90BF90AF909F908F900895E4
:10065000CF92DF92EF92FF920F931F93CF93DF938E
:10066000CDB7DEB7C054D1400FB6F894DEBF0FBE91
:10067000CDBF2FB7F8948091160290911702A091E8
:100680001802B09119022FBF4091C4025091C502C7
:100690006091C6027091C7028C019D01041B150B6D
:1006A000260B370BB901A801403D57406105710584
:1006B00018F48091CC02BCC08093C4029093C50210
:1006C000A093C602B093C7021092BF021092BE025E
:1006D0001092BD021092BC021092BB0261E08091A8
:1006E000C0020E94FF016AEF70E080E090E00E948B
:1006F000EE0261E08091C0020E948D0260E0809174
:10070000C0020E94FF0164E170E080E090E00E947E
:10071000EE02F89461E08091C0020E94FF018BE933
:1007200090E00197F1F762E08091C0020E948D0293
:1007300083E290E00197F1F780E00E94A700672B29
:10074000682B692B21F41092CC0278943EC081E092
:100750000E94A700672B682B692BA9F38E010F5FFE
:100760001F4F6E012FEBC21A2EEFD20A780180E0E4
:100770000E94A700F701608371838283938381E0E5
:100780000E94A700F7016483758386839783F8E04E
:10079000EF0EF11CEC14FD0451F7789420E030E0EA
:1007A000F8014081518162817381C480D580E680E7
:1007B000F780411551056105710529F0C114D10477
:1007C000E104F10421F41092CC0280E031C0F9017F
:1007D00083E0F595E7958A95E1F7E554FD4F808133
:1007E000880F4C155D056E057F0508F481608083D8
:1007F0002F5F3F4F085F1F4F2832310589F6209148
:10080000BF0230E04091BB028091BC0290E0840FB7
:10081000911D4091BD02840F911D4091BE02840F35
:10082000911D99272817390771F681E08093CC0232
:10083000C05CDE4F0FB6F894DEBF0FBECDBFDF91B8
:10084000CF911F910F91FF90EF90DF90CF9008957F
:1008500008954115510529F4EAE7F0E080818F778A
:1008600080836A307105A9F063FD02C088E001C091
:1008700088E26770682B88E10FB6F894A89580939A
:1008800060000FBE60936000E0E6F0E0808180646D
:100890008083232BA1F483B7817F846083BFF89486
:1008A00083B7816083BF85B7806685BF8F7D85BF35
:1008B0007894889583B78E7F83BF78940EC083B772
:1008C000817F846083BFF89483B7816083BF78940D
:1008D000889583B78E7F83BF7894452B29F4EAE708
:1008E000F0E08081806880830895FC014481558117
:1008F000608171818AE192E00E94F50042E050E05F
:100900006EE171E08AE192E00C94F5008EE4809350
:100910007C006AE070E080E090E00E94EE0280914E
:100920007A00806480937A0080917A0086FDFCCF03
:10093000809178002091790030E0322F2227A901A0
:10094000330F660B770B9A01AB01282B60E070E345
:1009500081E190E00E94050ECA01B90108952F922D
:100960003F924F925F926F927F928F929F92AF923F
:10097000BF92CF92DF92EF92FF920F931F93CF938C
:10098000DF93CDB7DEB765970FB6F894DEBF0FBE25
:10099000CDBF0E94C9026B017C0180910C02909135
:1009A0000D022601481A590A2DEC421620E1520682
:1009B00008F4F6C08091860190918701A201481B3E
:1009C000590BCA0157FF03C0919581959109883C45
:1009D000910508F0E1C08091840190918501019614
:1009E0009093850180938401029709F0D5C092EC21
:1009F000692E90E0792E01E010E020908201309085
:100A000083013B862A8649E050E0B301CE0101967E
:100A10000E94890B8C816B81681708F4682F70E045
:100A200080918601909187010E94F10D9B01409178
:100A3000040150910501649FC001659F900D749F52
:100A4000900D112464E670E00E94F10D89858111FA
:100A500003C0A1E0B0E002C0A2E0B0E08D81829FBF
:100A6000A001839F500D11245D874C878E81829F4A
:100A70001001839F300C11243F862E868F81829F28
:100A8000A001839F500D1124598B488B8885829F2C
:100A90001001839F300C11243B8A2A8AFD01EE0F3E
:100AA000FF1FEA57FE4F812C912C54014A855B852C
:100AB000415051095D8B4C8B8C899D89A817B907D2
:100AC00008F040C0880C991CAA1CBB1C8081918135
:100AD000AC012C843D844219530957FF03C0519542
:100AE000419551094617570770F4428153812E846E
:100AF0003F844219530957FF03C05195419551094D
:100B000046175707E0F0288839888219930997FF1C
:100B100003C09195819591098617970780F5828189
:100B200093814A895B89841B950B97FF03C091953C
:100B3000819591098617970710F5689480F81296A9
:100B40003496BACF4A855B8548305105C0F0809213
:100B5000B7029092B802A092B902B092BA021C01F8
:100B600036942794309281012092800130937F0146
:100B700020937E0110937D0100937C0109C00F5FDB
:100B80001F4F59E0650E711C0730110509F035CF74
:100B900010928501109284011092830110928201BB
:100BA00080918201909183018334910540F01092ED
:100BB000830110928201109285011092840180912C
:100BC0008201909183019C012F5F3F4F30938301FD
:100BD00020938201880F991FFC01EA57FE4F518232
:100BE0004082C0920C02D0920D02E0920E02F0926E
:100BF0000F0265960FB6F894DEBF0FBECDBFDF9132
:100C0000CF911F910F91FF90EF90DF90CF90BF9009
:100C1000AF909F908F907F906F905F904F903F909C
:100C20002F9008950E944310FC01808191810C94C3
:100C3000E10EEF92FF920F931F93CF93DF93EC019E
:100C40007B018A0188819981009729F02A813B8163
:100C500024173507F8F4B8016F5F7F4F0E94790FB2
:100C6000009759F0998388831B830A832C813D81E7
:100C7000232B81F4FC0110820DC08881998100979B
:100C800011F00E94E10E198218821D821C821B82C3
:100C90001A8207C01D830C83B701888199810E9445
:100CA0005110CE01DF91CF911F910F91FF90EF90E6
:100CB0000895EF92FF920F931F93CF93DF93CDB7D9
:100CC000DEB7A2970FB6F894DEBF0FBECDBF8C0182
:100CD000CB01BA01F80111821082138212821582AF
:100CE000148230E0AE014F5F5F4F7A010E94920B99
:100CF000F70101900020E9F73197AF014E195F0924
:100D0000B701C8010E941906A2960FB6F894DEBF7B
:100D10000FBECDBFDF91CF911F910F91FF90EF904C
:100D20000895FC01118210821382128215821482AE
:100D30006115710551F0FB0101900020E9F7319731
:100D4000AF01461B570B0C94190608954F925F9202
:100D50006F927F928F929F92AF92BF92CF92DF92CB
:100D6000EF92FF920F931F93CF93DF9300D000D0A9
:100D700000D0CDB7DEB74B015C0129013A0181E219
:100D800091E00E94620B6B017C012AE0B501A40195
:100D9000CE0101960E945906CE0101960E9475046B
:100DA000CE0101960E9414062AE0B301A201CE01F1
:100DB00001960E945906CE0101960E947504CE014B
:100DC00001960E9414068C149D04AE04BF0431F0F9
:100DD00075016401C40CD51CE61CF71C67E271E0C8
:100DE000CE0101960E949106CE0101960E947504E3
:100DF000CE0101960E9414062AE0B701A601CE0199
:100E000001960E945906CE0101960E947504CE01FA
:100E100001960E9414068091CF029091D002019613
:100E200009F48BC00091CD021091CE020F3F8FEFDD
:100E30001807B9F0023078F4013011F0E89801C0D9
:100E4000E998F801FF27EE0FFF1FE050FF4F88E2FF
:100E500094E0918380838FEF9FEF9093CE028093F5
:100E6000CD02812C912C412C512C32014394809144
:100E7000D1029091D2028816990674F527E1A22E2C
:100E8000B12CD301C2010A2C04C0880F991FAA1FDC
:100E9000BB1F0A94D2F78C219D21AE21BF21892B43
:100EA0008A2B8B2B29F08091D9029091DA0204C011
:100EB0008091D7029091D8020E944B0221E0A21AA1
:100EC000B108F8F68091D5029091D6020E944B02AB
:100ED0002FEF821A920ACBCF0F3F8FEF180769F1DD
:100EE0001093CE020093CD021092B7021092B80276
:100EF0001092B9021092BA021092810110928001F0
:100F00000230D8F4F801FF27EE0FFF1FE050FF4F2B
:100F10002FEA34E031832083013041F08091690071
:100F20008C7F816080936900E89A07C08091690096
:100F3000837F846080936900E99A26960FB6F894BF
:100F4000DEBF0FBECDBFDF91CF911F910F91FF90FC
:100F5000EF90DF90CF90BF90AF909F908F907F9059
:100F60006F905F904F9008951F920F920FB60F925F
:100F700011242F933F934F935F936F937F938F939E
:100F80009F93AF93BF93EF93FF938AE192E00E9408
:100F90006B01FF91EF91BF91AF919F918F917F91E5
:100FA0006F915F914F913F912F910F900FBE0F90D6
:100FB0001F9018951F920F920FB60F9211242F9326
:100FC0008F939F93EF93FF93E0912A02F0912B026E
:100FD0008081E0913002F091310282FD12C0908157
:100FE000809133028F5F8F7320913402821751F00A
:100FF000E0913302F0E0E65EFD4F958F809333027F
:1010000001C08081FF91EF919F918F912F910F905F
:101010000FBE0F901F9018951F920F920FB60F9250
:1010200011242F933F938F939F93AF93BF938091FE
:10103000160290911702A0911802B09119023091F6
:10104000100223E0230F2D3720F40196A11DB11DBE
:1010500005C026E8230F0296A11DB11D20931002A2
:101060008093160290931702A0931802B09319026E
:101070008091110290911202A0911302B09114027A
:101080000196A11DB11D8093110290931202A093AD
:101090001302B0931402BF91AF919F918F913F9132
:1010A0002F910F900FBE0F901F9018951F920F92C7
:1010B0000FB60F9211242F933F934F935F936F932B
:1010C0007F938F939F93AF93BF93EF93FF93E091A1
:1010D0000201F09103010995FF91EF91BF91AF914A
:1010E0009F918F917F916F915F914F913F912F9140
:1010F0000F900FBE0F901F9018951F920F920FB672
:101100000F9211242F933F934F935F936F937F938D
:101110008F939F93AF93BF93EF93FF93E091000161
:10112000F09101010995FF91EF91BF91AF919F91CE
:101130008F917F916F915F914F913F912F910F9080
:101140000FBE0F901F9018951F920F920FB60F921F
:1011500011248F930FB6F894A89580916000886150
:1011600080936000109260000FBE8F910F900FBEB1
:101170000F901F9018950F931F93CF93DF93EAE181
:10118000F2E01382128288EE93E0A0E0B0E0848364
:101190009583A683B78380E191E09183808385EC7A
:1011A00090E09587848784EC90E09787868780EC31
:1011B00090E0918B808B81EC90E0938B828B82EC22
:1011C00090E0958B848B86EC90E0978B868B118ECC
:1011D000128E138E148ECDECD2E00FEF1FEF1B8317
:1011E0000A838AE090E09D838C8349E050E062ECC2
:1011F00070E083ED92E00E94890B198308838CE3F1
:1012000090E090930501809304011092B702109230
:10121000B8021092B9021092BA02ABEBB2E083E0CE
:1012200015968C93159786E116968C931697E1EB9D
:10123000F0E0E4911796EC931797EDE9F0E0E49174
:101240001896EC93189740E85EE360E070E01D9616
:101250004D935D936D937C935097DF91CF911F9148
:101260000F910895CF93DF93CDB7DEB72A970FB6CE
:10127000F894DEBF0FBECDBF789484B5826084BD84
:1012800084B5816084BD85B5826085BD85B581608A
:1012900085BD80916E00816080936E001092810008
:1012A00080918100826080938100809181008160C3
:1012B0008093810080918000816080938000809184
:1012C000B10084608093B1008091B0008160809310
:1012D000B00080917A00846080937A0080917A00D7
:1012E000826080937A0080917A00816080937A0096
:1012F00080917A00806880937A001092C100E0911A
:101300002A02F0912B0282E08083E0912602F09184
:1013100027021082E0912802F09129028FEC80834D
:1013200010923202E0912E02F0912F0286E080832B
:10133000E0912C02F0912D02808180618083E09108
:101340002C02F0912D02808188608083E0912C0234
:10135000F0912D02808180688083E0912C02F091D1
:101360002D0280818F7D808360E084E00E948D0269
:1013700060E087E00E948D0261E089E00E948D02BA
:1013800061E089E00E94FF0164EF71E080E090E09D
:101390000E94EE0260E089E00E94FF0160E089E0C7
:1013A0000E948D026BE271E0CE0101960E949106CF
:1013B000CE0101960E947504CE0101960E9414068A
:1013C0003AE0232E312C0FEF1FEF61E087E00E94FF
:1013D0008D0261E087E00E94FF0186E090E090933B
:1013E000D0028093CF0261E00E948D023092D2023F
:1013F0002092D1020E948604605C7E4FCE0101964D
:101400000E949106CE0101960E947504CE010196BC
:101410000E9414068AE491E00E94620B9B01AC01D9
:101420006F83388749875A870E9486042F813885C1
:1014300049855A850E94A60661E084E00E948D02DB
:1014400061E084E00E94FF0162E08091C0020E949E
:101450008D0280E398EFAFEFBFEF8093C4029093CB
:10146000C502A093C602B093C70264EF71E080E0AA
:1014700090E00E94EE020E9428038823A9F1809147
:10148000C1028B3039F180F18551823068F560916D
:10149000BB0270E080E090E00E94F30B20E030E0BF
:1014A00040E853E40E94540C6B017C016091BC0243
:1014B00070E080E090E00E94F50B9B01AC01C70159
:1014C000B6010E944A0D2DEC3CEC4CEC5DE30E9411
:1014D000540C07C06091BB0270E080E090E00E9475
:1014E000F30B4B015C0106C0812C912C20ECA22E49
:1014F0002FE7B22E0E942803882309F456C080915A
:10150000C1028B3029F0D8F18551823058F037C0B4
:101510006091BD0270E080E090E00E94F30B6B01EF
:101520007C0133C07090BD02672D6F7770E080E062
:1015300090E00E94F50B20E030E040E853E40E9488
:10154000540C6B017C016091BE0270E080E090E081
:101550000E94F50B9B01AC01C701B6010E944A0D28
:101560002DEC3CEC4CEC5DE30E94540C6B017C01D7
:1015700077FE0BC0F7FAF094F7F8F09406C0C12C90
:10158000D12C90ECE92E9FE7F92EA5019401C5011D
:10159000B4010E94EC0D811108C0A7019601C7019A
:1015A000B6010E94EC0D8823A9F160E571E0CE013F
:1015B00001960E949106CE0101960E947504CE010B
:1015C00001960E94140680E791E00E94620B9B0145
:1015D000AC0181E291E02F83388749875A870E94C6
:1015E000620B2F81388549855A850E94A60686E7B9
:1015F00091E00E94620B9B01AC0181E291E02F839C
:10160000388749875A870E94620B2F813885498520
:101610005A852EC080E791E00E94620B2B013C01AD
:1016200020E030E040E251E4C501B4010E94540CD6
:101630000E94B60D072E000C880B990BA301920196
:101640000E94A60686E791E00E94620B4B015C01B6
:1016500020E030E040E251E4C701B6010E94540CA2
:101660000E94B60D072E000C880B990BA501940162
:101670000E94A60660E084E00E94FF0160E083E033
:101680000E948D0260E084E00E948D021093D002DF
:101690000093CF0260E087E00E948D028AE0E82E8E
:1016A000F12C20E030E040E050E066E070E085E1C1
:1016B00092E00E94290491E0E91AF10891F70E9452
:1016C000F50183CE1F93FC0199278827BC01E8947C
:1016D00011911032E9F3193010F01E30C8F31B32AB
:1016E00051F01D3249F4689406C00E94AC0B610FA2
:1016F000711D811D911D119110531A30B0F33EF4EC
:1017000090958095709561957F4F8F4F9F4F1F915A
:101710000895FB01DC0102C005900D92415050403C
:10172000D8F708952532310520F4223010F00C94BA
:101730009D0BFA011082CA010895BB272A3051F48B
:10174000992342F4BDE290958095709561957F4F05
:101750008F4F9F4F0C94C20B592F482F372F262F96
:10176000660F771F881F991F660F771F881F991FA5
:10177000620F731F841F951F660F771F881F991FA5
:101780000895BB27FA01A62F6217710581059105FF
:10179000330B30FB66F0AA27660F771F881F991F4F
:1017A000AA1FA21710F0A21B63953850A9F7A05DDD
:1017B000AA3308F0A95DA19336F7B111B193108255
:1017C000CA010C94E30BDC01FC01672F71917723B4
:1017D000E1F7329704C07C916D9370836291AE17EC
:1017E000BF07C8F30895E89409C097FB3EF49095AD
:1017F0008095709561957F4F8F4F9F4F9923A9F0EA
:10180000F92F96E9BB279395F69587957795679578
:10181000B795F111F8CFFAF4BB0F11F460FF1BC0BC
:101820006F5F7F4F8F4F9F4F16C0882311F096E94F
:1018300011C0772321F09EE8872F762F05C06623FD
:1018400071F096E8862F70E060E02AF09A95660FB6
:10185000771F881FDAF7880F9695879597F908956F
:10186000990F0008550FAA0BE0E8FEEF16161706B1
:10187000E807F907C0F012161306E407F50798F019
:10188000621B730B840B950B39F40A2661F0232B32
:10189000242B252B21F408950A2609F4A140A695AE
:1018A0008FEF811D811D08950E94670C0C94D80C48
:1018B0000E94CA0C38F00E94D10C20F0952311F040
:1018C0000C94C10C0C94C70C11240C940C0D0E94A8
:1018D000E90C70F3959FC1F3950F50E0551F629F7F
:1018E000F001729FBB27F00DB11D639FAA27F00D79
:1018F000B11DAA1F649F6627B00DA11D661F829FA0
:101900002227B00DA11D621F739FB00DA11D621F84
:10191000839FA00D611D221F749F3327A00D611DA1
:10192000231F849F600D211D822F762F6A2F112483
:101930009F5750409AF0F1F088234AF0EE0FFF1FB6
:10194000BB1F661F771F881F91505040A9F79E3F0D
:10195000510580F00C94C10C0C940C0D5F3FE4F326
:10196000983ED4F3869577956795B795F795E79563
:101970009F5FC1F7FE2B880F911D9695879597F96C
:10198000089597F99F6780E870E060E008959FEF01
:1019900080EC089500240A94161617061806090606
:1019A000089500240A9412161306140605060895D5
:1019B000092E0394000C11F4882352F0BB0F40F45D
:1019C000BF2B11F460FF04C06F5F7F4F8F4F9F4F9D
:1019D000089557FD9058440F551F59F05F3F71F01F
:1019E0004795880F97FB991F61F09F3F79F0879586
:1019F0000895121613061406551FF2CF4695F1DF0F
:101A000008C0161617061806991FF1CF869571059E
:101A1000610508940895E894BB2766277727CB01D2
:101A200097F908952F923F924F925F926F927F9213
:101A30008F929F92AF92BF92CF92DF92EF92FF92DE
:101A40000F931F93CF93DF93CDB7DEB7CA1BDB0B8A
:101A50000FB6F894DEBF0FBECDBF09942A8839882F
:101A600048885F846E847D848C849B84AA84B98436
:101A7000C884DF80EE80FD800C811B81AA81B98142
:101A8000CE0FD11D0FB6F894DEBF0FBECDBFED0156
:101A900008955058BB27AA270E94610D0C94D80CBA
:101AA0000E94CA0C38F00E94D10C20F039F49F3FFC
:101AB00019F426F40C94C70C0EF4E095E7FB0C9493
:101AC000C10CE92F0E94E90C58F3BA17620773079B
:101AD0008407950720F079F4A6F50C940B0D0EF40D
:101AE000E0950B2EBA2FA02D0B01B90190010C012E
:101AF000CA01A0011124FF27591B99F0593F50F446
:101B0000503E68F11A16F040A22F232F342F44279D
:101B1000585FF3CF469537952795A795F040539595
:101B2000C9F77EF41F16BA0B620B730B840BBAF065
:101B30009150A1F0FF0FBB1F661F771F881FC2F7D0
:101B40000EC0BA0F621F731F841F48F487957795E4
:101B50006795B795F7959E3F08F0B0CF9395880F9E
:101B600008F09927EE0F9795879508950E94BD0D6F
:101B70006894B1110C940C0D08950E94F10C88F03A
:101B80009F5798F0B92F9927B751B0F0E1F0660F41
:101B9000771F881F991F1AF0BA95C9F714C0B13082
:101BA00091F00E940B0DB1E008950C940B0D672F7E
:101BB000782F8827B85F39F0B93FCCF386957795B1
:101BC0006795B395D9F73EF490958095709561959A
:101BD0007F4F8F4F9F4F08950E94300C880B990BB9
:101BE0000895AA1BBB1B51E107C0AA1FBB1FA61764
:101BF000B70710F0A61BB70B881F991F5A95A9F7B6
:101C000080959095BC01CD010895052E97FB1EF49B
:101C100000940E941C0E57FD07D00E94240E07FC62
:101C200003D04EF40C941C0E5095409530952195A0
:101C30003F4F4F4F5F4F08959095809570956195F8
:101C40007F4F8F4F9F4F0895A1E21A2EAA1BBB1BF7
:101C5000FD010DC0AA1FBB1FEE1FFF1FA217B30778
:101C6000E407F50720F0A21BB30BE40BF50B661F8E
:101C7000771F881F991F1A9469F760957095809552
:101C800090959B01AC01BD01CF010895EE0FFF1FA0
:101C90000590F491E02D0994CF93DF938230910564
:101CA00010F482E090E0E091DE02F091DF0220E0AB
:101CB00030E0C0E0D0E0309711F140815181481709
:101CC0005907C0F04817590761F482819381209722
:101CD00019F09B838A832BC09093DF028093DE02EE
:101CE00026C02115310519F04217530718F49A013F
:101CF000BE01DF01EF010280F381E02DDCCF211571
:101D0000310509F1281B390B2430310590F4129666
:101D10008D919C9113976115710521F0FB019383BF
:101D2000828304C09093DF028093DE02FD0132962D
:101D300044C0FD01E20FF31F8193919322503109BA
:101D40002D933C933AC02091DC023091DD02232B8D
:101D500041F420910801309109013093DD02209374
:101D6000DC0220910601309107012115310541F473
:101D70002DB73EB740910A0150910B01241B350B42
:101D8000E091DC02F091DD02E217F307A0F42E1BD4
:101D90003F0B2817390778F0AC014E5F5F4F2417CF
:101DA000350748F04E0F5F1F5093DD024093DC0271
:101DB0008193919302C0E0E0F0E0CF01DF91CF91F9
:101DC00008950F931F93CF93DF93009709F48CC06E
:101DD000FC013297138212820091DE021091DF0221
:101DE0000115110581F420813181820F931F20910B
:101DF000DC023091DD022817390779F5F093DD0216
:101E0000E093DC0271C0D80140E050E0AE17BF079C
:101E100050F412962D913C911397AD012115310587
:101E200009F1D901F3CF9D01DA0133832283608167
:101E30007181860F971F8217930769F4EC0128813F
:101E40003981260F371F2E5F3F4F318320838A81D0
:101E50009B8193838283452B29F4F093DF02E093E7
:101E6000DE0242C01396FC93EE931297ED01499166
:101E700059919E01240F351FE217F30771F48081F9
:101E80009181840F951F029611969C938E93828167
:101E9000938113969C938E931297E0E0F0E0D80123
:101EA00012968D919C911397009719F0F8018C016F
:101EB000F6CF8D919C9198012E5F3F4F820F931F1B
:101EC0002091DC023091DD022817390769F4309740
:101ED00029F41092DF021092DE0202C013821282F5
:101EE0001093DD020093DC02DF91CF911F910F91DF
:101EF0000895A0E0B0E0EFE7FFE00C94160DEC01D0
:101F0000009721F4CB010E944C0EB8C0FC01E60FF3
:101F1000F71F9C0122503109E217F30708F4ACC007
:101F2000D9010D911C91119706171707B0F00530D4
:101F3000110508F49FC0C80104978617970708F495
:101F400099C002501109061B170B019311936D9351
:101F50007C93CF010E94E10E8DC05B01A01AB10AF3
:101F60004C01800E911EA091DE02B091DF0240E094
:101F700050E0E12CF12C109709F44AC0A815B905DE
:101F8000D1F56D907C901197630182E0C80ED11C51
:101F9000CA14DB0480F1A3014A195B096A0182E0DB
:101FA000C80ED11C1296BC9012971396AC91B5E056
:101FB000CB16D10440F0B282A38351834083D90170
:101FC0006D937C930AC00E5F1F4FC301800F911F5A
:101FD000F90191838083EB2DFA2FE114F10431F0A4
:101FE000D7011396FC93EE93129744C0F093DF024F
:101FF000E093DE023FC08D919C91119748175907DD
:1020000008F4AC017D0112960D90BC91A02DB3CFC8
:102010008091DC029091DD0288159905E1F4461764
:102020005707C8F48091060190910701009741F489
:102030008DB79EB740910A0150910B01841B950BFF
:10204000E817F907C8F4F093DD02E093DC02F90128
:10205000718360830FC0CB010E944C0E7C010097FE
:1020600059F0A801BE010E944810CE010E94E10E65
:10207000C70104C0CE0102C080E090E0CDB7DEB75A
:10208000EEE00C94320D81E090E0F8940C9458103E
:10209000FB01DC0102C001900D9241505040D8F785
:1020A0000895FB01DC0101900D920020E1F70895F5
:0420B000F894FFCFD2
:1020B400280428043C000000E00280000000000026
:1020C4008C01F5002401D3015501330147010D0AA8
:1020D4000039393939390053756D0053746172749C
:1020E400206F66207468652070726F6772616D007E
:1020F400566F6C746167653A2000363530303000B5
:102104004661696C656420746F2072656164206641
:10211400726F6D204448542073656E736F72210092
:0C212400363130303000363330303000BF
:107E0000112484B714BE81FFF0D085E080938100F7
:107E100082E08093C00088E18093C10086E0809377
:107E2000C20080E18093C4008EE0C9D0259A86E02C
:107E300020E33CEF91E0309385002093840096BBD3
:107E4000B09BFECF1D9AA8958150A9F7CC24DD24C4
:107E500088248394B5E0AB2EA1E19A2EF3E0BF2EE7
:107E6000A2D0813461F49FD0082FAFD0023811F036
:107E7000013811F484E001C083E08DD089C08234E0
:107E800011F484E103C0853419F485E0A6D080C0E4
:107E9000853579F488D0E82EFF2485D0082F10E0AE
:107EA000102F00270E291F29000F111F8ED06801E7
:107EB0006FC0863521F484E090D080E0DECF843638
:107EC00009F040C070D06FD0082F6DD080E0C81688
:107ED00080E7D80618F4F601B7BEE895C0E0D1E017
:107EE00062D089930C17E1F7F0E0CF16F0E7DF06D8
:107EF00018F0F601B7BEE89568D007B600FCFDCFD4
:107F0000A601A0E0B1E02C9130E011968C91119780
:107F100090E0982F8827822B932B1296FA010C0160
:107F200087BEE89511244E5F5F4FF1E0A038BF0790
:107F300051F7F601A7BEE89507B600FCFDCF97BE46
:107F4000E89526C08437B1F42ED02DD0F82E2BD052
:107F50003CD0F601EF2C8F010F5F1F4F84911BD097
:107F6000EA94F801C1F70894C11CD11CFA94CF0C13
:107F7000D11C0EC0853739F428D08EE10CD085E9AC
:107F80000AD08FE07ACF813511F488E018D01DD067
:107F900080E101D065CF982F8091C00085FFFCCF94
:107FA0009093C60008958091C00087FFFCCF809118
:107FB000C00084FD01C0A8958091C6000895E0E648
:107FC000F0E098E1908380830895EDDF803219F02E
:107FD00088E0F5DFFFCF84E1DECF1F93182FE3DFCA
:107FE0001150E9F7F2DF1F91089580E0E8DFEE27F6
:047FF000FF270994CA
:027FFE00040479
:0400000300007E007B
:00000001FF
